:020000040000FA
:0600000097EF12F0120060
:020006001200E6
:0600080038EF10F01200B9
:02000E000000F0
:020010000000EE
:06001800C6EF0FF012001C
:02001E000500DB
:100020006126000080000000280000000E00000093
:10003000FB01000004000000002600009601000003
:10004000610000006A250000000100009600000029
:0C0050004A250000A8000000200000006D
:04005C00D9CFE6FF13
:10006000E1CFD9FF040EE126DE6ADD6ADECF10F0B3
:10007000DDCF11F0126A136A11AE02D01268136854
:10008000D950FB0FE96EFF0EDA20EA6EEE50105CDD
:10009000EE501158EE501258EE5013581DE2020E59
:1000A000DB6A030EDB6A020EDBCF10F0030EDBCF40
:1000B00011F0D890115004E6050E105C000E115896
:1000C00006E2020EDB2A030EEEE3DB2AECD7DF2A80
:1000D000010ECCE3DB2ACAD7040EE15C02E2E16A3E
:1000E000E552E16EE552E7CFD9FF1200D9CFE6FF26
:1000F000E1CFD9FF040EE126DE6ADD6ADECF10F023
:10010000DDCF11F0126A136A11AE02D012681368C3
:10011000D950FB0FE96EFF0EDA20EA6EEE50105C4C
:10012000EE501158EE501258EE5013581DE2020EC8
:10013000DB6A030EDB6A020EDBCF10F0030EDBCFAF
:1001400011F0D890115004E6EE0E105C000E11581C
:1001500006E2020EDB2A030EEEE3DB2AECD7DF2AEF
:10016000010ECCE3DB2ACAD7040EE15C02E2E16AAD
:10017000E552E16EE552E7CFD9FF1200D9CFE6FF95
:10018000E1CFD9FF0F0E8116FE0EDB50F00B81126E
:100190008186010EE66EE66AE66AE66AA7DFE55248
:1001A000E552E552E5528196010EE66EE66AE66A90
:1001B000E66A9CDFE552E552E552E5520F0E8116E4
:1001C000FE0EDB38F00B81128186010EE66EE66AC8
:1001D000E66AE66A8BDFE552E552E552E552819622
:1001E000010EE66EE66AE66AE66A80DFE552E552EF
:1001F000E552E552E552E7CFD9FF1200D9CFE6FF2D
:10020000E1CFD9FFE652190EE66EE66AE66AE66AC3
:100210006DDFE552E552E552E5520F0E8116F80EFC
:1002200081160F0E8116300E81128186010EE66E48
:10023000E66AE66AE66A5ADFE552E552E552E552B9
:100240008196010EE66EE66AE66AE66A4FDFE552DF
:10025000E552E552E5520F0E8116300E811281866D
:10026000010EE66EE66AE66AE66A40DFE552E552AE
:10027000E552E5528196010EE66EE66AE66AE66AA6
:1002800035DFE552E552E552E5520F0E8116300E8C
:1002900081128186010EE66EE66AE66AE66A26DF6C
:1002A000E552E552E552E5528196010EE66EE66AA8
:1002B000E66AE66A1BDFE552E552E552E5520F0EAB
:1002C0008116818A8186010EE66EE66AE66AE66A32
:1002D0000DDFE552E552E552E5528196010EE66EDC
:1002E000E66AE66AE66A02DFE552E552E552E55261
:1002F000280EE66E43DFE5520C0EE66E3FDFE55258
:10030000E552E552E7CFD9FF1200D9CFE6FFE1CFA2
:10031000D9FF020EE126DF6A010EDB6A81940F0E1F
:10032000E66EE66AE66AE66A99DEE552E552E5526D
:10033000E5520F0E81128186E66EE66AE66AE66A8B
:100340008DDEE552E552E552E5520F0E8114E76E5F
:10035000010EE7CFDBFF81960F0EE66EE66AE66AD6
:10036000E66A7CDEE552E552E552E5520F0E811257
:100370008186E66EE66AE66AE66A70DEE552E55276
:10038000E552E5520F0E8114DF6E010EDB50DF12D5
:100390008196010EE66EE66AE66AE66A5FDEE5527F
:1003A000E552E552E552DF50106E020EE15C02E2CA
:1003B000E16AE552E16E1050E552E7CFD9FF120035
:1003C000D9CFE6FFE1CFD9FFE652DF6A9EDFDF6ECD
:1003D000DFBEFCD7DF50E552E552E7CFD9FF120070
:1003E000D9CFE6FFE1CFD9FF0F0E8116FE0EDB500D
:1003F00081128186050EE66EE66AE66AE66A2EDE00
:10040000E552E552E552E5528196050EE66EE66A42
:10041000E66AE66A23DEE552E552E552E552E55228
:10042000E7CFD9FF1200D9CFE6FFE1CFD9FF819402
:10043000050EE66EE66AE66AE66A10DEE552E55209
:10044000E552E552FE0EDBCFE6FFCADFE552FE0EB7
:10045000DB38F00BE66EC4DFE552E552E7CFD9FF9B
:100460001200D9CFE6FFE1CFD9FF8184050EE66EF9
:10047000E66AE66AE66AF2DDE552E552E552E552E1
:10048000FE0EDBCFE6FFACDFE552FE0EDB38F00BF5
:10049000E66EA6DFE5528194E552E7CFD9FF120060
:1004A000D9CFE6FFE1CFD9FFFE0EDBCFE6FFD9DFE4
:1004B000E552E552E7CFD9FF1200D9CFE6FFE1CFF1
:1004C000D9FFFE0EDBCFE6FFCCDFE552E552E7CFEA
:1004D000D9FF1200D9CFE6FFE1CFD9FFFD0EDBCF68
:1004E000F6FFFE0EDBCFF7FF0800F5500FE0FD0E24
:1004F000DBCFF6FFDB2AFE0EDBCFF7FF01E3DB2AC3
:100500000800F550E66ED9DFE552E8D7E552E7CFAF
:10051000D9FF1200D9CFE6FFE1CFD9FFE652FD0E99
:10052000DB500F0B106EFE0EDB50010B400DF35035
:100530001024DF6E7F0EDF14800FDF6EDFCFE6FF4B
:1005400072DFE552E552E552E7CFD9FF1200010E06
:10055000E66E69DFE552E66AE66ADCDFE552E552FF
:100560001200D9CFE6FFE1CFD9FF050EE126010E3B
:10057000F36EDB6E020EDB6A030EDB6A040EDB6ACF
:10058000DF6ADFCF10F0116A10BE1168FB0EDBCFFF
:1005900012F0FC0EDBCF13F011501318E8AE02D0AE
:1005A000133404D01250105C135011582DE2FD0E7C
:1005B000DBCF10F0FE0EDBCF11F0126A136A11AE22
:1005C00002D012681368D950010FE96EDACFEAFF42
:1005D00010C00BF011C00CF012C00DF013C00EF0E3
:1005E000EECF06F0EECF07F0EECF08F0EFCF09F038
:1005F000F8EC11F005C0EDFF04C0EDFF03C0EDFF06
:1006000002C0EFFFDF2ABDD7010EDBCF10F0020ED4
:10061000DBCF11F0030EDBCF12F0040EDBCF13F0B3
:1006200010C006F011C007F012C008F013C009F0A6
:10063000050EE15C02E2E16AE552E16EE552E7CFC8
:10064000D9FF1200D9CFE6FFE1CFD9FF020EE12694
:10065000DF6AFB0EDBCF10F0FC0EDBCF11F0FD0EDE
:10066000DBCF12F0FE0EDBCF13F010501110121082
:10067000131005E1300EE66E20DFE552F4D0D950BC
:10068000FB0FE96EFF0EDA20EA6ED890030EEB50F6
:10069000000A08E6000EEE5C000EEE58000EEE5862
:1006A000000EEE5815E22D0EE66E07DFE552D9502A
:1006B000FB0FE96EFF0EDA20EA6E000EEE6CEF1E05
:1006C000EE22EF1EEE22EF1EEF22ED52ED52ED5222
:1006D000DE52070EDD6E010EDBCF10F0000EE76E6E
:1006E0001018E8AE02D0103403D0E750D880105470
:1006F00001E3B9D0010EDB04146E156A14BE15684F
:1007000014C0E6FF15C0E6FF0A0EE66EE66A29DFB2
:10071000E552E552E552E55206C010F007C011F06F
:1007200008C012F009C013F006C00BF007C00CF0AF
:1007300008C00DF009C00EF0FB0EDBCF06F0FC0E7A
:10074000DBCF07F0FD0EDBCF08F0FE0EDBCF09F0AC
:1007500030EC12F0065007100810091041E0010EAD
:10076000DF6EDB04186E196A18BE196818C0E6FF40
:1007700019C0E6FF0A0EE66EE66AF3DEE552E552C0
:10078000E552E55206C014F007C015F008C016F097
:1007900009C017F006C00BF007C00CF008C00DF040
:1007A00009C00EF0FB0EDBCF06F0FC0EDBCF07F02E
:1007B000FD0EDBCF08F0FE0EDBCF09F030EC12F0BF
:1007C00006C010F007C011F008C012F009C013F005
:1007D000300E1026000E112212221322105003D0C8
:1007E000DF5004E0300EE66E68DEE552010EDB04F9
:1007F000146E156A14BE156814C0E6FF15C0E6FF36
:100800000A0EE66EE66AADDEE552E552E552E552C5
:1008100006C010F007C011F008C012F009C013F0B4
:10082000D950FB0FE96EFF0EDA20EA6E06C00BF01E
:1008300007C00CF008C00DF009C00EF0EECF06F0B6
:10084000EECF07F0EECF08F0EFCF09F030EC12F06A
:1008500005C0EDFF04C0EDFF03C0EDFF02C0EFFFD8
:10086000010EDB0638D7020EE15C02E2E16AE552D6
:10087000E16EE552E7CFD9FF1200D9CFE6FFE1CF15
:10088000D9FFFD0EDBCFE6FFFE0EDBCFE6FF42DE3B
:10089000E552E552D950F90FE96EFF0EDA20EA6E03
:1008A000EECFE6FFEECFE6FFEECFE6FFEFCFE6FFBF
:1008B000C9DEE552E552E552E552E552E7CFD9FFF0
:1008C0001200D9CFE6FFE1CFD9FFFD0EDBCFE6FF67
:1008D000FE0EDBCFE6FF1EDEE552E552FB0EDBCF60
:1008E000E6FFFC0EDBCFE6FFF5DDE552E552E55213
:1008F000E7CFD9FF1200D9CFE6FFE1CFD9FFF7C18B
:1009000010F0F8C111F0040ED89010361136E80638
:10091000FBE1D70E1026010E112210500101F9251E
:10092000E96E1150FA21EA6EFE0EDBCFEFFFF92BD4
:10093000000EFA23E552E7CFD9FF1200D9CFE6FF28
:10094000E1CFD9FFE652DF6ADFCF10F0100EE76E7D
:100950001018E8AE02D0E73402D0E750105C18E27D
:10096000DFCFE9FFEA6AE9BEEA68D70EE926010EA1
:10097000EA22200EEF6EDFCFE9FFEA6AE9BEEA68FD
:10098000E70EE926010EEA22200EEF6EDF2ADCD701
:10099000E552E552E7CFD9FF1200D9CFE6FFE1CF0C
:1009A000D9FFE6520101D651030A52E0010A36E0AE
:1009B000030A1AE0010A67E1E66AE66AABDDE5527E
:1009C000E552DF6A080EDF5C0CE2DF50EA6AD70FFF
:1009D000E96E010EEA22EF50E66E6FDDE552DF2A86
:1009E000F1D70101010E32D0080EE66EE66A92DD03
:1009F000E552E552DF6A080EDF5C0DE2080EDF24E7
:100A0000EA6AD70FE96E010EEA22EF50E66E55DD75
:100A1000E552DF2AF0D70101020E18D0E66A010E76
:100A2000E66E78DDE552E552DF6A080EDF5C0CE227
:100A3000DF50EA6AE70FE96E010EEA22EF50E66E38
:100A40003CDDE552DF2AF1D70101030ED66F1CD041
:100A5000080EE66E010EE66E5DDDE552E552DF6AD8
:100A6000080EDF5C0DE2080EDF24EA6AE70FE96E8C
:100A7000010EEA22EF50E66E20DDE552DF2AF0D7C4
:100A80000101D66B01D0D66BE552E552E7CFD9FF15
:100A90001200D9CFE6FFE1CFD9FFE6520101D651CE
:100AA000010A1BE0010A32E1E66AE66A33DDE5523B
:100AB000E552DF6A100EDF5C0CE2DF50EA6AD70F06
:100AC000E96E010EEA22EF50E66EF7DCE552DF2A0E
:100AD000F1D70101010ED66F1AD0E66A010EE66E5B
:100AE00019DDE552E552DF6A100EDF5C0CE2DF50E3
:100AF000EA6AE70FE96E010EEA22EF50E66EDDDCEE
:100B0000E552DF2AF1D70101D66B01D0D66BE55251
:100B1000E552E7CFD9FF1200D9CFE6FFE1CFD9FFE9
:100B2000E652E66AE66AF6DCE552E552DF6A100E46
:100B3000DF5C0CE2DF50EA6AD70FE96E010EEA22B1
:100B4000EF50E66EBADCE552DF2AF1D7E66A010E15
:100B5000E66EE0DCE552E552DF6A100EDF5C0CE287
:100B6000DF50EA6AE70FE96E010EEA22EF50E66E07
:100B7000A4DCE552DF2AF1D7E552E552E7CFD9FFF1
:100B80001200D9CFE6FFE1CFD9FFFE0EDB50010BFB
:100B90000101F76FF86BFD0EDB500F0BF96FFA6B6D
:100BA000F7C110F0F8C111F0040ED89010361136CC
:100BB000E806FBE1D70E1026010E112210500101AC
:100BC000F925E96E1150FA21EA6EFC0EDBCFEFFF3A
:100BD000E552E7CFD9FF1200D9CFE6FFE1CFD9FF29
:100BE000020EE126DF6AFE0EDB50010B0101F76FFA
:100BF000F86BFD0EDB500F0BF96FFA6BF90EDBCFC4
:100C000010F0FA0EDBCF11F0FB0EDBCF12F0FC0E72
:100C1000DBCF13F0105011101210131005E1300E3D
:100C2000E66E69DEE552F5D0D950F90FE96EFF0E98
:100C3000DA20EA6ED890030EEB50000A08E6000EA8
:100C4000EE5C000EEE58000EEE58000EEE5815E267
:100C50002D0EE66E50DEE552D950F90FE96EFF0E0B
:100C6000DA20EA6E000EEE6CEF1EEE22EF1EEE2290
:100C7000EF1EEF22ED52ED52ED52DE52070EDD6E09
:100C8000010EDBCF10F0000EE76E1018E8AE02D0B8
:100C9000103403D0E750D880105401E3BAD0010ECD
:100CA000DB04146E156A14BE156814C0E6FF15C087
:100CB000E6FF0A0EE66EE66A54DCE552E552E552BE
:100CC000E55206C010F007C011F008C012F009C0CC
:100CD00013F006C00BF007C00CF008C00DF009C0FF
:100CE0000EF0F90EDBCF06F0FA0EDBCF07F0FB0EAD
:100CF000DBCF08F0FC0EDBCF09F030EC12F0065031
:100D000007100810091041E0010EDF6EDB04186EB9
:100D1000196A18BE196818C0E6FF19C0E6FF0A0E66
:100D2000E66EE66A1EDCE552E552E552E55206C083
:100D300014F007C015F008C016F009C017F006C07F
:100D40000BF007C00CF008C00DF009C00EF0F90E52
:100D5000DBCF06F0FA0EDBCF07F0FB0EDBCF08F09F
:100D6000FC0EDBCF09F030EC12F006C010F007C02B
:100D700011F008C012F009C013F0300E1026000E5A
:100D8000112212221322105003D0DF5004E0300E43
:100D9000E66EB1DDE552010EDB04146E156A14BE79
:100DA000156814C0E6FF15C0E6FF0A0EE66EE66A97
:100DB000B1EC02F0E552E552E552E55206C010F002
:100DC00007C011F008C012F009C013F0D950F90F94
:100DD000E96EFF0EDA20EA6E06C00BF007C00CF0D9
:100DE00008C00DF009C00EF0EECF06F0EECF07F010
:100DF000EECF08F0EFCF09F030EC12F005C0EDFFB8
:100E000004C0EDFF03C0EDFF02C0EFFF010EDB06E3
:100E100037D7020EE15C02E2E16AE552E16EE5528B
:100E2000E7CFD9FF1200D9CFE6FFE1CFD9FFFE0E01
:100E3000DB50010B0101F76FF86BFD0EDB500F0B60
:100E4000F96FFA6BFB0EDBCFF6FFFC0EDBCFF7FF83
:100E50000800F5500FE0FB0EDBCFF6FFDB2AFC0E9F
:100E6000DBCFF7FF01E3DB2A0800F550E66E43DD38
:0C0E7000E552E8D7E552E7CFD9FF1200A9
:040E7C00D9CFE6FFE5
:100E8000E1CFD9FF020EE126DE6ADD6A4ED800010D
:100E9000B351FDE0B36B38EC0EF061D9CDEC04F04A
:100EA000F6D7D9CFE6FFE1CFD9FF040EE126DE6AFF
:100EB000DD6ADECF10F0DDCF11F0FD0EDBCF12F0DA
:100EC000FE0EDBCF13F011501318E8AE02D013342E
:100ED00004D01250105C135011581DE2020EDB6A50
:100EE000030EDB6A020EDBCF10F0030EDBCF11F036
:100EF000D890115004E6EE0E105C000E115806E278
:100F0000020EDB2A030EEEE3DB2AECD7DF2A010E0A
:100F1000D0E3DB2ACED7040EE15C02E2E16AE552BF
:100F2000E16EE552E7CFD9FF1200936A956AFEECB5
:100F300000F09EEC04F0BEEC0FF0E80EE66E030E3F
:100F4000E66EAFDFE552E552570EE66E120EE66E24
:100F5000A6EC0BF0E552E552AE0EE66E240EE66E00
:100F600048EC0CF0E552E552660EE66EB70EE66E02
:100F700009EC0DF0E552E552020EE66EE66AE4EC8D
:100F80000DF0E552E5520A0EE66EE66AF6EC0DF05B
:100F9000E552E552320EE66EE66A15EC0EF0E552C9
:100FA000E55234EF0EF0D9CFE6FFE1CFD9FFFE0EC8
:100FB000DBCF11F0800E11141AE1FD0EDBCF12F021
:100FC000FE0EDBCF13F0133404E212500708000EBC
:100FD00013540DE3FD0EDBCFE9FFFE0EDBCFEAFF7E
:100FE000000EE926010EEA22EF508310836EE552CF
:100FF000E7CFD9FF1200D9CFE6FFE1CFD9FFFE0E30
:10100000DBCF11F0800E11141AE1FD0EDBCF12F0D0
:10101000FE0EDBCF13F0133404E212500708000E6B
:1010200013540DE3FD0EDBCFE9FFFE0EDBCFEAFF2D
:10103000000EE926010EEA22EF1C8314836EE552AE
:10104000E7CFD9FF1200D9CFE6FFE1CFD9FFFD0EE0
:10105000DBCFE9FFFE0EDBCFEAFF080EE926010E2B
:10106000EA22EF0415E1FD0EDBCFE6FFFE0EDBCF3B
:10107000E6FFC1DFE552E552FD0EDBCFE9FFFE0ED4
:10108000DBCFEAFF080EE926010EEA22EF6A15D04F
:10109000FD0EDBCFE6FFFE0EDBCFE6FF84DFE55281
:1010A000E552FD0EDBCFE9FFFE0EDBCFEAFF080EB7
:1010B000E926010EEA22010EEF6EE552E7CFD9FFD5
:1010C0001200D9CFE6FFE1CFD9FF020EE126DE6A9A
:1010D000DD6ADECF10F0DDCF11F0113404E21050E4
:1010E0000708000E115421E3DECFE6FFDDCFE6FF57
:1010F0005ADFE552E552F40EE66E010EE66ED1DEE1
:10110000E552E552DECFE6FFDDCFE6FF74DFE552C4
:10111000E552F40EE66E010EE66EC3DEE552E552D0
:10112000DF2A010ED6E3DB2AD4D7020EE15C02E20D
:10113000E16AE552E16EE552E7CFD9FF1200000106
:10114000010E841903E1855101E1010C000C00013D
:10115000010E861903E1875101E1010C000C010128
:101160008E51040A01E1FFD1070A01E1E9D10D0A1C
:1011700001E1A7D1050A01E14CD1060A01E13ED106
:101180000A0A01E10DD10D0A01E100D2080A01E1CC
:1011900000D1040A01E1D5D00A0A01E198D00D0A74
:1011A0005DE0040A26E0050A01E012000A0EE66E80
:1011B000220EE66EE66AE66A13EC07F0E552E552A7
:1011C000E552E552FA0EE66E210EE66EE66A010E73
:1011D000E66E13EC07F0E552E552E552E552AFDA60
:1011E00099DA000901E1D2D101018F6B906B050EF4
:1011F00002D1ED0EE66E210EE66EE66AE66A13ECAB
:1012000007F0E552E552E552E552DF0EE66E210E9B
:10121000E66EE66A010EE66E13EC07F0E552E55263
:10122000E552E5520101902B5DDA000907E001016A
:101230008F2B906B010E8E6F9EEC04F05BDA000931
:1012400007E001018F6B906B0C0E8E6F9EEC04F02B
:10125000640E0101905D01E299D196D1CE0EE66E49
:10126000210EE66EE66AE66A13EC07F0E552E552F7
:10127000E552E5520101902B0CDA000919E0CC0E81
:10128000E66E210EE66E8FC1E6FF010EE66E13ECF0
:1012900007F0E552E552E552E55201018F51EA6A45
:1012A000C80FE96E000EEA22D1C0EFFF8F2B906BC2
:1012B000040E01018F5D02E3020E8E6F640E905DDD
:1012C00001E38E6B27DA000901E160D138D0B50E59
:1012D000E66E210EE66EE66AE66A13EC07F0E5526A
:1012E000E552E552E5520101902BD3D9000919E0EE
:1012F000CC0EE66E210EE66E8FC1E6FF010EE66EA5
:1013000013EC07F0E552E552E552E55201018F5129
:10131000EA6ACC0FE96E000EEA22D1C0EFFF8F2BF4
:10132000906B050E01018F5D02E30D0E8E6F640E52
:10133000905D01E38E6BEED9000901E127D1010137
:1013400023D1A30EE66E210EE66EE66AE66A13EC82
:1013500007F0E552E552E552E552910EE66E210E98
:10136000E66EE66A010EE66E13EC07F0E552E55212
:10137000E552E552B7D9000907E001018F2B906BC8
:101380000A0E8E6F9EEC04F0B5D9000901E1FED083
:101390002ED0906BFCD8000938E00101060E37D042
:1013A000A30EE66E210EE66EE66AE66A13EC07F01F
:1013B000E552E552E552E552800EE66E210EE66EEC
:1013C000E66A010EE66E13EC07F0E552E552E552CF
:1013D000E55288D9000907E001018F2B906B0B0EB5
:1013E0008E6F9EEC04F086D9000901E1CFD0010197
:1013F0008F2B906B030E8E6F9EEF04F0906B08D9CD
:10140000000903E00101070E02D00101040E8E6FF6
:101410001200902B730EE66E210EE66EE66AE66A07
:1014200013EC07F0E552E552E552E55232D90009D6
:1014300039E02A0E0001D15D14E101018F5100084D
:101440002FE28F07710EE66E210EE66E8FC1E6FF6A
:10145000010EE66E13EC07F0E552E552E552E55257
:101460001FD00A0ED15D1CE2050E01018F5D18E24E
:10147000CC0EE66E210EE66E8FC1E6FF010EE66E23
:1014800013EC07F0E552E552E552E55201018F51A8
:10149000EA6ACC0FE96E000EEA22D1C0EFFF8F2B73
:1014A0000101906B37D9000907E0050E01018F5D3E
:1014B00003E30E0E8E6F36D9640E0101905D66E374
:1014C00063D0902B620EE66E210EE66EE66AE66A47
:1014D00013EC07F0E552E552E552E55201019005A3
:1014E0002AE1050EE66EE66ACC0EE66E000EE66EAA
:1014F00093C1E9FF94C1EAFF070EEA02F3CFEAFFC6
:10150000E902F3CFE9FFF450EA266B0EE926010E5B
:10151000EA22020EE926000EEA22E9CF10F0EACF15
:1015200011F0E9CFE6FFEACFE6FFACEC11F0126E66
:10153000060EE15E125001019051280827E224D0E6
:10154000902B510EE66E210EE66EE66AE66A13EC0B
:1015500007F0E552E552E552E552EAD8640E010182
:10156000905D14E311D0902B400EE66E210EE66ED6
:10157000E66AE66A13EC07F0E552E552E552E552F9
:10158000280E0101905D02E38E6B12001200D9CF8C
:10159000E6FFE1CFD9FF020EE126DF6A040EDF5C31
:1015A0002AE291C1E9FF92C1EAFF060EEA02F3CFF7
:1015B000EAFFE902F3CFE9FFF450EA264D0EE926EF
:1015C000010EEA22020EE926000EEA22DF50E9248B
:1015D000E96E000EEA20EA6EEFCF10F0DF50EA6A03
:1015E000C80FE96E000EEA22EF50105C02E0000E18
:1015F00003D0DF2AD3D7010E106E020EE15C02E2A7
:10160000E16AE552E16E1050E552E7CFD9FF1200D2
:10161000D9CFE6FFE1CFD9FF020EE126DF6A050E42
:10162000DF5C2AE293C1E9FF94C1EAFF070EEA02F8
:10163000F3CFEAFFE902F3CFE9FFF450EA266B0E9D
:10164000E926010EEA22020EE926000EEA22DF5008
:10165000E924E96E000EEA20EA6EEFCF10F0DF50C9
:10166000EA6ACC0FE96E000EEA22EF50105C02E04D
:10167000000E03D0DF2AD3D7010E106E020EE15CFC
:1016800002E2E16AE552E16E1050E552E7CFD9FF80
:101690001200D9CFE6FFE1CFD9FFE652DF6ADF5073
:1016A0000F081AE3EA6ADF34FE0BEA36E96E800EB1
:1016B000E926000EEA22010EEE180CE1ED500AE1D7
:1016C000DF50EA6A100FE96E010EEA22EFCFD1F087
:1016D000010E03D0DF2AE3D7000EE552E552E7CF33
:1016E000D9FF12000001010E801903E1815101E1CF
:1016F000010C000C0001010E821903E1835101E18C
:10170000010C000C0001010E981903E1995101E14F
:10171000010C000C0001010E9C1903E19D5101E137
:10172000010C000C9EEC04F00101906B8F6B120019
:10173000000EE66EE66A37DCE552E5521200000E56
:0C174000E66EE66A58DCE552E552120045
:04174C00D9CFE6FF0C
:10175000E1CFD9FFD59EFD0EDBCFA8F0FE0EDBCF8B
:10176000A9F0D59C13681468156AA8C016F0A9C022
:1017700017F0186A1650135C106E17501458116E3B
:1017800018501558126E0C6A010E0D6E0E6A10C0BC
:1017900007F011C008F012C009F030EC11F003504E
:1017A000D66E13681468156AA8C016F0A9C017F0A1
:1017B000186A1650135C106E17501458116E18509A
:1017C0001558126E0C6A010E0D6E0E6A10C007F0ED
:1017D00011C008F012C009F030EC11F007C010F091
:1017E00008C011F009C012F00750D76ED59AD586FF
:1017F000F28AF294F184D58EE552E7CFD9FF120038
:10180000D59E120013681468156AA8C016F0A9C006
:1018100017F0186A1650135C106E17501458116E9A
:1018200018501558126E0C6A010E0D6E0E6A10C01B
:1018300007F011C008F012C009F030EC11F00350AD
:10184000D66E13681468156AA8C016F0A9C017F000
:10185000186A1650135C106E17501458116E1850F9
:101860001558126E0C6A010E0D6E0E6A10C007F04C
:1018700011C008F012C009F030EC11F007C010F0F0
:1018800008C011F009C012F00750D76ED58E1200B3
:10189000D9CFE6FFE1CFD9FFCD90FD0EDBCFAAF087
:1018A000FE0EDBCFABF013681468156AAAC016F001
:1018B000ABC017F0186A1650135C106E175014580E
:1018C000116E18501558126E0C6A010E0D6E0E6ACC
:1018D00010C007F011C008F012C009F030EC11F090
:1018E0000750CF6E13681468156AAAC016F0ABC013
:1018F00017F0186A1650135C106E17501458116EBA
:1019000018501558126E0C6A010E0D6E0E6A10C03A
:1019100007F011C008F012C009F030EC11F003C05C
:1019200010F004C011F005C012F00350CE6E9D807F
:101930009E909F90CD8ECD8CCD98CD9ACD96CD9208
:10194000CD80E552E7CFD9FF120013681468156AFD
:10195000AAC016F0ABC017F0186A1650135C106ED0
:1019600017501458116E18501558126E0C6A010E4B
:101970000D6E0E6A10C007F011C008F012C009F019
:1019800030EC11F00750CF6E13681468156AAAC0C6
:1019900016F0ABC017F0186A1650135C106E175093
:1019A0001458116E18501558126E0C6A010E0D6EF7
:1019B0000E6A10C007F011C008F012C009F030EC38
:1019C00011F003C010F004C011F005C012F0035074
:1019D000CE6ECD801200CD901200D9CFE6FFE1CFC0
:1019E000D9FFCA94CC6AFE0EDB500001AC6FAD6B20
:1019F000CB6E9D829E929F92CA90CA92CA84E552F3
:101A0000E7CFD9FF1200ACC0CBFFCA841200CA9442
:101A10001200D9CFE6FFE1CFD9FFB190FD0EDBCFA9
:101A2000AEF0FE0EDBCFAFF013681468156AAEC0DF
:101A300016F0AFC017F0186A1650135C106E1750EE
:101A40001458116E18501558126E0C6A010E0D6E56
:101A50000E6A10C007F011C008F012C009F030EC97
:101A600011F00750B36E13681468156AAEC016F013
:101A7000AFC017F0186A1650135C106E1750145848
:101A8000116E18501558126E0C6A010E0D6E0E6A0A
:101A900010C007F011C008F012C009F030EC11F0CE
:101AA00003C010F004C011F005C012F00350B26E74
:101AB000A082A192A292B18EB198B19AB192B18056
:101AC000E552E7CFD9FF120013681468156AAEC05B
:101AD00016F0AFC017F0186A1650135C106E17504E
:101AE0001458116E18501558126E0C6A010E0D6EB6
:101AF0000E6A10C007F011C008F012C009F030ECF7
:101B000011F00350B26E13681468156AAEC016F077
:101B1000AFC017F0186A1650135C106E17501458A7
:101B2000116E18501558126E0C6A010E0D6E0E6A69
:101B300010C007F011C008F012C009F030EC11F02D
:101B400007C010F008C011F009C012F00750B36EC2
:101B5000B1801200B19012000001B82B000EB92321
:101B6000C051B85DC151B95904E3B86BB96B010EEE
:101B7000B06F12000001BA2B000EBB23C251BA5D38
:101B8000C351BB5904E3BA6BBB6B010EB16F1200BA
:101B90000001BC2B000EBD23C451BC5DC551BD5915
:101BA00004E3BC6BBD6B010EB26F12000001BE2BD3
:101BB000000EBF23C651BE5DC751BF5904E3BE6BC3
:101BC000BF6B010EB36F1200D9CFE6FFE1CFD9FF93
:101BD000FD0EDBCFC0F0FE0EDBCFC1F00001B86B15
:101BE000B96BB06BE552E7CFD9FF1200D9CFE6FF52
:101BF000E1CFD9FFFD0EDBCFC2F0FE0EDBCFC3F08D
:101C0000050E0D6E0E6AC2C008F0C3C009F00AECE2
:101C100011F008C0C2F009C0C3F00001BA6BBB6B81
:101C2000B16BE552E7CFD9FF1200D9CFE6FFE1CF84
:101C3000D9FFFD0EDBCFC6F0FE0EDBCFC7F00A0EDC
:101C40000D6E0E6AC6C008F0C7C009F00AEC11F0AC
:101C500008C0C6F009C0C7F00001BE6BBF6BB36B14
:081C6000E552E7CFD9FF1200A5
:081C68000F0E946E8268120059
:101C7000D9CFE6FFE1CFD9FF040EE126DE6ADD6AA7
:101C8000DECF10F0DDCF11F0D890115004E6040E35
:101C9000105C000E115801E390D0DECFE9FFDDCFDC
:101CA000EAFFA00EE926000EEA22EF1C826E020E69
:101CB000DB6A030EDB6A020EDBCF10F0030EDBCF14
:101CC00011F0D890115004E6040E105C000E11586B
:101CD0006EE2020EDBCFE9FF030EDBCFEAFFA40EBC
:101CE000E926000EEA22EF5082143FE1DECF14F025
:101CF000DDCF15F0D89014361536D8901436153639
:101D0000020EDB501424E96E030EDB501520EA6E40
:101D1000D890E936EA36800EE926000EEA22EECFA8
:101D200012F0EFCF13F0010E1226000E1322DECFB9
:101D300010F0DDCF11F0D89010361136D890103653
:101D40001136020EDB501024E96E030EDB50112019
:101D5000EA6ED890E936EA36800EE926000EEA22CD
:101D600012C0EEFF13C0EDFF1BD0DECF10F0DDCFB1
:101D700011F0D89010361136D89010361136020E68
:101D8000DB501024E96E030EDB501120EA6ED89070
:101D9000E936EA36800EE926000EEA22EE6AED6A9E
:101DA000020EDB2A030E01E286D7DB2A84D7DF2A64
:101DB000010E01E265D7DB2A63D7040EE15C02E283
:101DC000E16AE552E16EE552E7CFD9FF1200D9CFC3
:101DD000E6FFE1CFD9FF040EE126DE6ADD6ADECF41
:101DE00010F0DDCF11F0FD0EDBCF12F0FE0EDBCFD9
:101DF00013F011501318E8AE02D0133404D012506F
:101E0000105C135011581DE2020EDB6A030EDB6AF0
:101E1000020EDBCF10F0030EDBCF11F0D890115083
:101E200004E6EE0E105C000E115806E2020EDB2AEC
:101E3000030EEEE3DB2AECD7DF2A010ED0E3DB2A28
:101E4000CED7040EE15C02E2E16AE552E16EE552B2
:101E5000E7CFD9FF1200D9CFE6FFE1CFD9FF040EBB
:101E6000E126DE6ADD6ADECF10F0DDCF11F0D8901A
:101E7000115004E6040E105C000E115875E2DECF1E
:101E8000E9FFDDCFEAFFA00EE926000EEA22EF1CF3
:101E9000826E020EDB6A030EDB6A020EDBCF10F0ED
:101EA000030EDBCF11F0D890115004E6040E105C45
:101EB000000E11584AE2DECF10F0DDCF11F0D890BD
:101EC00010361136D89010361136020EDB50102421
:101ED000E96E030EDB501120EA6ED890E936EA363F
:101EE000800EE926000EEA22EE6AED6A020EDBCFD2
:101EF000E9FF030EDBCFEAFFA40EE926000EEA227B
:101F0000EF5082141CE1DECF10F0DDCF11F0D8903D
:101F100010361136D89010361136020EDB501024D0
:101F2000E96E030EDB501120EA6ED890E936EA36EE
:101F3000800EE926000EEA22010EEE6EED6A020E18
:101F4000DB2A030EAAE3DB2AA8D78250816EE80EB3
:101F5000E66E030EE66E3BDFE552E552DF2A010E28
:101F600001E281D7DB2A7FD7040EE15C02E2E16A5D
:0C1F7000E552E16EE552E7CFD9FF120008
:041F7C00F28ED08E83
:101F8000F28C1200F19CF292F2881200D8CFE4FF9A
:101F9000E0CFE4FFE46EDACFE4FFE2CFDAFFE9CF8F
:101FA000E4FFEACFE4FFF6CFE4FFF7CFE4FFF5CF9D
:101FB000E4FFF3CFE4FFF4CFE4FFFACFE4FF00EE59
:101FC00000F0100EE80403E3EECFE4FFFBD700EED1
:101FD00010F00A0EE80403E3EECFE4FFFBD7E6526D
:101FE000F2A407D000EC0CF0F29402EC0CF0ACEC94
:101FF0000DF09EA007D0EBEC0CF09E90A5EC0CF041
:10200000BAEC0DF0A1A207D0AAEC0DF0A19264ECFD
:102010000DF0D6EC0DF0F2B2F2929EBA9E9AE55215
:1020200000EE19F00A0EE80403E3E5CFEDFFFBD75D
:1020300000EE0FF0100EE80403E3E5CFEDFFFBD751
:10204000E5CFFAFFE5CFF4FFE5CFF3FFE5CFF5FFEE
:10205000E5CFF7FFE5CFF6FFE5CFEAFFE5CFE9FFF4
:10206000E5CFDAFFE550E5CFE0FFE5CFD8FF100080
:10207000DACFE4FFE2CFDAFFE9CFE4FFEACFE4FF13
:10208000F6CFE4FFF7CFE4FFF5CFE4FFF3CFE4FFB3
:10209000F4CFE4FFFACFE4FF00EE00F0100EE80406
:1020A00003E3EECFE4FFFBD700EE10F00A0EE804E6
:1020B00003E3EECFE4FFFBD7E652F2A407D000EC37
:1020C0000CF0F29402EC0CF0ACEC0DF09EA007D0FA
:1020D000EBEC0CF09E90A5EC0CF0BAEC0DF0A1A28C
:1020E00007D0AAEC0DF0A19264EC0DF0D6EC0DF047
:1020F000F2B2F2929EBA9E9AE55200EE19F00A0EE2
:10210000E80403E3E5CFEDFFFBD700EE0FF0100E80
:10211000E80403E3E5CFEDFFFBD7E5CFFAFFE5CF1A
:10212000F4FFE5CFF3FFE5CFF5FFE5CFF7FFE5CF10
:10213000F6FFE5CFEAFFE5CFE9FFE5CFDAFF1100D3
:1021400050415353574F52442057524F4E4720202F
:10215000004F50454E494E4720444F4F52202020BB
:1021600020004348414E4745205355434345535370
:10217000002000454E544552204E455720505700F0
:10218000323A204F50454E20444F4F5220202020BD
:1021900000323A204F50454E20444F4F52202020CD
:1021A000202000313A204348414E474520505720D7
:1021B0002020202000313A20454E544552205057CF
:1021C0002041444D494E3A20202020002A00313A37
:1021D000454E54455220505720555345523A0032EF
:1021E0003A2041444D494E204D4F444500313A205C
:1021F00055534552204D4F444500505245535320AE
:102200002320544F204E4558540048454C4C4F20F5
:042210002121210067
:0C221400006A0EAE13EF11F00D6C0E1EF0
:10222000E86A0E22001E09AE1BEF11F0086C091EB1
:10223000E86A0922001E71EC12F009BE2BEF11F0C2
:1022400000AE000C086C091EE86A0922046C051E29
:10225000E86A0522000C00BE22EF11F00188FF0C95
:10226000006A0EAE3BEF11F00C6C0D1E0E1EE86AFC
:102270000D220E22001E09AE45EF11F0076C081E5C
:10228000091EE86A08220922001E54EC12F009BE59
:1022900058EF11F000AE000C076C081E091EE86A2A
:1022A00008220922036C041E051E04220522000CCC
:0A22B00000BE4CEF11F00188FF0C96
:0622BA001E0EF66E000E80
:1022C000F76E000EF86E00010900F550D76F090097
:1022D000F550D86F03E1D76701D03DD00900F55024
:1022E000D26F0900F550D36F0900F550D46F090083
:1022F0000900F550E96E0900F550EA6E0900090081
:102300000900F550D56F0900F550D66F0900090096
:10231000F6CFD9F0F7CFDAF0F8CFDBF0D2C0F6FF86
:10232000D3C0F7FFD4C0F8FF0001D55302E1D65364
:1023300007E00900F550EE6ED507F8E2D607F9D7A9
:10234000D9C0F6FFDAC0F7FFDBC0F8FF0001D707FE
:08235000000ED85BBFD712009C
:08235800D9CFE6FFDACFE6FF62
:10236000FA0EE3CFD9FFFB0EE3CFDAFFFC0EE3CF8B
:10237000E9FFFD0EE3CFEAFFE9CFF3FFEACFF4FF79
:10238000E950D95CEA50DA580EE3F80EE35003E165
:10239000F90EE35024E0F80EE30602E2F90EE3063C
:1023A000DECFEEFFF2D7F80EE350D926F90EE35058
:1023B000DA22DD52F80EE350E926F90EE350EA2264
:1023C000ED52F80EE35003E1F90EE35008E0F80E89
:1023D000E30602E2F90EE306DDCFEDFFF2D7FF0ED2
:1023E000E3CFDAFFE552FF0EE3CFD9FFE55212004B
:1023F00006500B02F3CF02F0F4CF03F00C02F350BF
:102400000326000EF420046E06500D02F35004263D
:10241000000EF420056E06500E02F35005260750FC
:102420000B02F3500326F4500422000E052207503D
:102430000C02F3500426F450052207500D02F3500D
:10244000052608500B02F3500426F45005220850CC
:102450000C02F350052609500B02F350052612001A
:10246000056A046A036A026A200EE76ED89006368F
:1024700007360836093602360336043605360B5061
:10248000025C0C5003580D5004580E50055809E3D7
:102490000B50025E0C50035A0D50045A0E50055A50
:0824A000062AE72EE4D7120022
:0824A800056A046A036A180EBC
:1024B000E76ED890073608360936033604360536F7
:1024C0000C50035C0D5004580E50055807E30C5097
:1024D000035E0D50045A0E50055A072AE72EEAD71C
:0224E0001200E8
:0E24E200056A046A100EE76ED89008360936B7
:1024F000043605360D50045C0E50055805E30D50AA
:0E250000045E0E50055A082AE72EF0D712008E
:02250E00800E3D
:10251000F36E00EE00F00F0E01D81200EA6002D058
:0E252000EE6AFCD7F350E9601200EE6AFCD7B9
:02252E001EEE9F
:1025300000F02EEE00F0F86A019C5DEC11F003EC67
:0A25400000F03EEC07F0FBD712009C
:06254A000000000000008B
:10255000000000000000000000000000000000007B
:0A256000000001000100010001006D
:06256A000102040810202C
:10257000408000000000000000000102034104054B
:102580000642070809432A004544010203040207E2
:1025900008090303030304080608050607080102E7
:1025A0000304410207080942030303034304080626
:1025B0000844050607084100000102030401000267
:1025C00007080902000303030303000408060804C4
:1025D000000506070800000102030441010002078C
:1025E000080942020003030303430300040806082A
:1025F0004404000506070841000000000000000038
:10260000000000000000000010101010101010104A
:1026100018181818181818181C1C1C1C1C1C1C1C1A
:102620001E1E1E1E1E1E1E1E1F1F1F1F1F1F1F1FC2
:10263000000000000000000000000000000000009A
:10264000000000000000000000000000000000008A
:10265000000000000000000000000000000000007A
:012660000079
:0F2661000000000000000000000000000000006A
:10267000000000000000000000000000000000005A
:0926800000102040800102040852
:020000040030CA
:0100010002FC
:0100020003FA
:010003001EDE
:010005008179
:010006008178
:010008000FE8
:01000900C036
:01000A000FE6
:01000B00E014
:01000C000FE4
:01000D0040B2
:00000001FF
