:020000040000FA
:0600000065EF14F0120090
:020006001200E6
:0600080007EF12F01200E8
:02000E000000F0
:020010000000EE
:0600180095EF11F012004B
:02001E000500DB
:10002000022A000080000000280000000E000000EE
:10003000D900000004000000A12900009B0100007D
:100040006100000006290000000100009B00000084
:0C005000E6280000A800000020000000CE
:04005C00D9CFE6FF13
:10006000E1CFD9FF040EE126DE6ADD6ADECF10F0B3
:10007000DDCF11F0126A136A11AE02D01268136854
:10008000D950FB0FE96EFF0EDA20EA6EEE50105CDD
:10009000EE501158EE501258EE5013581DE2020E59
:1000A000DB6A030EDB6A020EDBCF10F0030EDBCF40
:1000B00011F0D890115004E6050E105C000E115896
:1000C00006E2020EDB2A030EEEE3DB2AECD7DF2A80
:1000D000010ECCE3DB2ACAD7040EE15C02E2E16A3E
:1000E000E552E16EE552E7CFD9FF1200D9CFE6FF26
:1000F000E1CFD9FF040EE126DE6ADD6ADECF10F023
:10010000DDCF11F0126A136A11AE02D012681368C3
:10011000D950FB0FE96EFF0EDA20EA6EEE50105C4C
:10012000EE501158EE501258EE5013581DE2020EC8
:10013000DB6A030EDB6A020EDBCF10F0030EDBCFAF
:1001400011F0D890115004E6EE0E105C000E11581C
:1001500006E2020EDB2A030EEEE3DB2AECD7DF2AEF
:10016000010ECCE3DB2ACAD7040EE15C02E2E16AAD
:10017000E552E16EE552E7CFD9FF1200D9CFE6FF95
:10018000E1CFD9FF0F0E8116FE0EDB50F00B81126E
:100190008186010EE66EE66AE66AE66AA7DFE55248
:1001A000E552E552E5528196010EE66EE66AE66A90
:1001B000E66A9CDFE552E552E552E5520F0E8116E4
:1001C000FE0EDB38F00B81128186010EE66EE66AC8
:1001D000E66AE66A8BDFE552E552E552E552819622
:1001E000010EE66EE66AE66AE66A80DFE552E552EF
:1001F000E552E552E552E7CFD9FF1200D9CFE6FF2D
:10020000E1CFD9FFE652190EE66EE66AE66AE66AC3
:100210006DDFE552E552E552E5520F0E8116F80EFC
:1002200081160F0E8116300E81128186010EE66E48
:10023000E66AE66AE66A5ADFE552E552E552E552B9
:100240008196010EE66EE66AE66AE66A4FDFE552DF
:10025000E552E552E5520F0E8116300E811281866D
:10026000010EE66EE66AE66AE66A40DFE552E552AE
:10027000E552E5528196010EE66EE66AE66AE66AA6
:1002800035DFE552E552E552E5520F0E8116300E8C
:1002900081128186010EE66EE66AE66AE66A26DF6C
:1002A000E552E552E552E5528196010EE66EE66AA8
:1002B000E66AE66A1BDFE552E552E552E5520F0EAB
:1002C0008116818A8186010EE66EE66AE66AE66A32
:1002D0000DDFE552E552E552E5528196010EE66EDC
:1002E000E66AE66AE66A02DFE552E552E552E55261
:1002F000280EE66E43DFE5520C0EE66E3FDFE55258
:10030000E552E552E7CFD9FF1200D9CFE6FFE1CFA2
:10031000D9FF020EE126DF6A010EDB6A81940F0E1F
:10032000E66EE66AE66AE66A99DEE552E552E5526D
:10033000E5520F0E81128186E66EE66AE66AE66A8B
:100340008DDEE552E552E552E5520F0E8114E76E5F
:10035000010EE7CFDBFF81960F0EE66EE66AE66AD6
:10036000E66A7CDEE552E552E552E5520F0E811257
:100370008186E66EE66AE66AE66A70DEE552E55276
:10038000E552E5520F0E8114DF6E010EDB50DF12D5
:100390008196010EE66EE66AE66AE66A5FDEE5527F
:1003A000E552E552E552DF50106E020EE15C02E2CA
:1003B000E16AE552E16E1050E552E7CFD9FF120035
:1003C000D9CFE6FFE1CFD9FFE652DF6A9EDFDF6ECD
:1003D000DFBEFCD7DF50E552E552E7CFD9FF120070
:1003E000D9CFE6FFE1CFD9FF0F0E8116FE0EDB500D
:1003F00081128186050EE66EE66AE66AE66A2EDE00
:10040000E552E552E552E5528196050EE66EE66A42
:10041000E66AE66A23DEE552E552E552E552E55228
:10042000E7CFD9FF1200D9CFE6FFE1CFD9FF819402
:10043000050EE66EE66AE66AE66A10DEE552E55209
:10044000E552E552FE0EDBCFE6FFCADFE552FE0EB7
:10045000DB38F00BE66EC4DFE552E552E7CFD9FF9B
:100460001200D9CFE6FFE1CFD9FF8184050EE66EF9
:10047000E66AE66AE66AF2DDE552E552E552E552E1
:10048000FE0EDBCFE6FFACDFE552FE0EDB38F00BF5
:10049000E66EA6DFE5528194E552E7CFD9FF120060
:1004A000D9CFE6FFE1CFD9FFFE0EDBCFE6FFD9DFE4
:1004B000E552E552E7CFD9FF1200D9CFE6FFE1CFF1
:1004C000D9FFFE0EDBCFE6FFCCDFE552E552E7CFEA
:1004D000D9FF1200D9CFE6FFE1CFD9FFFD0EDBCF68
:1004E000F6FFFE0EDBCFF7FF0800F5500FE0FD0E24
:1004F000DBCFF6FFDB2AFE0EDBCFF7FF01E3DB2AC3
:100500000800F550E66ED9DFE552E8D7E552E7CFAF
:10051000D9FF1200D9CFE6FFE1CFD9FFE652FD0E99
:10052000DB500F0B106EFE0EDB50010B400DF35035
:100530001024DF6E7F0EDF14800FDF6EDFCFE6FF4B
:1005400072DFE552E552E552E7CFD9FF1200010E06
:10055000E66E69DFE552E66AE66ADCDFE552E552FF
:100560001200D9CFE6FFE1CFD9FF050EE126010E3B
:10057000F36EDB6E020EDB6A030EDB6A040EDB6ACF
:10058000DF6ADFCF10F0116A10BE1168FB0EDBCFFF
:1005900012F0FC0EDBCF13F011501318E8AE02D0AE
:1005A000133404D01250105C135011582DE2FD0E7C
:1005B000DBCF10F0FE0EDBCF11F0126A136A11AE22
:1005C00002D012681368D950010FE96EDACFEAFF42
:1005D00010C00BF011C00CF012C00DF013C00EF0E3
:1005E000EECF06F0EECF07F0EECF08F0EFCF09F038
:1005F000C6EC13F005C0EDFF04C0EDFF03C0EDFF36
:1006000002C0EFFFDF2ABDD7010EDBCF10F0020ED4
:10061000DBCF11F0030EDBCF12F0040EDBCF13F0B3
:1006200010C006F011C007F012C008F013C009F0A6
:10063000050EE15C02E2E16AE552E16EE552E7CFC8
:10064000D9FF1200D9CFE6FFE1CFD9FF020EE12694
:10065000DF6AFB0EDBCF10F0FC0EDBCF11F0FD0EDE
:10066000DBCF12F0FE0EDBCF13F010501110121082
:10067000131005E1300EE66E20DFE552F4D0D950BC
:10068000FB0FE96EFF0EDA20EA6ED890030EEB50F6
:10069000000A08E6000EEE5C000EEE58000EEE5862
:1006A000000EEE5815E22D0EE66E07DFE552D9502A
:1006B000FB0FE96EFF0EDA20EA6E000EEE6CEF1E05
:1006C000EE22EF1EEE22EF1EEF22ED52ED52ED5222
:1006D000DE52070EDD6E010EDBCF10F0000EE76E6E
:1006E0001018E8AE02D0103403D0E750D880105470
:1006F00001E3B9D0010EDB04146E156A14BE15684F
:1007000014C0E6FF15C0E6FF0A0EE66EE66A29DFB2
:10071000E552E552E552E55206C010F007C011F06F
:1007200008C012F009C013F006C00BF007C00CF0AF
:1007300008C00DF009C00EF0FB0EDBCF06F0FC0E7A
:10074000DBCF07F0FD0EDBCF08F0FE0EDBCF09F0AC
:10075000FEEC13F0065007100810091041E0010EDE
:10076000DF6EDB04186E196A18BE196818C0E6FF40
:1007700019C0E6FF0A0EE66EE66AF3DEE552E552C0
:10078000E552E55206C014F007C015F008C016F097
:1007900009C017F006C00BF007C00CF008C00DF040
:1007A00009C00EF0FB0EDBCF06F0FC0EDBCF07F02E
:1007B000FD0EDBCF08F0FE0EDBCF09F0FEEC13F0F0
:1007C00006C010F007C011F008C012F009C013F005
:1007D000300E1026000E112212221322105003D0C8
:1007E000DF5004E0300EE66E68DEE552010EDB04F9
:1007F000146E156A14BE156814C0E6FF15C0E6FF36
:100800000A0EE66EE66AADDEE552E552E552E552C5
:1008100006C010F007C011F008C012F009C013F0B4
:10082000D950FB0FE96EFF0EDA20EA6E06C00BF01E
:1008300007C00CF008C00DF009C00EF0EECF06F0B6
:10084000EECF07F0EECF08F0EFCF09F0FEEC13F09B
:1008500005C0EDFF04C0EDFF03C0EDFF02C0EFFFD8
:10086000010EDB0638D7020EE15C02E2E16AE552D6
:10087000E16EE552E7CFD9FF1200D9CFE6FFE1CF15
:10088000D9FFFD0EDBCFE6FFFE0EDBCFE6FF42DE3B
:10089000E552E552D950F90FE96EFF0EDA20EA6E03
:1008A000EECFE6FFEECFE6FFEECFE6FFEFCFE6FFBF
:1008B000C9DEE552E552E552E552E552E7CFD9FFF0
:1008C0001200D9CFE6FFE1CFD9FFFD0EDBCFE6FF67
:1008D000FE0EDBCFE6FF1EDEE552E552FB0EDBCF60
:1008E000E6FFFC0EDBCFE6FFF5DDE552E552E55213
:1008F000E7CFD9FF1200D9CFE6FFE1CFD9FFFCC186
:1009000010F0FDC111F0040ED89010361136E80633
:10091000FBE1DC0E1026010E112210500101FE2514
:10092000E96E1150FF21EA6EFE0EDBCFEFFFFE2BCA
:10093000000EFF23E552E7CFD9FF1200D9CFE6FF23
:10094000E1CFD9FFE652DF6ADFCF10F0100EE76E7D
:100950001018E8AE02D0E73402D0E750105C18E27D
:10096000DFCFE9FFEA6AE9BEEA68DC0EE926010E9C
:10097000EA22200EEF6EDFCFE9FFEA6AE9BEEA68FD
:10098000EC0EE926010EEA22200EEF6EDF2ADCD7FC
:10099000E552E552E7CFD9FF1200D9CFE6FFE1CF0C
:1009A000D9FFE6520101DB51030A52E0010A36E0A9
:1009B000030A1AE0010A67E1E66AE66AABDDE5527E
:1009C000E552DF6A080EDF5C0CE2DF50EA6ADC0FFA
:1009D000E96E010EEA22EF50E66E6FDDE552DF2A86
:1009E000F1D70101010E32D0080EE66EE66A92DD03
:1009F000E552E552DF6A080EDF5C0DE2080EDF24E7
:100A0000EA6ADC0FE96E010EEA22EF50E66E55DD70
:100A1000E552DF2AF0D70101020E18D0E66A010E76
:100A2000E66E78DDE552E552DF6A080EDF5C0CE227
:100A3000DF50EA6AEC0FE96E010EEA22EF50E66E33
:100A40003CDDE552DF2AF1D70101030EDB6F1CD03C
:100A5000080EE66E010EE66E5DDDE552E552DF6AD8
:100A6000080EDF5C0DE2080EDF24EA6AEC0FE96E87
:100A7000010EEA22EF50E66E20DDE552DF2AF0D7C4
:100A80000101DB6B01D0DB6BE552E552E7CFD9FF0B
:100A90001200D9CFE6FFE1CFD9FFE6520101DB51C9
:100AA000010A1BE0010A32E1E66AE66A33DDE5523B
:100AB000E552DF6A100EDF5C0CE2DF50EA6ADC0F01
:100AC000E96E010EEA22EF50E66EF7DCE552DF2A0E
:100AD000F1D70101010EDB6F1AD0E66A010EE66E56
:100AE00019DDE552E552DF6A100EDF5C0CE2DF50E3
:100AF000EA6AEC0FE96E010EEA22EF50E66EDDDCE9
:100B0000E552DF2AF1D70101DB6B01D0DB6BE55247
:100B1000E552E7CFD9FF1200D9CFE6FFE1CFD9FFE9
:100B2000E652E66AE66AF6DCE552E552DF6A100E46
:100B3000DF5C0CE2DF50EA6ADC0FE96E010EEA22AC
:100B4000EF50E66EBADCE552DF2AF1D7E66A010E15
:100B5000E66EE0DCE552E552DF6A100EDF5C0CE287
:100B6000DF50EA6AEC0FE96E010EEA22EF50E66E02
:100B7000A4DCE552DF2AF1D7E552E552E7CFD9FFF1
:100B80001200D9CFE6FFE1CFD9FFFE0EDB50010BFB
:100B90000101FC6FFD6BFD0EDB500F0BFE6FFF6B59
:100BA000FCC110F0FDC111F0040ED89010361136C2
:100BB000E806FBE1DC0E1026010E112210500101A7
:100BC000FE25E96E1150FF21EA6EFC0EDBCFEFFF30
:100BD000E552E7CFD9FF1200D9CFE6FFE1CFD9FF29
:100BE000020EE126DF6AFE0EDB50010B0101FC6FF5
:100BF000FD6BFD0EDB500F0BFE6FFF6BF90EDBCFB5
:100C000010F0FA0EDBCF11F0FB0EDBCF12F0FC0E72
:100C1000DBCF13F0105011101210131005E1300E3D
:100C2000E66E69DEE552F5D0D950F90FE96EFF0E98
:100C3000DA20EA6ED890030EEB50000A08E6000EA8
:100C4000EE5C000EEE58000EEE58000EEE5815E267
:100C50002D0EE66E50DEE552D950F90FE96EFF0E0B
:100C6000DA20EA6E000EEE6CEF1EEE22EF1EEE2290
:100C7000EF1EEF22ED52ED52ED52DE52070EDD6E09
:100C8000010EDBCF10F0000EE76E1018E8AE02D0B8
:100C9000103403D0E750D880105401E3BAD0010ECD
:100CA000DB04146E156A14BE156814C0E6FF15C087
:100CB000E6FF0A0EE66EE66A54DCE552E552E552BE
:100CC000E55206C010F007C011F008C012F009C0CC
:100CD00013F006C00BF007C00CF008C00DF009C0FF
:100CE0000EF0F90EDBCF06F0FA0EDBCF07F0FB0EAD
:100CF000DBCF08F0FC0EDBCF09F0FEEC13F0065062
:100D000007100810091041E0010EDF6EDB04186EB9
:100D1000196A18BE196818C0E6FF19C0E6FF0A0E66
:100D2000E66EE66A1EDCE552E552E552E55206C083
:100D300014F007C015F008C016F009C017F006C07F
:100D40000BF007C00CF008C00DF009C00EF0F90E52
:100D5000DBCF06F0FA0EDBCF07F0FB0EDBCF08F09F
:100D6000FC0EDBCF09F0FEEC13F006C010F007C05C
:100D700011F008C012F009C013F0300E1026000E5A
:100D8000112212221322105003D0DF5004E0300E43
:100D9000E66EB1DDE552010EDB04146E156A14BE79
:100DA000156814C0E6FF15C0E6FF0A0EE66EE66A97
:100DB000B1EC02F0E552E552E552E55206C010F002
:100DC00007C011F008C012F009C013F0D950F90F94
:100DD000E96EFF0EDA20EA6E06C00BF007C00CF0D9
:100DE00008C00DF009C00EF0EECF06F0EECF07F010
:100DF000EECF08F0EFCF09F0FEEC13F005C0EDFFE9
:100E000004C0EDFF03C0EDFF02C0EFFF010EDB06E3
:100E100037D7020EE15C02E2E16AE552E16EE5528B
:100E2000E7CFD9FF1200D9CFE6FFE1CFD9FFFE0E01
:100E3000DB50010B0101FC6FFD6BFD0EDB500F0B56
:100E4000FE6FFF6BFB0EDBCFF6FFFC0EDBCFF7FF79
:100E50000800F5500FE0FB0EDBCFF6FFDB2AFC0E9F
:100E6000DBCFF7FF01E3DB2A0800F550E66E43DD38
:0C0E7000E552E8D7E552E7CFD9FF1200A9
:040E7C00D9CFE6FFE5
:100E8000E1CFD9FF020EE126DE6ADD6A4ED800010D
:100E9000B351FDE0B36B07EC10F099D9CDEC04F041
:100EA000F6D7D9CFE6FFE1CFD9FF040EE126DE6AFF
:100EB000DD6ADECF10F0DDCF11F0FD0EDBCF12F0DA
:100EC000FE0EDBCF13F011501318E8AE02D013342E
:100ED00004D01250105C135011581DE2020EDB6A50
:100EE000030EDB6A020EDBCF10F0030EDBCF11F036
:100EF000D890115004E6EE0E105C000E115806E278
:100F0000020EDB2A030EEEE3DB2AECD7DF2A010E0A
:100F1000D0E3DB2ACED7040EE15C02E2E16AE552BF
:100F2000E16EE552E7CFD9FF1200936A956AFEECB5
:100F300000F09EEC04F08DEC11F0E80EE66E030E6E
:100F4000E66EAFDFE552E552570EE66E120EE66E24
:100F500075EC0DF0E552E552AE0EE66E240EE66E2F
:100F600017EC0EF0E552E552660EE66EB70EE66E31
:100F7000D8EC0EF0E552E552020EE66EE66AB3ECEE
:100F80000FF0E552E5520A0EE66EE66AC5EC0FF088
:100F9000E552E552320EE66EE66AE4EC0FF0E552F9
:100FA000E55203EF10F0D9CFE6FFE1CFD9FFFE0EF7
:100FB000DBCF11F0800E11141AE1FD0EDBCF12F021
:100FC000FE0EDBCF13F0133404E212500708000EBC
:100FD00013540DE3FD0EDBCFE9FFFE0EDBCFEAFF7E
:100FE000000EE926010EEA22EF508310836EE552CF
:100FF000E7CFD9FF1200D9CFE6FFE1CFD9FFFE0E30
:10100000DBCF11F0800E11141AE1FD0EDBCF12F0D0
:10101000FE0EDBCF13F0133404E212500708000E6B
:1010200013540DE3FD0EDBCFE9FFFE0EDBCFEAFF2D
:10103000000EE926010EEA22EF1C8314836EE552AE
:10104000E7CFD9FF1200D9CFE6FFE1CFD9FFFD0EE0
:10105000DBCFE9FFFE0EDBCFEAFF080EE926010E2B
:10106000EA22EF0415E1FD0EDBCFE6FFFE0EDBCF3B
:10107000E6FFC1DFE552E552FD0EDBCFE9FFFE0ED4
:10108000DBCFEAFF080EE926010EEA22EF6A15D04F
:10109000FD0EDBCFE6FFFE0EDBCFE6FF84DFE55281
:1010A000E552FD0EDBCFE9FFFE0EDBCFEAFF080EB7
:1010B000E926010EEA22010EEF6EE552E7CFD9FFD5
:1010C0001200D9CFE6FFE1CFD9FF020EE126DE6A9A
:1010D000DD6ADECF10F0DDCF11F0113404E21050E4
:1010E0000708000E115421E3DECFE6FFDDCFE6FF57
:1010F0005ADFE552E552F40EE66E010EE66ED1DEE1
:10110000E552E552DECFE6FFDDCFE6FF74DFE552C4
:10111000E552F40EE66E010EE66EC3DEE552E552D0
:10112000DF2A010ED6E3DB2AD4D7020EE15C02E20D
:10113000E16AE552E16EE552E7CFD9FF1200D9CF5F
:10114000E6FFE1CFD9FF020EE126DE6ADD6ADE6A44
:10115000DD6ADECF10F0DDCF11F001019651105C99
:101160009751115828E2DECFE9FFDDCFEAFF030EE9
:10117000D890E936EA36E806FBE13E0EE926010E94
:10118000EA22EECF10F0EFCF11F0FD0EDB50101879
:101190000DE1FE0EDB50111809E1DECF10F0DDCFBE
:1011A00011F010C0F3FF11C0F4FF07D0DF2A010EC9
:1011B000D0E3DB2ACED7F368F468020EE15C02E2EA
:1011C000E16AE552E16EE552E7CFD9FF1200010175
:1011D0009051040A01E171D3070A01E15BD3140ABB
:1011E00001E17ED3010A01E17BD3050A01E116D3B7
:1011F000180A01E1ACD21E0A01E179D2010A01E12B
:1012000048D2130A01E118D20D0A01E1ADD10C0A4E
:1012100001E17BD1040A01E141D1030A01E1BAD025
:10122000130A01E1A4D0030A01E18AD0010A28E0EF
:10123000100A01E01200A00EE66E250EE66EE66AC8
:10124000E66A13EC07F0E552E552E552E5529F0ECF
:10125000E66E250EE66EE66A010EE66E13EC07F00A
:10126000E552E552E552E552D2DBBADB000901E175
:1012700037D30101916B936B8E6B8F6B100E72D015
:10128000932B940EE66E250EE66EE66AE66A13EC84
:1012900007F0E552E552E552E55261DB000932E024
:1012A000440E0001D85D14E101019251000828E2CA
:1012B0000A0E0D6E0E6A8EC108F08FC109F03FEC68
:1012C00014F008C08EF109C08FF10101920718D007
:1012D0000A0ED85D15E28EC110F08FC111F00A0E12
:1012E0001102F3CF11F01002F3CF10F0F4501126D9
:1012F000D8510101F3248E6F000E11208F6F922BB5
:101300000101936B030E0101925D03E269DB0009A9
:1013100004E06EDB0101110E906F5ADB000902E060
:101320000101906B01019351106E116AD890115018
:1013300004E6580E105C020E115801E2D1D2ACD076
:10134000936B8EC1E6FF8FC1E6FFF9DEE552E552F1
:10135000F3CF94F1F4CF95F10101F31C01E1951D58
:1013600004E0010E906F9EEF04F0120EC8D0932B94
:101370008A0EE66E250EE66EE66AE66A13EC07F064
:10138000E552E552E552E5523C0E0101935D01E262
:10139000A7D282D0810EE66E250EE66EE66AE66A78
:1013A00013EC07F0E552E552E552E55294C1E9FF2E
:1013B00095C1EAFF030ED890E936EA36E806FBE16C
:1013C0003E0EE926010EEA22EECF10F0EFCF11F02B
:1013D000126A136A10C0E6FF11C0E6FF12C0E6FFF2
:1013E00013C0E6FF0D0EE66EE66AECEC05F0146E37
:1013F000060EE15E14500101932BB1DA000935E0CD
:10140000440E0001D85D14E10101915100082BE266
:1014100091077F0EE66E250EE66E91C1E6FF010E86
:10142000E66E13EC07F0E552E552E552E5521BD0AB
:101430000A0ED85D18E27D0EE66E250EE66E91C1AD
:10144000E6FF010EE66E13EC07F0E552E552E552B9
:10145000E55201019151EA6AD20FE96E000EEA22CB
:10146000D8C0EFFF912B0101936B060E0101915D36
:1014700002E3020E906F9351106E116AD8901150D2
:1014800004E6580E105C020E115801E3906BA0DACE
:10149000000901E125D20101906B1200936B21DA62
:1014A00000092FE094C1E9FF95C1EAFF030ED8902F
:1014B000E936EA36E806FBE13E0EE926010EEA22AD
:1014C000020EE926000EEA22EF5003E10101060EAA
:1014D00016D094C1E9FF95C1EAFF030ED890E93612
:1014E000EA36E806FBE13E0EE926010EEA22020E8C
:1014F000E926000EEA22EF0407E10101070E906FD2
:1015000012000101040E906F1200932B710EE66E13
:10151000250EE66EE66AE66A13EC07F0E552E55240
:10152000E552E552650EE66E250EE66EE66A010EA0
:10153000E66E13EC07F0E552E552E552E55248DA63
:10154000000902E00101906B33DA000904E00101B7
:10155000030E906F4DDA34DA000901E1C1D10101C7
:101560000A0E906FF8EF0CF0932B560EE66E250ED8
:10157000E66EE66AE66A13EC07F0E552E552E552DC
:10158000E552EDD9000939E0440E0001D85D14E1BF
:101590000101915100082FE291077F0EE66E250EA2
:1015A000E66E91C1E6FF010EE66E13EC07F0E55220
:1015B000E552E552E5521FD00A0ED85D1CE2060E38
:1015C0000101915D18E27D0EE66E250EE66E91C179
:1015D000E6FF010EE66E13EC07F0E552E552E55228
:1015E000E55201019151EA6AD20FE96E000EEA223A
:1015F000D8C0EFFF912B0101936BF2D9000907E0EE
:10160000060E0101915D03E3130E906FF1D9E0D94D
:10161000000904E00101060E906FEAD9010193511F
:10162000106E116A113407E210505808020E11545E
:1016300001E356D1906B1200932B710EE66E250ECE
:10164000E66EE66AE66A13EC07F0E552E552E5520B
:10165000E5524C0EE66E250EE66EE66A010EE66E6B
:1016600013EC07F0E552E552E552E552B1D9000915
:1016700002E00101906B9CD9000904E00101030E16
:10168000906FB6D99DD9000901E12AD10101140E4C
:101690005BD0932B400EE66E250EE66EE66AE66A98
:1016A00013EC07F0E552E552E552E552330EE66ED3
:1016B000250EE66EE66A010EE66E13EC07F0E552C3
:1016C000E552E552E55284D9000903E00101070E15
:1016D000906F6ED9000904E001010B0E906F88D95C
:1016E0006FD9000901E1FCD00101150E2DD0932B1B
:1016F000290EE66E250EE66EE66AE66A13EC07F042
:10170000E552E552E552E5521C0EE66E250EE66EF8
:10171000E66A010EE66E13EC07F0E552E552E5527B
:10172000E55256D9000903E00101070E906F40D938
:10173000000904E00101160E906F5AD941D9000941
:1017400001E1CED00101170E906FF8EF0CF0932B52
:101750000F0EE66E250EE66EE66AE66A13EC07F0FB
:10176000E552E552E552E552FAD8000939E0440E57
:101770000001D85D14E10101915100082FE29107A9
:101780007F0EE66E250EE66E91C1E6FF010EE66E57
:1017900013EC07F0E552E552E552E5521FD00A0E70
:1017A000D85D1CE2060E0101915D18E27D0EE66E29
:1017B000250EE66E91C1E6FF010EE66E13EC07F012
:1017C000E552E552E552E55201019151EA6AD20F24
:1017D000E96E000EEA22D8C0EFFF912B0101936B56
:1017E000FFD8000907E0060E0101915D03E3130E27
:1017F000906FFED8EDD8000904E00101070E906F4C
:10180000F7D801019351106E116A113406E210509D
:101810005808020E115464E2906B1200932B000ED4
:10182000E66E250EE66EE66AE66A13EC07F0E55210
:10183000E552E552E5520101930527E1060EE66EF9
:10184000E66AD20EE66E000EE66E94C1E9FF95C11F
:10185000EAFF030ED890E936EA36E806FBE13E0ED1
:10186000E926010EEA22020EE926000EEA22E9CF5D
:1018700010F0EACF11F0E9CFE6FFEACFE6FF7AEC0D
:1018800013F0126E060EE15E12500101935128080A
:1018900027E224D0932BEF0EE66E240EE66EE66A66
:1018A000E66A13EC07F0E552E552E552E552A7D897
:1018B000640E0101935D14E311D0932BDE0EE66EEE
:1018C000240EE66EE66AE66A13EC07F0E552E5528E
:1018D000E552E552280E0101935D02E3906B120080
:1018E0001200D9CFE6FFE1CFD9FF020EE126DF6A71
:1018F000060EDF5C27E294C1E9FF95C1EAFF030E03
:10190000D890E936EA36E806FBE13E0EE926010EFC
:10191000EA22020EE926000EEA22DF50E924E96EEF
:10192000000EEA20EA6EEFCF10F0DF50EA6AD20F25
:10193000E96E000EEA22EF50105C02E0000E03D0C8
:10194000DF2AD6D7010E106E020EE15C02E2E16AD8
:10195000E552E16E1050E552E7CFD9FF1200D9CF22
:10196000E6FFE1CFD9FFE652DF6ADF500F081AE346
:10197000EA6ADF34FE0BEA36E96E800EE926000ED5
:10198000EA22010EEE180CE1ED500AE1DF50EA6A9E
:10199000100FE96E010EEA22EFCFD8F0010E03D04E
:1019A000DF2AE3D7000EE552E552E7CFD9FF120058
:1019B0000001010E801903E1815101E1010C000CCD
:1019C0000001010E821903E1835101E1010C000CB9
:1019D0000001010E981903E1995101E1010C000C7D
:1019E0000001010E9C1903E19D5101E1010C000C65
:1019F0009EEC04F00101936B916B926B1200000E50
:101A0000E66EE66AD3EC07F0E552E5521200000EEE
:101A1000E66EE66AFBEC07F0E552E5521200D9CF1C
:101A2000E6FFE1CFD9FF020EE126DE6ADD6ADE6A5B
:101A3000DD6ADECF10F0DDCF11F0D890115004E652
:101A4000100E105C000E115846E2DECFE9FFDDCF2C
:101A5000EAFFD890E936EA36800EE926000EEA223F
:101A6000000ED880EE54000EED5423E2DECFE9FFE5
:101A7000DDCFEAFFD890E936EA36800EE926000E7F
:101A8000EA22EECF10F0EFCF11F0126A136A10C005
:101A9000E6FF11C0E6FF12C0E6FF13C0E6FFDFCF8E
:101AA000E6FFE66AECEC05F0146E060EE15E1450FB
:101AB0000DD0E66AE66AE66AE66ADFCFE6FFE66A26
:101AC000ECEC05F0106E060EE15E1050DF2A010E00
:101AD000B0E3DB2AAED7020EE15C02E2E16AE55236
:0A1AE000E16EE552E7CFD9FF1200D6
:061AEA00D9CFE6FFE1CFB9
:101AF000D9FFD59EFD0EDBCFA8F0FE0EDBCFA9F0FF
:101B0000D59C13681468156AA8C016F0A9C017F010
:101B1000186A1650135C106E17501458116E185036
:101B20001558126E0C6A010E0D6E0E6A10C007F089
:101B300011C008F012C009F0FEEC12F00350D66E8E
:101B400013681468156AA8C016F0A9C017F0186ABF
:101B50001650135C106E17501458116E185015580B
:101B6000126E0C6A010E0D6E0E6A10C007F011C0E5
:101B700008F012C009F0FEEC12F007C010F008C027
:101B800011F009C012F00750D76ED59AD586F28AA7
:101B9000F294F184D58EE552E7CFD9FF1200D59E9D
:101BA000120013681468156AA8C016F0A9C017F0CF
:101BB000186A1650135C106E17501458116E185096
:101BC0001558126E0C6A010E0D6E0E6A10C007F0E9
:101BD00011C008F012C009F0FEEC12F00350D66EEE
:101BE00013681468156AA8C016F0A9C017F0186A1F
:101BF0001650135C106E17501458116E185015586B
:101C0000126E0C6A010E0D6E0E6A10C007F011C044
:101C100008F012C009F0FEEC12F007C010F008C086
:101C200011F009C012F00750D76ED58E1200D9CF2F
:101C3000E6FFE1CFD9FFCD90FD0EDBCFAAF0FE0E7F
:101C4000DBCFABF013681468156AAAC016F0ABC0FE
:101C500017F0186A1650135C106E17501458116E56
:101C600018501558126E0C6A010E0D6E0E6A10C0D7
:101C700007F011C008F012C009F0FEEC12F0075096
:101C8000CF6E13681468156AAAC016F0ABC017F0BF
:101C9000186A1650135C106E17501458116E1850B5
:101CA0001558126E0C6A010E0D6E0E6A10C007F008
:101CB00011C008F012C009F0FEEC12F003C010F0E1
:101CC00004C011F005C012F00350CE6E9D809E90AE
:101CD0009F90CD8ECD8CCD98CD9ACD96CD92CD8046
:101CE000E552E7CFD9FF120013681468156AAAC03D
:101CF00016F0ABC017F0186A1650135C106E175030
:101D00001458116E18501558126E0C6A010E0D6E93
:101D10000E6A10C007F011C008F012C009F0FEEC06
:101D200012F00750CF6E13681468156AAAC016F037
:101D3000ABC017F0186A1650135C106E1750145889
:101D4000116E18501558126E0C6A010E0D6E0E6A47
:101D500010C007F011C008F012C009F0FEEC12F03C
:101D600003C010F004C011F005C012F00350CE6E95
:101D7000CD801200CD901200D9CFE6FFE1CFD9FF80
:101D8000CA94CC6AFE0EDB500001AC6FAD6BCB6E1B
:101D90009D829E929F92CA90CA92CA84E552E7CFD2
:101DA000D9FF1200ACC0CBFFCA841200CA94120043
:101DB000D9CFE6FFE1CFD9FFB190FD0EDBCFAEF07A
:101DC000FE0EDBCFAFF013681468156AAEC016F0D4
:101DD000AFC017F0186A1650135C106E17501458E5
:101DE000116E18501558126E0C6A010E0D6E0E6AA7
:101DF00010C007F011C008F012C009F0FEEC12F09C
:101E00000750B36E13681468156AAEC016F0AFC001
:101E100017F0186A1650135C106E17501458116E94
:101E200018501558126E0C6A010E0D6E0E6A10C015
:101E300007F011C008F012C009F0FEEC12F003C068
:101E400010F004C011F005C012F00350B26EA08271
:101E5000A192A292B18EB198B19AB192B180E5529D
:101E6000E7CFD9FF120013681468156AAEC016F0E8
:101E7000AFC017F0186A1650135C106E1750145844
:101E8000116E18501558126E0C6A010E0D6E0E6A06
:101E900010C007F011C008F012C009F0FEEC12F0FB
:101EA0000350B26E13681468156AAEC016F0AFC066
:101EB00017F0186A1650135C106E17501458116EF4
:101EC00018501558126E0C6A010E0D6E0E6A10C075
:101ED00007F011C008F012C009F0FEEC12F007C0C4
:101EE00010F008C011F009C012F00750B36EB180B5
:101EF0001200B19012000001B82B000EB923C0519E
:101F0000B85DC151B95904E3B86BB96B010EB06F3C
:101F100012000001BA2B000EBB23C251BA5DC3519F
:101F2000BB5904E3BA6BBB6B010EB16F1200000129
:101F3000BC2B000EBD23C451BC5DC551BD5904E38B
:101F4000BC6BBD6B010EB26F12000001BE2B000E08
:101F5000BF23C651BE5DC751BF5904E3BE6BBF6B03
:101F6000010EB36F1200D9CFE6FFE1CFD9FFFD0E0E
:101F7000DBCFC0F0FE0EDBCFC1F00001B86BB96B58
:101F8000B06BE552E7CFD9FF1200D9CFE6FFE1CF22
:101F9000D9FFFD0EDBCFC2F0FE0EDBCFC3F0050E86
:101FA0000D6E0E6AC2C008F0C3C009F0D8EC12F082
:101FB00008C0C2F009C0C3F00001BA6BBB6BB16BC3
:101FC000E552E7CFD9FF1200D9CFE6FFE1CFD9FF25
:101FD000FD0EDBCFC6F0FE0EDBCFC7F00A0E0D6E96
:101FE0000E6AC6C008F0C7C009F0D8EC12F008C0ED
:101FF000C6F009C0C7F00001BE6BBF6BB36BE55202
:06200000E7CFD9FF12003A
:0A2006000F0E946E82681200D9CF0D
:10201000E6FFE1CFD9FF040EE126DE6ADD6ADECFFE
:1020200010F0DDCF11F0D890115004E6040E105CD2
:10203000000E115801E390D0DECFE9FFDDCFEAFFBB
:10204000A00EE926000EEA22EF1C826E020EDB6A69
:10205000030EDB6A020EDBCF10F0030EDBCF11F0B4
:10206000D890115004E6040E105C000E11586EE278
:10207000020EDBCFE9FF030EDBCFEAFFA40EE92659
:10208000000EEA22EF5082143FE1DECF14F0DDCFE4
:1020900015F0D89014361536D89014361536020E31
:1020A000DB501424E96E030EDB501520EA6ED89045
:1020B000E936EA36800EE926000EEA22EECF12F06B
:1020C000EFCF13F0010E1226000E1322DECF10F018
:1020D000DDCF11F0D89010361136D8901036113669
:1020E000020EDB501024E96E030EDB501120EA6E65
:1020F000D890E936EA36800EE926000EEA2212C0B0
:10210000EEFF13C0EDFF1BD0DECF10F0DDCF11F0DE
:10211000D89010361136D89010361136020EDB509A
:102120001024E96E030EDB501120EA6ED890E936D8
:10213000EA36800EE926000EEA22EE6AED6A020E09
:10214000DB2A030E01E286D7DB2A84D7DF2A010EC1
:1021500001E265D7DB2A63D7040EE15C02E2E16AA3
:10216000E552E16EE552E7CFD9FF1200D9CFE6FF85
:10217000E1CFD9FF040EE126DE6ADD6ADECF10F082
:10218000DDCF11F0FD0EDBCF12F0FE0EDBCF13F032
:1021900011501318E8AE02D0133404D01250105C62
:1021A000135011581DE2020EDB6A030EDB6A020EA9
:1021B000DBCF10F0030EDBCF11F0D890115004E606
:1021C000EE0E105C000E115806E2020EDB2A030E22
:1021D000EEE3DB2AECD7DF2A010ED0E3DB2ACED7F1
:1021E000040EE15C02E2E16AE552E16EE552E7CFFE
:1021F000D9FF1200D9CFE6FFE1CFD9FF040EE126C7
:10220000DE6ADD6ADECF10F0DDCF11F0D89011501C
:1022100004E6040E105C000E115875E2DECFE9FFF3
:10222000DDCFEAFFA00EE926000EEA22EF1C826E47
:10223000020EDB6A030EDB6A020EDBCF10F0030E28
:10224000DBCF11F0D890115004E6040E105C000EA4
:1022500011584AE2DECF10F0DDCF11F0D8901036E1
:102260001136D89010361136020EDB501024E96E6C
:10227000030EDB501120EA6ED890E936EA36800E64
:10228000E926000EEA22EE6AED6A020EDBCFE9FFD4
:10229000030EDBCFEAFFA40EE926000EEA22EF5080
:1022A00082141CE1DECF10F0DDCF11F0D890103693
:1022B0001136D89010361136020EDB501024E96E1C
:1022C000030EDB501120EA6ED890E936EA36800E14
:1022D000E926000EEA22010EEE6EED6A020EDB2AFE
:1022E000030EAAE3DB2AA8D78250816EE80EE66EC1
:1022F000030EE66E3BDFE552E552DF2A010E01E2F6
:1023000081D7DB2A7FD7040EE15C02E2E16AE55265
:0A231000E16EE552E7CFD9FF12009D
:06231A00F28ED08EF28C61
:102320001200F19CF292F2881200D8CFE4FFE0CFC5
:10233000E4FFE46EDACFE4FFE2CFDAFFE9CFE4FFB7
:10234000EACFE4FFF6CFE4FFF7CFE4FFF5CFE4FFF9
:10235000F3CFE4FFF4CFE4FFFACFE4FF00EE00F0A8
:10236000100EE80403E3EECFE4FFFBD700EE10F01D
:102370000A0EE80403E3EECFE4FFFBD7E652F2A433
:1023800007D0CFEC0DF0F294D1EC0DF07BEC0FF018
:102390009EA007D0BAEC0EF09E9074EC0EF089EC83
:1023A0000FF0A1A207D079EC0FF0A19233EC0FF05F
:1023B000A5EC0FF0F2B2F2929EBA9E9AE55200EEB0
:1023C00019F00A0EE80403E3E5CFEDFFFBD700EEBA
:1023D0000FF0100EE80403E3E5CFEDFFFBD7E5CFE8
:1023E000FAFFE5CFF4FFE5CFF3FFE5CFF5FFE5CF4B
:1023F000F7FFE5CFF6FFE5CFEAFFE5CFE9FFE5CF51
:10240000DAFFE550E5CFE0FFE5CFD8FF1000DACFE7
:10241000E4FFE2CFDAFFE9CFE4FFEACFE4FFF6CF53
:10242000E4FFF7CFE4FFF5CFE4FFF3CFE4FFF4CF11
:10243000E4FFFACFE4FF00EE00F0100EE80403E33F
:10244000EECFE4FFFBD700EE10F00A0EE80403E342
:10245000EECFE4FFFBD7E652F2A407D0CFEC0DF0AD
:10246000F294D1EC0DF07BEC0FF09EA007D0BAEC0B
:102470000EF09E9074EC0EF089EC0FF0A1A207D044
:1024800079EC0FF0A19233EC0FF0A5EC0FF0F2B263
:10249000F2929EBA9E9AE55200EE19F00A0EE804F6
:1024A00003E3E5CFEDFFFBD700EE0FF0100EE804DD
:1024B00003E3E5CFEDFFFBD7E5CFFAFFE5CFF4FF70
:1024C000E5CFF3FFE5CFF5FFE5CFF7FFE5CFF6FF6B
:0E24D000E5CFEAFFE5CFE9FFE5CFDAFF110027
:0224DE0050416B
:1024E0005353574F52442057524F4E472020004FCE
:1024F00050454E494E4720444F4F52202020200047
:102500004348414E474520535543434553530043A9
:1025100048414E474520414420505700322E444503
:102520004C455445204D454D00312E414444204DED
:10253000454D00322E4D414E414745204D454D0001
:10254000312E4348414E474520505700322E4F50C0
:1025500054494F4E53004348414E4745205553453B
:102560005220505700322E4348414E474520505785
:1025700000312E4F50454E20444F4F52002A00202C
:1025800000454E5445522050570057524F4E472059
:1025900053545400454E544552205354543A00006D
:0F25A0005052455353202320464F52205057008E
:1025B000006A0EAEE1EF12F00D6C0E1EE86A0E22FC
:1025C000001E09AEE9EF12F0086C091EE86A092244
:1025D000001E3FEC14F009BEF9EF12F000AE000C43
:1025E000086C091EE86A0922046C051EE86A0522C7
:1025F000000C00BEF0EF12F00188FF0C006A0EAE76
:1026000009EF13F00C6C0D1E0E1EE86A0D220E224F
:10261000001E09AE13EF13F0076C081E091EE86ACE
:1026200008220922001E22EC14F009BE26EF13F046
:1026300000AE000C076C081E091EE86A0822092279
:10264000036C041E051E04220522000C00BE1AEFB6
:0626500013F00188FF0CED
:0A2656001E0EF66E000EF76E000E69
:10266000F86E00010900F550CD6F0900F550CE6FEE
:1026700003E1CD6701D03DD00900F550C86F0900D6
:10268000F550C96F0900F550CA6F09000900F550EF
:10269000E96E0900F550EA6E090009000900F550DD
:1026A000CB6F0900F550CC6F09000900F6CFCFF0D1
:1026B000F7CFD0F0F8CFD1F0C8C0F6FFC9C0F7FF10
:1026C000CAC0F8FF0001CB5302E1CC5307E0090078
:1026D000F550EE6ECB07F8E2CC07F9D7CFC0F6FF86
:1026E000D0C0F7FFD1C0F8FF0001CD07000ECE5BD0
:0426F000BFD712003E
:0C26F400D9CFE6FFDACFE6FFFA0EE3CF05
:10270000D9FFFB0EE3CFDAFFFC0EE3CFE9FFFD0EAE
:10271000E3CFEAFFE9CFF3FFEACFF4FFE950D95C5A
:10272000EA50DA580EE3F80EE35003E1F90EE350F5
:1027300024E0F80EE30602E2F90EE306DECFEEFF38
:10274000F2D7F80EE350D926F90EE350DA22DD5223
:10275000F80EE350E926F90EE350EA22ED52F80EA6
:10276000E35003E1F90EE35008E0F80EE30602E25D
:10277000F90EE306DDCFEDFFF2D7FF0EE3CFDAFF70
:0C278000E552FF0EE3CFD9FFE552120036
:04278C0006500B02E6
:10279000F3CF02F0F4CF03F00C02F3500326000E47
:1027A000F420046E06500D02F3500426000EF420AF
:1027B000056E06500E02F350052607500B02F3502B
:1027C0000326F4500422000E052207500C02F35099
:1027D0000426F450052207500D02F3500526085038
:1027E0000B02F3500426F450052208500C02F3505B
:0C27F000052609500B02F35005261200CC
:0427FC00056A046AFC
:10280000036A026A200EE76ED8900636073608364D
:10281000093602360336043605360B50025C0C507E
:1028200003580D5004580E50055809E30B50025E32
:102830000C50035A0D50045A0E50055A062AE72E22
:04284000E4D71200C7
:0C284400056A046A036A180EE76ED8905B
:102850000736083609360336043605360C50035C55
:102860000D5004580E50055807E30C50035E0D50F0
:0E287000045A0E50055A072AE72EEAD7120026
:02287E00056AE9
:10288000046A100EE76ED89008360936043605360D
:102890000D50045C0E50055805E30D50045E0E50BB
:0A28A000055A082AE72EF0D71200AF
:0628AA00800EF36E00EE4B
:1028B00000F00F0E01D81200EA6002D0EE6AFCD7D9
:0A28C000F350E9601200EE6AFCD745
:0628CA001EEE00F02EEEF0
:1028D00000F0F86A019C2BEC13F003EC00F03EECE6
:0628E00007F0FBD7120017
:0A28E60000000000000000000000E8
:1028F00000000000000000000000000000000100D7
:06290000010001000100CE
:0A29060001020408102040800000C8
:102910000000000000000102034104050642070810
:1029200009432A004544010203040506010708097A
:102930000907000303030308000806080609000648
:102940000708090000000102030405060100010751
:102950000809090702000003030303080300000835
:102960000608060904000006070809000000000028
:102970000000000000000000000000000000000057
:102980000000000000000000000000000000000047
:10299000000000000000000000000000050005002D
:0129A0000036
:0F29A100000000000000000010101010101010B7
:1029B0001018181818181818181C1C1C1C1C1C1C83
:1029C0001C1E1E1E1E1E1E1E1E1F1F1F1F1F1F1F22
:1029D0001F000000000000000000000000000000D8
:1029E00000000000000000000000000000000000E7
:1029F00000000000000000000000000000000000D7
:022A00000000D4
:0E2A02000000000000000000000000000000C6
:102A100000000000000000000000000000000000B6
:0A2A200000001020408001020408AD
:020000040030CA
:0100010002FC
:0100020003FA
:010003001EDE
:010005008179
:010006008178
:010008000FE8
:01000900C036
:01000A000FE6
:01000B00E014
:01000C000FE4
:01000D0040B2
:00000001FF
