:020000040000FA
:0600000023EF17F01200CF
:020006001200E6
:060008009BEF14F0120052
:02000E000000F0
:020010000000EE
:0600180029EF14F01200B4
:02001E000500DB
:10002000922F0000AF010000280000000E00000029
:10003000EF00000004000000312F000080000000ED
:1000400061000000822E000000010000AF000000EF
:0C005000622E0000D7010000200000001C
:04005C00D9CFE6FF13
:10006000E1CFD9FF020EE126DE6ADD6A4ED801013A
:10007000E251FDE0E26B9BEC12F09CD998EC0DF0A4
:10008000F6D7D9CFE6FFE1CFD9FF040EE126DE6A2D
:10009000DD6ADECF10F0DDCF11F0FD0EDBCF12F008
:1000A000FE0EDBCF13F011501318E8AE02D013345C
:1000B00004D01250105C135011581DE2020EDB6A7E
:1000C000030EDB6A020EDBCF10F0030EDBCF11F064
:1000D000D890115004E6EE0E105C000E115806E2A6
:1000E000020EDB2A030EEEE3DB2AECD7DF2A010E39
:1000F000D0E3DB2ACED7040EE15C02E2E16AE552EE
:10010000E16EE552E7CFD9FF1200936A956AC9EC18
:1001100009F069EC0DF021EC14F0E80EE66E030E28
:10012000E66EAFDFE552E552570EE66E120EE66E52
:1001300009EC10F0E552E552AE0EE66E240EE66EC6
:10014000ABEC10F0E552E552660EE66EB70EE66EC9
:100150006CEC11F0E552E552020EE66EE66A47ECF1
:1001600012F0E552E5520A0EE66EE66A59EC12F01C
:10017000E552E552320EE66EE66A78EC12F0E55290
:10018000E55297EF12F0D9CFE6FFE1CFD9FFFE0E8F
:10019000DBCF11F0800E11141AE1FD0EDBCF12F04F
:1001A000FE0EDBCF13F0133404E212500708000EEA
:1001B00013540DE3FD0EDBCFE9FFFE0EDBCFEAFFAC
:1001C000000EE926010EEA22EF508310836EE552FD
:1001D000E7CFD9FF1200D9CFE6FFE1CFD9FFFE0E5E
:1001E000DBCF11F0800E11141AE1FD0EDBCF12F0FF
:1001F000FE0EDBCF13F0133404E212500708000E9A
:1002000013540DE3FD0EDBCFE9FFFE0EDBCFEAFF5B
:10021000000EE926010EEA22EF1C8314836EE552DC
:10022000E7CFD9FF1200D9CFE6FFE1CFD9FFFD0E0E
:10023000DBCFE9FFFE0EDBCFEAFF080EE926010E59
:10024000EA22EF0415E1FD0EDBCFE6FFFE0EDBCF69
:10025000E6FFC1DFE552E552FD0EDBCFE9FFFE0E02
:10026000DBCFEAFF080EE926010EEA22EF6A15D07D
:10027000FD0EDBCFE6FFFE0EDBCFE6FF84DFE552AF
:10028000E552FD0EDBCFE9FFFE0EDBCFEAFF080EE5
:10029000E926010EEA22010EEF6EE552E7CFD9FF03
:1002A0001200D9CFE6FFE1CFD9FF020EE126DE6AC8
:1002B000DD6ADECF10F0DDCF11F0113404E2105012
:1002C0000708000E115421E3DECFE6FFDDCFE6FF85
:1002D0005ADFE552E552F40EE66E010EE66ED1DE0F
:1002E000E552E552DECFE6FFDDCFE6FF74DFE552F3
:1002F000E552F40EE66E010EE66EC3DEE552E552FF
:10030000DF2A010ED6E3DB2AD4D7020EE15C02E23B
:10031000E16AE552E16EE552E7CFD9FF1200D9CF8D
:10032000E6FFE1CFD9FF020EE126DE6ADD6ADE6A72
:10033000DD6ADECF10F0DDCF11F00101AA51105CB3
:10034000AB5111582BE2DECFE9FFDDCFEAFF0A0EF9
:10035000EA02F3CFEAFFE902F3CFE9FFF450EA261D
:100360003E0EE926010EEA22EECF10F0EFCF11F09B
:10037000FD0EDB5010180DE1FE0EDB50111809E1E7
:10038000DECF10F0DDCF11F010C0F3FF11C0F4FF8D
:1003900007D0DF2A010ECDE3DB2ACBD7F368F46860
:1003A000020EE15C02E2E16AE552E16EE552E7CF5E
:1003B000D9FF1200D9CFE6FFE1CFD9FF020EE12627
:1003C0000101A451040A02E1D6EF07F0070A02E195
:1003D000C2EF07F0140A02E1E8EF07F00F0A02E1AA
:1003E00004EF07F00E0A02E184EF06F00F0A02E1C3
:1003F00054EF06F0150A02E1F9EF05F0070A01E1F2
:1004000090D31E0A01E15FD3010A01E12ED3130A42
:1004100001E1FFD21D0A01E1CCD2090A01E170D24B
:10042000190A01E100D20C0A01E1CCD1040A01E170
:1004300085D1030A01E1C4D0130A01E1ADD0030A5A
:1004400001E195D0010A2CE0100A02E0E8EF07F084
:100450000C0EE66E2B0EE66EE66AE66ADEEC0FF038
:10046000E552E552E552E552030EE66E2B0EE66EBE
:10047000E66A010EE66EDEEC0FF0E552E552E5525B
:10048000E5528BEC08F074EC08F0000902E1E8EFAB
:1004900007F00101A56BA76BA26BA36B100E88D1AF
:1004A000A72BF80EE66E2A0EE66EE66AE66ADEEC2A
:1004B0000FF0E552E552E552E55233EC08F0000941
:1004C00032E0440E0101FD5D14E10101A651000876
:1004D00028E20A0E0D6E0E6AA2C108F0A3C109F04F
:1004E000FDEC16F008C0A2F109C0A3F10101A607B6
:1004F00018D00A0EFD5D15E2A2C110F0A3C111F0E3
:100500000A0E1102F3CF11F01002F3CF10F0F450E5
:100510001126FD510101F324A26F000E1120A36FDB
:10052000A62B0101A76B030E0101A65D04E274EC8A
:1005300008F0000905E07CEC08F00101110EA46F41
:100540006CEC08F0000904E00101A46B69EC0DF00B
:100550000101A751106E116AD890115004E6580E8F
:10056000105C020E115802E2E8EF07F0E5D0A76B2D
:10057000A2C1E6FFA3C1E6FFD2DEE552E552F3CF0A
:10058000A8F1F4CFA9F10101F31C01E1A91D02E0DA
:10059000010E0ED1120E0CD1A72BEE0EE66E2A0E16
:1005A000E66EE66AE66ADEEC0FF0E552E552E552E9
:1005B000E5523C0E0101A75D02E2E8EF07F0BCD076
:1005C000030EE66E2B0EE66EE66AE66ADEEC0FF0D0
:1005D000E552E552E552E552A8C1E9FFA9C1EAFF9B
:1005E0000A0EEA02F3CFEAFFE902F3CFE9FFF45083
:1005F000EA263E0EE926010EEA22EECF10F0EFCFFA
:1006000011F0126A136A10C0E6FF11C0E6FF12C0B3
:10061000E6FF13C0E6FF0A0EE66EE66AB7EC0EF0E0
:10062000146E060EE15E1450EC0EE66E2A0EE66EB7
:100630000B0EE66EE66ADEEC0FF0E552E552E5528F
:10064000E552A8C1E9FFA9C1EAFF0A0EEA02F3CF09
:10065000EAFFE902F3CFE9FFF450EA263E0EE9266D
:10066000010EEA22080EE926000EEA22EECFE6FF8E
:10067000EFCFE6FF0C0EE66EE66ADEEC0FF0E55219
:10068000E552E552E5520101A72B33EC08F00009D1
:1006900035E0440E0101FD5D14E10101A5510008A2
:1006A0002BE2A507EA0EE66E2A0EE66EA5C1E6FF6E
:1006B000010EE66EDEEC0FF0E552E552E552E55232
:1006C0001BD00A0EFD5D18E2E80EE66E2A0EE66EFD
:1006D000A5C1E6FF010EE66EDEEC0FF0E552E55235
:1006E000E552E5520101A551EA6AF70FE96E010EE4
:1006F000EA22FDC1EFFFA52B0101A76B060E010148
:10070000A55D04E3020EA46F69EC0DF00101A75191
:10071000106E116AD890115004E6580E105C020E4B
:10072000115803E3A46B69EC0DF06CEC08F00009C0
:1007300002E1E8EF07F00101A46B3BD0A76BF2ECFC
:1007400007F000093AE0A8C1E9FFA9C1EAFF0A0ED3
:10075000EA02F3CFEAFFE902F3CFE9FFF450EA2619
:100760003E0EE926010EEA22020EE926000EEA22DA
:10077000EF5003E10101060E1BD0A8C1E9FFA9C19A
:10078000EAFF0A0EEA02F3CFEAFFE902F3CFE9FF3C
:10079000F450EA263E0EE926010EEA22020EE92670
:1007A000000EEA22EF0402E0E8EF07F00101070E75
:1007B000A46F69EC0DF0E8EF07F00101040EA46FDF
:1007C000E8EF07F0A72BDC0EE66E2A0EE66EE66A6F
:1007D000E66ADEEC0FF0E552E552E552E552D00E46
:1007E000E66E2A0EE66EE66A010EE66EDEEC0FF0AD
:1007F000E552E552E552E5526CEC08F0000902E0E2
:100800000101A46B5CEC08F0000905E00101030E96
:10081000A46F7CEC08F064EC08F0000901E1D8D387
:1008200001010A0EACD3A72BC10EE66E2A0EE66EAE
:10083000E66AE66ADEEC0FF0E552E552E552E55273
:1008400033EC08F0000939E0440E0101FD5D14E1CC
:100850000101A55100082FE2A507EA0EE66E2A0E57
:10086000E66EA5C1E6FF010EE66EDEEC0FF0E55286
:10087000E552E552E5521FD00A0EFD5D1CE2060E60
:100880000101A55D18E2E80EE66E2A0EE66EA5C12E
:10089000E6FF010EE66EDEEC0FF0E552E552E552A2
:1008A000E5520101A551EA6AF70FE96E010EEA224D
:1008B000FDC1EFFFA52B0101A76B74EC08F0000947
:1008C00008E0060E0101A55D04E3130EA46F7CECA5
:1008D00008F06CEC08F0000905E00101060EA46FB9
:1008E0007CEC08F00101A751106E116A113401E38C
:1008F0006FD310505808020E115401E369D354D33A
:10090000A72BB20EE66E2A0EE66EE66AE66ADEEC0B
:100910000FF0E552E552E552E5520101A7052AE143
:10092000060EE66EE66AF70EE66E010EE66EA8C1EA
:10093000E9FFA9C1EAFF0A0EEA02F3CFEAFFE902E2
:10094000F3CFE9FFF450EA263E0EE926010EEA2233
:10095000020EE926000EEA22E9CF10F0EACF11F0EC
:10096000E9CFE6FFEACFE6FF38EC16F0126E060E8E
:10097000E15E1250B9DB000901E12AD3A8C1E9FF09
:10098000A9C1EAFF0A0EEA02F3CFEAFFE902F3CFB8
:10099000E9FFF450EA263E0EE926010EEA22020E95
:1009A000E926000EEA22EF5001E17BD101011A0E87
:1009B000E6D2A72BA30EE66E2A0EE66EE66AE66A7C
:1009C000DEEC0FF0E552E552E552E552920EE66E8E
:1009D0002A0EE66EE66A010EE66EDEEC0FF0E552D8
:1009E000E552E552E55280DB000904E00101060E04
:1009F000A46F82DB0101A751106E116A113401E36B
:100A0000E7D210505808020E115401E3E1D2060E4D
:100A1000B6D2A72BDC0EE66E2A0EE66EE66AE66A12
:100A2000DEEC0FF0E552E552E552E552880EE66E37
:100A30002A0EE66EE66A010EE66EDEEC0FF0E55277
:100A4000E552E552E55248DB000902E00101A46BE2
:100A500033DB000904E00101030EA46F4DDB34DB3E
:100A6000000901E1B5D201014DD1A72B7C0EE66E44
:100A70002A0EE66EE66AE66ADEEC0FF0E552E55213
:100A8000E552E5526F0EE66E2A0EE66EE66A010E3C
:100A9000E66EDEEC0FF0E552E552E552E5521CDB66
:100AA000000903E00101070EA46F06DB000904E062
:100AB00001010B0EA46F20DB07DB000901E188D2E6
:100AC0000101150E5CD2A72B650EE66E2A0EE66EAE
:100AD000E66AE66ADEEC0FF0E552E552E552E552D1
:100AE000580EE66E2A0EE66EE66A010EE66EDEEC43
:100AF0000FF0E552E552E552E552EEDA000903E067
:100B00000101070EA46FD8DA000904E00101160EF6
:100B1000A46FF2DAD9DA000901E15AD20101170E05
:100B20002ED2A72B4B0EE66E2A0EE66EE66AE66A1A
:100B3000DEEC0FF0E552E552E552E55294DA000999
:100B400039E0440E0101FD5D14E10101A5510008E9
:100B50002FE2A507EA0EE66E2A0EE66EA5C1E6FFB5
:100B6000010EE66EDEEC0FF0E552E552E552E5527D
:100B70001FD00A0EFD5D1CE2060E0101A55D18E204
:100B8000E80EE66E2A0EE66EA5C1E6FF010EE66EE1
:100B9000DEEC0FF0E552E552E552E5520101A551B8
:100BA000EA6AF70FE96E010EEA22FDC1EFFFA52BFD
:100BB0000101A76B99DA000907E0060E0101A55DA6
:100BC00003E30C0EA46F98DA87DA000904E0010150
:100BD000070EA46F91DA0101A751106E116A11344A
:100BE00001E3F6D110505808020E115401E3F0D180
:100BF000DBD1A72BB20EE66E2A0EE66EE66AE66A37
:100C0000DEEC0FF0E552E552E552E5520101A70591
:100C10002AE1060EE66EE66AF70EE66E010EE66E55
:100C2000A8C1E9FFA9C1EAFF0A0EEA02F3CFEAFF71
:100C3000E902F3CFE9FFF450EA263E0EE926010E61
:100C4000EA22020EE926000EEA22E9CF10F0EACFEE
:100C500011F0E9CFE6FFEACFE6FF38EC16F0126EAE
:100C6000060EE15E125040DA000901E1B1D1A8C1DF
:100C7000E9FFA9C1EAFF0A0EEA02F3CFEAFFE9029F
:100C8000F3CFE9FFF450EA263E0EE926010EEA22F0
:100C9000020EE926000EEA22EF0403E00101190E1C
:100CA0006ED10101A46B6CD1A72BA30EE66E2A0EA8
:100CB000E66EE66AE66ADEEC0FF0E552E552E552D2
:100CC000E552920EE66E2A0EE66EE66A010EE66EBA
:100CD000DEEC0FF0E552E552E552E55205DA000987
:100CE00004E00101140EA46F07DA0101A751106E90
:100CF000116A113401E36CD110505808020E1154DE
:100D000001E366D1140E3BD1A72B3D0EE66E2A0EF1
:100D1000E66EE66AE66ADEEC0FF0E552E552E55271
:100D2000E552ACC110F0ADC111F0126A136AACC14A
:100D3000E6FFADC1E6FF12C0E6FF13C0E6FF0E0EF0
:100D4000E66EE66AB7EC0EF0146E060EE15E145025
:100D50008AD9000939E0440E0101FD5D14E1010169
:100D6000A55100082FE2A507EA0EE66E2A0EE66EF0
:100D7000A5C1E6FF010EE66EDEEC0FF0E552E5528E
:100D8000E552E5521FD00A0EFD5D1CE2060E010180
:100D9000A55D18E2E80EE66E2A0EE66EA5C1E6FF36
:100DA000010EE66EDEEC0FF0E552E552E552E5523B
:100DB0000101A551EA6AF70FE96E010EEA22FDC1B1
:100DC000EFFFA52B0101A76B8FD9000907E0060EE5
:100DD0000101A55D03E3180EA46F8ED97DD900092A
:100DE00004E00101150EA46F87D90101A751106E0F
:100DF000116A113401E3ECD010505808020E11545E
:100E000001E3E6D0070EBBD0A72B330EE66E2A0E09
:100E1000E66EE66AE66ADEEC0FF0E552E552E55270
:100E2000E552280EE66E2A0EE66EE66A010EE66EC2
:100E3000DEEC0FF0E552E552E552E5520101A7055F
:100E400071E1DE6ADD6AAAC1E9FFABC1EAFF0A0E01
:100E5000EA02F3CFEAFFE902F3CFE9FFF450EA2612
:100E60003E0EE926010EEA22ACC1EEFFADC1EDFF58
:100E7000DE6ADD6ADECF10F0DDCF11F0D8901150C0
:100E800004E6060E105C000E115846E2DECFE9FFC4
:100E9000DDCFEAFFF70EE926010EEA22EF50E66EFB
:100EA000AAC1E9FFABC1EAFF0A0EEA02F3CFEAFFEB
:100EB000E902F3CFE9FFF450EA263E0EE926010EDF
:100EC000EA22020EE926000EEA22DE50E924E96E4B
:100ED000DD50EA20EA6EE552E750EF6EDECFE9FF23
:100EE000DDCFEAFFF70EE926010EEA22EF50300FC0
:100EF000E66EDECF10F0DDCF11F00A0E1024E66EA4
:100F0000010EE66E8CEC0EF0E552E552E552DF2A5A
:100F1000010EB0E3DB2AAED70101AC2B000EAD23EE
:100F2000AA2BAB23ACC110F0ADC111F01006000E1E
:100F3000115A126A136A10C0E6FF11C0E6FF12C010
:100F4000E6FF13C0E6FF090EE66EE66AB7EC0EF0A8
:100F5000146E060EE15E1450C7D8000904E00101CA
:100F6000150EA46FC9D80101A751106E116A113472
:100F70002FE210509008010E11542AE2150EA46FB2
:100F8000BBD826D0A72B170EE66E2A0EE66EE66AB1
:100F9000E66ADEEC0FF0E552E552E552E552B3D8D1
:100FA000640E0101A75D14E3A46B12D0A72B060EFB
:100FB000E66E2A0EE66EE66AE66ADEEC0FF0E552B1
:100FC000E552E552E552280E0101A75D01E3A46B4D
:100FD000020EE15C02E2E16AE552E16EE552E7CF22
:100FE000D9FF1200D9CFE6FFE1CFD9FF020EE126EB
:100FF000DF6A060EDF5C2AE2A8C1E9FFA9C1EAFFA9
:101000000A0EEA02F3CFEAFFE902F3CFE9FFF45058
:10101000EA263E0EE926010EEA22020EE926000E1D
:10102000EA22DF50E924E96E000EEA20EA6EEFCFF3
:1010300010F0DF50EA6AF70FE96E010EEA22EF5076
:10104000105C02E0000E03D0DF2AD3D7010E106E31
:10105000020EE15C02E2E16AE552E16E1050E552F7
:10106000E7CFD9FF1200D9CFE6FFE1CFD9FFE65293
:10107000DF6ADF500F081AE3EA6ADF34FE0BEA3654
:10108000E96EAF0EE926010EEA22010EEE180CE120
:10109000ED500AE1DF50EA6A100FE96E010EEA2214
:1010A000EFCFFDF1010E03D0DF2AE3D7000EE552AA
:1010B000E552E7CFD9FF12000101010EAF1903E19C
:1010C000B05101E1010C000C0101010EB11903E165
:1010D000B25101E1010C000C0101010EBD1903E147
:1010E000BE5101E1010C000C0101010EC51903E123
:1010F000C65101E1010C000C69EC0DF00101A76B78
:10110000A56BA66B1200000EE66EE66AC3EC00F05B
:10111000E552E5521200000EE66EE66AEBEC00F0D6
:10112000E552E5521200D9CFE6FFE1CFD9FF020E1A
:10113000E126DE6ADD6ADE6ADD6ADECF10F0DDCF31
:1011400011F0D890115004E6100E105C000E1158EA
:1011500046E2DECFE9FFDDCFEAFFD890E936EA3696
:10116000AF0EE926010EEA22000ED880EE54000EE2
:10117000ED5423E2DECFE9FFDDCFEAFFD890E93678
:10118000EA36AF0EE926010EEA22EECF10F0EFCFDD
:1011900011F0126A136A10C0E6FF11C0E6FF12C018
:1011A000E6FF13C0E6FFDFCFE6FFE66AB7EC0EF01E
:1011B000146E060EE15E14500DD0E66AE66AE66A29
:1011C000E66ADFCFE6FFE66AB7EC0EF0106E060EB9
:1011D000E15E1050DF2A010EB0E3DB2AAED7020E2B
:1011E000E15C02E2E16AE552E16EE552E7CFD9FF48
:0211F0001200EB
:0E11F200D9CFE6FFE1CFD9FF040EE126DE6A79
:10120000DD6ADECF10F0DDCF11F0126A136A11AE85
:1012100002D012681368D950FB0FE96EFF0EDA2076
:10122000EA6EEE50105CEE501158EE501258EE502F
:1012300013581DE2020EDB6A030EDB6A020EDBCFDF
:1012400010F0030EDBCF11F0D890115004E6050E1C
:10125000105C000E115806E2020EDB2A030EEEE3CC
:10126000DB2AECD7DF2A010ECCE3DB2ACAD7040E37
:10127000E15C02E2E16AE552E16EE552E7CFD9FFB7
:101280001200D9CFE6FFE1CFD9FF040EE126DE6AD6
:10129000DD6ADECF10F0DDCF11F0126A136A11AEF5
:1012A00002D012681368D950FB0FE96EFF0EDA20E6
:1012B000EA6EEE50105CEE501158EE501258EE509F
:1012C00013581DE2020EDB6A030EDB6A020EDBCF4F
:1012D00010F0030EDBCF11F0D890115004E6EE0EA3
:1012E000105C000E115806E2020EDB2A030EEEE33C
:1012F000DB2AECD7DF2A010ECCE3DB2ACAD7040EA7
:10130000E15C02E2E16AE552E16EE552E7CFD9FF26
:101310001200D9CFE6FFE1CFD9FF0F0E8116FE0EE6
:10132000DB50F00B81128186010EE66EE66AE66AFA
:10133000E66AA7DFE552E552E552E5528196010ED5
:10134000E66EE66AE66AE66A9CDFE552E552E55239
:10135000E5520F0E8116FE0EDB38F00B81128186EE
:10136000010EE66EE66AE66AE66A8BDFE552E55252
:10137000E552E5528196010EE66EE66AE66AE66A95
:1013800080DFE552E552E552E552E552E7CFD9FF5D
:101390001200D9CFE6FFE1CFD9FFE652190EE66E73
:1013A000E66AE66AE66A6DDFE552E552E552E55225
:1013B0000F0E8116F80E81160F0E8116300E811257
:1013C0008186010EE66EE66AE66AE66A5ADFE55253
:1013D000E552E552E5528196010EE66EE66AE66A4E
:1013E000E66A4FDFE552E552E552E5520F0E8116EF
:1013F000300E81128186010EE66EE66AE66AE66AC2
:1014000040DFE552E552E552E5528196010EE66E67
:10141000E66AE66AE66A35DFE552E552E552E552EC
:101420000F0E8116300E81128186010EE66EE66A7D
:10143000E66AE66A26DFE552E552E552E552819614
:10144000010EE66EE66AE66AE66A1BDFE552E552E1
:10145000E552E5520F0E8116818A8186010EE66EF5
:10146000E66AE66AE66A0DDFE552E552E552E552C4
:101470008196010EE66EE66AE66AE66A02DFE552EA
:10148000E552E552E552280EE66E43DFE5520C0EBA
:10149000E66E3FDFE552E552E552E7CFD9FF120095
:1014A000D9CFE6FFE1CFD9FF020EE126DF6A010EB8
:1014B000DB6A81940F0EE66EE66AE66AE66A99DEFA
:1014C000E552E552E552E5520F0E81128186E66E35
:1014D000E66AE66AE66A8DDEE552E552E552E552D5
:1014E0000F0E8114E76E010EE7CFDBFF81960F0E22
:1014F000E66EE66AE66AE66A7CDEE552E552E552A9
:10150000E5520F0E81128186E66EE66AE66AE66AA9
:1015100070DEE552E552E552E5520F0E8114DF6EA2
:10152000010EDB50DF128196010EE66EE66AE66A76
:10153000E66A5FDEE552E552E552E552DF50106E95
:10154000020EE15C02E2E16AE552E16E1050E55202
:10155000E7CFD9FF1200D9CFE6FFE1CFD9FFE6529E
:10156000DF6A9EDFDF6EDFBEFCD7DF50E552E5525B
:10157000E7CFD9FF1200D9CFE6FFE1CFD9FF0F0E99
:101580008116FE0EDB5081128186050EE66EE66A3C
:10159000E66AE66A2EDEE552E552E552E5528196AC
:1015A000050EE66EE66AE66AE66A23DEE552E55275
:1015B000E552E552E552E7CFD9FF1200D9CFE6FF59
:1015C000E1CFD9FF8194050EE66EE66AE66AE66A27
:1015D00010DEE552E552E552E552FE0EDBCFE6FFA6
:1015E000CADFE552FE0EDB38F00BE66EC4DFE552D3
:1015F000E552E7CFD9FF1200D9CFE6FFE1CFD9FFFF
:101600008184050EE66EE66AE66AE66AF2DDE55278
:10161000E552E552E552FE0EDBCFE6FFACDFE552C8
:10162000FE0EDB38F00BE66EA6DFE5528194E55244
:10163000E7CFD9FF1200D9CFE6FFE1CFD9FFFE0EE9
:10164000DBCFE6FFD9DFE552E552E7CFD9FF120045
:10165000D9CFE6FFE1CFD9FFFE0EDBCFE6FFCCDF2F
:10166000E552E552E7CFD9FF1200D9CFE6FFE1CF2F
:10167000D9FFFD0EDBCFF6FFFE0EDBCFF7FF080034
:10168000F5500FE0FD0EDBCFF6FFDB2AFE0EDBCFC1
:10169000F7FF01E3DB2A0800F550E66ED9DFE552DB
:1016A000E8D7E552E7CFD9FF1200D9CFE6FFE1CF67
:1016B000D9FFE652FD0EDB500F0B106EFE0EDB5015
:1016C000010B400DF3501024DF6E7F0EDF14800FEE
:1016D000DF6EDFCFE6FF72DFE552E552E552E7CF7E
:1016E000D9FF1200010EE66E69DFE552E66AE66A8E
:1016F000DCDFE552E5521200D9CFE6FFE1CFD9FF9A
:10170000050EE126010EF36EDB6E020EDB6A030EA0
:10171000DB6A040EDB6ADF6ADFCF10F0116A10BEED
:101720001168FB0EDBCF12F0FC0EDBCF13F0115073
:101730001318E8AE02D0133404D01250105C1350CA
:1017400011582DE2FD0EDBCF10F0FE0EDBCF11F0B5
:10175000126A136A11AE02D012681368D950010FD1
:10176000E96EDACFEAFF10C00BF011C00CF012C026
:101770000DF013C00EF0EECF06F0EECF07F0EECF77
:1017800008F0EFCF09F084EC16F005C0EDFF04C0BF
:10179000EDFF03C0EDFF02C0EFFFDF2ABDD7010E52
:1017A000DBCF10F0020EDBCF11F0030EDBCF12F017
:1017B000040EDBCF13F010C006F011C007F012C00A
:1017C00008F013C009F0050EE15C02E2E16AE5529F
:1017D000E16EE552E7CFD9FF1200D9CFE6FFE1CFA6
:1017E000D9FF020EE126DF6AFB0EDBCF10F0FC0E04
:1017F000DBCF11F0FD0EDBCF12F0FE0EDBCF13F0CE
:10180000105011101210131005E1300EE66E20DF9B
:10181000E552F4D0D950FB0FE96EFF0EDA20EA6EE4
:10182000D890030EEB50000A08E6000EEE5C000EA6
:10183000EE58000EEE58000EEE5815E22D0EE66E34
:1018400007DFE552D950FB0FE96EFF0EDA20EA6E92
:10185000000EEE6CEF1EEE22EF1EEE22EF1EEF22C8
:10186000ED52ED52ED52DE52070EDD6E010EDBCF72
:1018700010F0000EE76E1018E8AE02D0103403D05E
:10188000E750D880105401E3B9D0010EDB04146E88
:10189000156A14BE156814C0E6FF15C0E6FF0A0EEF
:1018A000E66EE66A29DFE552E552E552E55206C0EA
:1018B00010F007C011F008C012F009C013F006C004
:1018C0000BF007C00CF008C00DF009C00EF0FB0EC5
:1018D000DBCF06F0FC0EDBCF07F0FD0EDBCF08F010
:1018E000FE0EDBCF09F0BCEC16F006500710081016
:1018F000091041E0010EDF6EDB04186E196A18BE94
:10190000196818C0E6FF19C0E6FF0A0EE66EE66A1F
:10191000F3DEE552E552E552E55206C014F007C089
:1019200015F008C016F009C017F006C00BF007C08C
:101930000CF008C00DF009C00EF0FB0EDBCF06F076
:10194000FC0EDBCF07F0FD0EDBCF08F0FE0EDBCF89
:1019500009F0BCEC16F006C010F007C011F008C08A
:1019600012F009C013F0300E1026000E11221222C0
:101970001322105003D0DF5004E0300EE66E68DE14
:10198000E552010EDB04146E156A14BE156814C00E
:10199000E6FF15C0E6FF0A0EE66EE66AADDEE5522A
:1019A000E552E552E55206C010F007C011F008C03C
:1019B00012F009C013F0D950FB0FE96EFF0EDA20C8
:1019C000EA6E06C00BF007C00CF008C00DF009C0AD
:1019D0000EF0EECF06F0EECF07F0EECF08F0EFCF2F
:1019E00009F0BCEC16F005C0EDFF04C0EDFF03C02C
:1019F000EDFF02C0EFFF010EDB0638D7020EE15CFF
:101A000002E2E16AE552E16EE552E7CFD9FF12004A
:101A1000D9CFE6FFE1CFD9FFFD0EDBCFE6FFFE0E0B
:101A2000DBCFE6FF42DEE552E552D950F90FE96E11
:101A3000FF0EDA20EA6EEECFE6FFEECFE6FFEECF46
:101A4000E6FFEFCFE6FFC9DEE552E552E552E5528B
:101A5000E552E7CFD9FF1200D9CFE6FFE1CFD9FF9A
:101A6000FD0EDBCFE6FFFE0EDBCFE6FF1EDEE5520E
:101A7000E552FB0EDBCFE6FFFC0EDBCFE6FFF5DD2C
:101A8000E552E552E552E7CFD9FF1200D9CFE6FF84
:101A9000E1CFD9FFEBC010F0ECC011F0040ED890EC
:101AA00010361136E806FBE1C10E1026000E112299
:101AB00010500001ED25E96E1150EE21EA6EFE0E88
:101AC000DBCFEFFFED2B000EEE23E552E7CFD9FF82
:101AD0001200D9CFE6FFE1CFD9FFE652DF6ADFCFB0
:101AE00010F0100EE76E1018E8AE02D0E73402D006
:101AF000E750105C18E2DFCFE9FFEA6AE9BEEA6866
:101B0000C10EE926000EEA22200EEF6EDFCFE9FFBC
:101B1000EA6AE9BEEA68D10EE926000EEA22200E42
:101B2000EF6EDF2ADCD7E552E552E7CFD9FF12008E
:101B3000D9CFE6FFE1CFD9FFE6520001C051030A39
:101B400052E0010A36E0030A1AE0010A67E1E66A98
:101B5000E66AABDDE552E552DF6A080EDF5C0CE2B7
:101B6000DF50EA6AC10FE96E000EEA22EF50E66E1E
:101B70006FDDE552DF2AF1D70001010E32D0080EE9
:101B8000E66EE66A92DDE552E552DF6A080EDF5C3A
:101B90000DE2080EDF24EA6AC10FE96E000EEA22A8
:101BA000EF50E66E55DDE552DF2AF0D70001020E58
:101BB00018D0E66A010EE66E78DDE552E552DF6A7E
:101BC000080EDF5C0CE2DF50EA6AD10FE96E000E0E
:101BD000EA22EF50E66E3CDDE552DF2AF1D7000144
:101BE000030EC06F1CD0080EE66E010EE66E5DDDC2
:101BF000E552E552DF6A080EDF5C0DE2080EDF24D5
:101C0000EA6AD10FE96E000EEA22EF50E66E20DD9F
:101C1000E552DF2AF0D70001C06B01D0C06BE5525E
:101C2000E552E7CFD9FF1200D9CFE6FFE1CFD9FFC8
:101C3000E6520001C051010A1BE0010A32E1E66AE6
:101C4000E66A33DDE552E552DF6A100EDF5C0CE236
:101C5000DF50EA6AC10FE96E000EEA22EF50E66E2D
:101C6000F7DCE552DF2AF1D70001010EC06F1AD070
:101C7000E66A010EE66E19DDE552E552DF6A100EE6
:101C8000DF5C0CE2DF50EA6AD10FE96E000EEA2257
:101C9000EF50E66EDDDCE552DF2AF1D70001C06BC4
:101CA00001D0C06BE552E552E7CFD9FF1200D9CF82
:101CB000E6FFE1CFD9FFE652E66AE66AF6DCE552D6
:101CC000E552DF6A100EDF5C0CE2DF50EA6AC10FFA
:101CD000E96E000EEA22EF50E66EBADCE552DF2A2A
:101CE000F1D7E66A010EE66EE0DCE552E552DF6A06
:101CF000100EDF5C0CE2DF50EA6AD10FE96E000ED5
:101D0000EA22EF50E66EA4DCE552DF2AF1D7E55275
:101D1000E552E7CFD9FF1200D9CFE6FFE1CFD9FFD7
:101D2000FE0EDB50010B0001EB6FEC6BFD0EDB5088
:101D30000F0BED6FEE6BEBC010F0ECC011F0040E6A
:101D4000D89010361136E806FBE1C10E1026000EC1
:101D5000112210500001ED25E96E1150EE21EA6EBE
:101D6000FC0EDBCFEFFFE552E7CFD9FF1200D9CF52
:101D7000E6FFE1CFD9FF020EE126DF6AFE0EDB505F
:101D8000010B0001EB6FEC6BFD0EDB500F0BED6FE9
:101D9000EE6BF90EDBCF10F0FA0EDBCF11F0FB0E7D
:101DA000DBCF12F0FC0EDBCF13F01050111012102D
:101DB000131005E1300EE66E69DEE552F5D0D9501C
:101DC000F90FE96EFF0EDA20EA6ED890030EEB50A1
:101DD000000A08E6000EEE5C000EEE58000EEE580B
:101DE000000EEE5815E22D0EE66E50DEE552D9508B
:101DF000F90FE96EFF0EDA20EA6E000EEE6CEF1EB0
:101E0000EE22EF1EEE22EF1EEF22ED52ED52ED52CA
:101E1000DE52070EDD6E010EDBCF10F0000EE76E16
:101E20001018E8AE02D0103403D0E750D880105418
:101E300001E3BAD0010EDB04146E156A14BE1568F6
:101E400014C0E6FF15C0E6FF0A0EE66EE66A54DC33
:101E5000E552E552E552E55206C010F007C011F018
:101E600008C012F009C013F006C00BF007C00CF058
:101E700008C00DF009C00EF0F90EDBCF06F0FA0E27
:101E8000DBCF07F0FB0EDBCF08F0FC0EDBCF09F059
:101E9000BCEC16F0065007100810091041E0010EC6
:101EA000DF6EDB04186E196A18BE196818C0E6FFE9
:101EB00019C0E6FF0A0EE66EE66A1EDCE552E55240
:101EC000E552E55206C014F007C015F008C016F040
:101ED00009C017F006C00BF007C00CF008C00DF0E9
:101EE00009C00EF0F90EDBCF06F0FA0EDBCF07F0DB
:101EF000FB0EDBCF08F0FC0EDBCF09F0BCEC16F0DC
:101F000006C010F007C011F008C012F009C013F0AD
:101F1000300E1026000E112212221322105003D070
:101F2000DF5004E0300EE66EB1DDE552010EDB0459
:101F3000146E156A14BE156814C0E6FF15C0E6FFDE
:101F40000A0EE66EE66A7CEC0BF0E552E552E552CD
:101F5000E55206C010F007C011F008C012F009C029
:101F600013F0D950F90FE96EFF0EDA20EA6E06C0C1
:101F70000BF007C00CF008C00DF009C00EF0EECF5A
:101F800006F0EECF07F0EECF08F0EFCF09F0BCEC93
:101F900016F005C0EDFF04C0EDFF03C0EDFF02C069
:101FA000EFFF010EDB0637D7020EE15C02E2E16AC9
:101FB000E552E16EE552E7CFD9FF1200D9CFE6FF37
:101FC000E1CFD9FFFE0EDB50010B0001EB6FEC6B94
:101FD000FD0EDB500F0BED6FEE6BFB0EDBCFF6FF54
:101FE000FC0EDBCFF7FF0800F5500FE0FB0EDBCF58
:101FF000F6FFDB2AFC0EDBCFF7FF01E3DB2A08004C
:10200000F550E66E43DDE552E8D7E552E7CFD9FF5C
:022010001200BC
:0E201200D9CFE6FFE1CFD9FFD59EFD0EDBCF83
:10202000D7F1FE0EDBCFD8F1D59C13681468156A82
:10203000D7C116F0D8C117F0186A1650135C106E8D
:1020400017501458116E18501558126E0C6A010E64
:102050000D6E0E6A10C007F011C008F012C009F032
:10206000BCEC15F00350D66E13681468156AD7C11E
:1020700016F0D8C117F0186A1650135C106E17507E
:102080001458116E18501558126E0C6A010E0D6E10
:102090000E6A10C007F011C008F012C009F0BCECC5
:1020A00015F007C010F008C011F009C012F0075079
:1020B000D76ED59AD586F28AF294F184D58EE55200
:1020C000E7CFD9FF1200D59E120013681468156A75
:1020D000D7C116F0D8C117F0186A1650135C106EED
:1020E00017501458116E18501558126E0C6A010EC4
:1020F0000D6E0E6A10C007F011C008F012C009F092
:10210000BCEC15F00350D66E13681468156AD7C17D
:1021100016F0D8C117F0186A1650135C106E1750DD
:102120001458116E18501558126E0C6A010E0D6E6F
:102130000E6A10C007F011C008F012C009F0BCEC24
:1021400015F007C010F008C011F009C012F00750D8
:10215000D76ED58E1200D9CFE6FFE1CFD9FFCD9053
:10216000FD0EDBCFD9F1FE0EDBCFDAF11368146878
:10217000156AD9C116F0DAC117F0186A1650135C47
:10218000106E17501458116E18501558126E0C6AB4
:10219000010E0D6E0E6A10C007F011C008F012C0DB
:1021A00009F0BCEC15F00750CF6E13681468156A7F
:1021B000D9C116F0DAC117F0186A1650135C106E08
:1021C00017501458116E18501558126E0C6A010EE3
:1021D0000D6E0E6A10C007F011C008F012C009F0B1
:1021E000BCEC15F003C010F004C011F005C012F0F3
:1021F0000350CE6E9D809E909F90CD8ECD8CCD98BD
:10220000CD9ACD96CD92CD80E552E7CFD9FF120081
:1022100013681468156AD9C116F0DAC117F0186A84
:102220001650135C106E17501458116E1850155834
:10223000126E0C6A010E0D6E0E6A10C007F011C00E
:1022400008F012C009F0BCEC15F00750CF6E13680F
:102250001468156AD9C116F0DAC117F0186A165059
:10226000135C106E17501458116E18501558126EDA
:102270000C6A010E0D6E0E6A10C007F011C008F056
:1022800012C009F0BCEC15F003C010F004C011F04E
:1022900005C012F00350CE6ECD801200CD9012001A
:1022A000D9CFE6FFE1CFD9FFCA94CC6AFE0EDB504E
:1022B0000101DB6FDC6BCB6E9D829E929F92CA9078
:1022C000CA92CA84E552E7CFD9FF1200DBC1CBFF27
:1022D000CA841200CA941200D9CFE6FFE1CFD9FF19
:1022E000B190FD0EDBCFDDF1FE0EDBCFDEF113682A
:1022F0001468156ADDC116F0DEC117F0186A1650B1
:10230000135C106E17501458116E18501558126E39
:102310000C6A010E0D6E0E6A10C007F011C008F0B5
:1023200012C009F0BCEC15F00750B36E13681468C6
:10233000156ADDC116F0DEC117F0186A1650135C7D
:10234000106E17501458116E18501558126E0C6AF2
:10235000010E0D6E0E6A10C007F011C008F012C019
:1023600009F0BCEC15F003C010F004C011F005C07A
:1023700012F00350B26EA082A192A292B18EB198D7
:10238000B19AB192B180E552E7CFD9FF120013683C
:102390001468156ADDC116F0DEC117F0186A165010
:1023A000135C106E17501458116E18501558126E99
:1023B0000C6A010E0D6E0E6A10C007F011C008F015
:1023C00012C009F0BCEC15F00350B26E136814682B
:1023D000156ADDC116F0DEC117F0186A1650135CDD
:1023E000106E17501458116E18501558126E0C6A52
:1023F000010E0D6E0E6A10C007F011C008F012C079
:1024000009F0BCEC15F007C010F008C011F009C0CD
:1024100012F00750B36EB1801200B19012000101AA
:10242000E72B000EE823EF51E75DF051E85904E394
:10243000E76BE86B010EDF6F12000101E92B000E64
:10244000EA23F151E95DF251EA5904E3E96BEA6BE1
:10245000010EE06F12000101EB2B000EEC23F35193
:10246000EB5DF451EC5904E3EB6BEC6B010EE16FA7
:1024700012000101ED2B000EEE23F551ED5DF6513A
:10248000EE5904E3ED6BEE6B010EE26F1200D9CF53
:10249000E6FFE1CFD9FFFD0EDBCFEFF1FE0EDBCF84
:1024A000F0F10101E76BE86BDF6BE552E7CFD9FF95
:1024B0001200D9CFE6FFE1CFD9FFFD0EDBCFF1F15E
:1024C000FE0EDBCFF2F1050E0D6E0E6AF1C108F0C3
:1024D000F2C109F096EC15F008C0F1F109C0F2F173
:1024E0000101E96BEA6BE06BE552E7CFD9FF12001F
:1024F000D9CFE6FFE1CFD9FFFD0EDBCFF5F1FE0E20
:10250000DBCFF6F10A0E0D6E0E6AF5C108F0F6C1CA
:1025100009F096EC15F008C0F5F109C0F6F10101DB
:0E252000ED6BEE6BE26BE552E7CFD9FF1200D8
:02252E000F0E8E
:10253000946E82681200D9CFE6FFE1CFD9FF040E76
:10254000E126DE6ADD6ADECF10F0DDCF11F0D89033
:10255000115004E6040E105C000E115801E390D0F7
:10256000DECFE9FFDDCFEAFFCF0EE926010EEA223A
:10257000EF1C826E020EDB6A030EDB6A020EDBCFFB
:1025800010F0030EDBCF11F0D890115004E6040ECA
:10259000105C000E11586EE2020EDBCFE9FF030E55
:1025A000DBCFEAFFD30EE926010EEA22EF508214B8
:1025B0003FE1DECF14F0DDCF15F0D890143615369C
:1025C000D89014361536020EDB501424E96E030E33
:1025D000DB501520EA6ED890E936EA36AF0EE926D0
:1025E000010EEA22EECF12F0EFCF13F0010E122609
:1025F000000E1322DECF10F0DDCF11F0D890103690
:102600001136D89010361136020EDB501024E96EC8
:10261000030EDB501120EA6ED890E936EA36AF0E91
:10262000E926010EEA2212C0EEFF13C0EDFF1BD017
:10263000DECF10F0DDCF11F0D89010361136D890E3
:1026400010361136020EDB501024E96E030EDB50FB
:102650001120EA6ED890E936EA36AF0EE926010E6F
:10266000EA22EE6AED6A020EDB2A030E01E286D749
:10267000DB2A84D7DF2A010E01E265D7DB2A63D784
:10268000040EE15C02E2E16AE552E16EE552E7CF59
:10269000D9FF1200D9CFE6FFE1CFD9FF040EE12622
:1026A000DE6ADD6ADECF10F0DDCF11F0FD0EDBCF8C
:1026B00012F0FE0EDBCF13F011501318E8AE02D06B
:1026C000133404D01250105C135011581DE2020E46
:1026D000DB6A030EDB6A020EDBCF10F0030EDBCFEA
:1026E00011F0D890115004E6EE0E105C000E115857
:1026F00006E2020EDB2A030EEEE3DB2AECD7DF2A2A
:10270000010ED0E3DB2ACED7040EE15C02E2E16ADF
:10271000E552E16EE552E7CFD9FF1200D9CFE6FFCF
:10272000E1CFD9FF040EE126DE6ADD6ADECF10F0CC
:10273000DDCF11F0D890115004E6040E105C000EAD
:10274000115875E2DECFE9FFDDCFEAFFCF0EE926B3
:10275000010EEA22EF1C826E020EDB6A030EDB6AB8
:10276000020EDBCF10F0030EDBCF11F0D89011502A
:1027700004E6040E105C000E11584AE2DECF10F0A1
:10278000DDCF11F0D89010361136D89010361136B2
:10279000020EDB501024E96E030EDB501120EA6EAE
:1027A000D890E936EA36AF0EE926010EEA22EE6A43
:1027B000ED6A020EDBCFE9FF030EDBCFEAFFD30E9B
:1027C000E926010EEA22EF5082141CE1DECF10F060
:1027D000DDCF11F0D89010361136D8901036113662
:1027E000020EDB501024E96E030EDB501120EA6E5E
:1027F000D890E936EA36AF0EE926010EEA22010E3C
:10280000EE6EED6A020EDB2A030EAAE3DB2AA8D7DE
:102810008250816EE80EE66E030EE66E3BDFE552F7
:10282000E552DF2A010E01E281D7DB2A7FD7040EB1
:10283000E15C02E2E16AE552E16EE552E7CFD9FFE1
:02284000120084
:0E284200F28ED08EF28C1200F19CF292F2888F
:102850001200D8CFE4FFE0CFE4FFE46EDACFE4FF6C
:10286000E2CFDAFFE9CFE4FFEACFE4FFF6CFE4FFFF
:10287000F7CFE4FFF5CFE4FFF3CFE4FFF4CFE4FFBD
:10288000FACFE4FF00EE00F0100EE80403E3EECF11
:10289000E4FFFBD700EE10F00A0EE80403E3EECFEE
:1028A000E4FFFBD7E652F2A407D063EC10F0F294F9
:1028B00065EC10F00FEC12F09EA007D04EEC11F07A
:1028C0009E9008EC11F01DEC12F0A1A207D00DECC7
:1028D00012F0A192C7EC11F039EC12F0F2B2F292C0
:1028E0009EBA9E9AE55200EE19F00A0EE80403E340
:1028F000E5CFEDFFFBD700EE0FF0100EE80403E389
:10290000E5CFEDFFFBD7E5CFFAFFE5CFF4FFE5CF4D
:10291000F3FFE5CFF5FFE5CFF7FFE5CFF6FFE5CF16
:10292000EAFFE5CFE9FFE5CFDAFFE550E5CFE0FFCD
:10293000E5CFD8FF1000DACFE4FFE2CFDAFFE9CF2E
:10294000E4FFEACFE4FFF6CFE4FFF7CFE4FFF5CFF3
:10295000E4FFF3CFE4FFF4CFE4FFFACFE4FF00EEAF
:1029600000F0100EE80403E3EECFE4FFFBD700EE27
:1029700010F00A0EE80403E3EECFE4FFFBD7E652C3
:10298000F2A407D063EC10F0F29465EC10F00FECB9
:1029900012F09EA007D04EEC11F09E9008EC11F0C2
:1029A0001DEC12F0A1A207D00DEC12F0A192C7EC21
:1029B00011F039EC12F0F2B2F2929EBA9E9AE55200
:1029C00000EE19F00A0EE80403E3E5CFEDFFFBD7B4
:1029D00000EE0FF0100EE80403E3E5CFEDFFFBD7A8
:1029E000E5CFFAFFE5CFF4FFE5CFF3FFE5CFF5FF45
:1029F000E5CFF7FFE5CFF6FFE5CFEAFFE5CFE9FF4B
:062A0000E5CFDAFF110032
:0A2A060050415353574F52442057DC
:102A1000524F4E472020004F50454E494E472044CC
:102A20004F4F52202020200050415353574F5244C3
:102A30003A20004E4557205354543A200050572016
:102A4000464F52204D454D424552004348414E4766
:102A50004520414420505700322E44454C455445B2
:102A6000204D454D00312E414444204D454D00320E
:102A70002E4D414E414745204D454D00312E434896
:102A8000414E474520505700322E4F5054494F4E2B
:102A90005300315354204E554D2049532045525236
:102AA0004F52004E455720505720494E56414C49F1
:102AB00044004348414E47452053554343455353F3
:102AC000004348414E47452055534552205057003A
:102AD000322E4348414E474520505700312E4F502B
:102AE000454E20444F4F52002A0020003A005752D2
:102AF0004F4E472053545400454E54455220535492
:102B0000543A00454E5445522050570050524553B8
:102B100053204320544F0054413400544133005457
:0B2B20004132005441310054414D008F
:042B2C00006A0EAE7F
:102B30009FEF15F00D6C0E1EE86A0E22001E09AE06
:102B4000A7EF15F0086C091EE86A0922001EFDECCB
:102B500016F009BEB7EF15F000AE000C086C091EA8
:102B6000E86A0922046C051EE86A0522000C00BE12
:102B7000AEEF15F00188FF0C006A0EAEC7EF15F03E
:102B80000C6C0D1E0E1EE86A0D220E22001E09AEF0
:102B9000D1EF15F0076C081E091EE86A0822092209
:102BA000001EE0EC16F009BEE4EF15F000AE000CDC
:102BB000076C081E091EE86A08220922036C041E1D
:102BC000051E04220522000C00BED8EF15F0018876
:022BD000FF0CF8
:0E2BD2001E0EF66E000EF76E000EF86E00017D
:102BE0000900F550E66F0900F550E76F03E1E6676D
:102BF00001D03DD00900F550E16F0900F550E26FBA
:102C00000900F550E36F09000900F550E96E09006D
:102C1000F550EA6E090009000900F550E46F09005B
:102C2000F550E56F09000900F6CFE8F0F7CFE9F0BD
:102C3000F8CFEAF0E1C0F6FFE2C0F7FFE3C0F8FF2B
:102C40000001E45302E1E55307E00900F550EE6EA0
:102C5000E407F8E2E507F9D7E8C0F6FFE9C0F7FFB7
:102C6000EAC0F8FF0001E607000EE75BBFD71200DD
:102C7000D9CFE6FFDACFE6FFFA0EE3CFD9FFFB0E9E
:102C8000E3CFDAFFFC0EE3CFE9FFFD0EE3CFEAFF6F
:102C9000E9CFF3FFEACFF4FFE950D95CEA50DA5804
:102CA0000EE3F80EE35003E1F90EE35024E0F80ED2
:102CB000E30602E2F90EE306DECFEEFFF2D7F80EEE
:102CC000E350D926F90EE350DA22DD52F80EE35034
:102CD000E926F90EE350EA22ED52F80EE35003E143
:102CE000F90EE35008E0F80EE30602E2F90EE306FF
:102CF000DDCFEDFFF2D7FF0EE3CFDAFFE552FF0E97
:082D0000E3CFD9FFE5521200F8
:082D080006500B02F3CF02F0AC
:102D1000F4CF03F00C02F3500326000EF420046EEF
:102D200006500D02F3500426000EF420056E0650E6
:102D30000E02F350052607500B02F3500326F45001
:102D40000422000E052207500C02F3500426F45012
:102D5000052207500D02F350052608500B02F350D0
:102D60000426F450052208500C02F35005260950A1
:082D70000B02F35005261200CE
:082D7800056A046A036A026A9D
:102D8000200EE76ED890063607360836093602362A
:102D90000336043605360B50025C0C5003580D50B8
:102DA00004580E50055809E30B50025E0C50035AAC
:102DB0000D50045A0E50055A062AE72EE4D7120089
:102DC000056A046A036A180EE76ED890073608365B
:102DD00009360336043605360C50035C0D50045892
:102DE0000E50055807E30C50035E0D50045A0E5068
:0A2DF000055A072AE72EEAD7120061
:062DFA00056A046A100ED8
:102E0000E76ED89008360936043605360D50045C56
:102E10000E50055805E30D50045E0E50055A082A61
:062E2000E72EF0D71200BE
:0A2E2600800EF36E00EE00F00F0EB8
:102E300001D81200EA6002D0EE6AFCD7F350E960D4
:062E40001200EE6AFCD74F
:0A2E46001EEE00F02EEE00F0F86A18
:102E5000019CE9EC15F003EC00F02EEC00F0FBD740
:022E600012005E
:0E2E6200000000000000000000000000000062
:102E7000000000000000000000000100010001004F
:022E800001004F
:0E2E8200010204081020408000000000000043
:102E900000000102034104050642070809432A0015
:102EA0004544010203040506010708090907000358
:102EB00003030308000806080609000607080900BE
:102EC0000000010203040506272B01000107080981
:102ED0000907232B02000003030303081F2B030031
:102EE0000008060806091B2B040000060708090055
:102EF000172B000000000000000000000000000090
:102F000000000000000000000000000000000000C1
:102F100000000000000000000000000000000000B1
:102F20000000000000000000000000000500050097
:012F300000A0
:0F2F310000000000000000001010101010101021
:102F40001018181818181818181C1C1C1C1C1C1CED
:102F50001C1E1E1E1E1E1E1E1E1F1F1F1F1F1F1F8C
:102F60001F00000000000000000000000000000042
:102F70000000000000000000000000000000000051
:102F80000000000000000000000000000000000041
:022F900000003F
:0E2F9200000000000000000000000000000031
:102FA0000000000000000000000000000000000021
:0A2FB0000000102040800102040818
:020000040030CA
:0100010002FC
:0100020003FA
:010003001EDE
:010005008179
:010006008178
:010008000FE8
:01000900C036
:01000A000FE6
:01000B00E014
:01000C000FE4
:01000D0040B2
:00000001FF
