:020000040000FA
:06000000C9EF1AF0120026
:020006001200E6
:0600080006EF18F01200E3
:02000E000000F0
:020010000000EE
:0600180094EF17F0120046
:02001E000500DB
:10002000FD360000B2010000280000000E000000B4
:10003000F2000000040000009C3600008000000078
:1000400061000000EA35000000010000B20000007D
:0C005000CA350000DA01000020000000AA
:04005C00D9CFE6FF13
:10006000E1CFD9FF020EE126DE6ADD6A4ED801013A
:10007000E551FDE0E56B06EC16F09CD903EC11F0C0
:10008000F6D7D9CFE6FFE1CFD9FF040EE126DE6A2D
:10009000DD6ADECF10F0DDCF11F0FD0EDBCF12F008
:1000A000FE0EDBCF13F011501318E8AE02D013345C
:1000B00004D01250105C135011581DE2020EDB6A7E
:1000C000030EDB6A020EDBCF10F0030EDBCF11F064
:1000D000D890115004E6EE0E105C000E115806E2A6
:1000E000020EDB2A030EEEE3DB2AECD7DF2A010E39
:1000F000D0E3DB2ACED7040EE15C02E2E16AE552EE
:10010000E16EE552E7CFD9FF1200936A956A34ECAD
:100110000DF0D4EC10F08CEC17F0E80EE66E030E48
:10012000E66EAFDFE552E552570EE66E120EE66E52
:1001300074EC13F0E552E552AE0EE66E240EE66E58
:1001400016EC14F0E552E552660EE66EB70EE66E5A
:10015000D7EC14F0E552E552020EE66EE66AB2EC18
:1001600015F0E552E5520A0EE66EE66AC4EC15F0AB
:10017000E552E552320EE66EE66AE3EC15F0E55222
:10018000E55202EF16F0D9CFE6FFE1CFD9FFFE0E20
:10019000DBCF11F0800E11141AE1FD0EDBCF12F04F
:1001A000FE0EDBCF13F0133404E212500708000EEA
:1001B00013540DE3FD0EDBCFE9FFFE0EDBCFEAFFAC
:1001C000000EE926010EEA22EF508310836EE552FD
:1001D000E7CFD9FF1200D9CFE6FFE1CFD9FFFE0E5E
:1001E000DBCF11F0800E11141AE1FD0EDBCF12F0FF
:1001F000FE0EDBCF13F0133404E212500708000E9A
:1002000013540DE3FD0EDBCFE9FFFE0EDBCFEAFF5B
:10021000000EE926010EEA22EF1C8314836EE552DC
:10022000E7CFD9FF1200D9CFE6FFE1CFD9FFFD0E0E
:10023000DBCFE9FFFE0EDBCFEAFF080EE926010E59
:10024000EA22EF0415E1FD0EDBCFE6FFFE0EDBCF69
:10025000E6FFC1DFE552E552FD0EDBCFE9FFFE0E02
:10026000DBCFEAFF080EE926010EEA22EF6A15D07D
:10027000FD0EDBCFE6FFFE0EDBCFE6FF84DFE552AF
:10028000E552FD0EDBCFE9FFFE0EDBCFEAFF080EE5
:10029000E926010EEA22010EEF6EE552E7CFD9FF03
:1002A0001200D9CFE6FFE1CFD9FF020EE126DE6AC8
:1002B000DD6ADECF10F0DDCF11F0113404E2105012
:1002C0000708000E115421E3DECFE6FFDDCFE6FF85
:1002D0005ADFE552E552F40EE66E010EE66ED1DE0F
:1002E000E552E552DECFE6FFDDCFE6FF74DFE552F3
:1002F000E552F40EE66E010EE66EC3DEE552E552FF
:10030000DF2A010ED6E3DB2AD4D7020EE15C02E23B
:10031000E16AE552E16EE552E7CFD9FF1200D9CF8D
:10032000E6FFE1CFD9FF020EE126DE6ADD6ADE6A72
:10033000DD6ADECF10F0DDCF11F00101AA51105CB3
:10034000AB5111582BE2DECFE9FFDDCFEAFF0A0EF9
:10035000EA02F3CFEAFFE902F3CFE9FFF450EA261D
:100360003E0EE926010EEA22EECF10F0EFCF11F09B
:10037000FD0EDB5010180DE1FE0EDB50111809E1E7
:10038000DECF10F0DDCF11F010C0F3FF11C0F4FF8D
:1003900007D0DF2A010ECDE3DB2ACBD7F368F46860
:1003A000020EE15C02E2E16AE552E16EE552E7CF5E
:1003B000D9FF1200D9CFE6FFE1CFD9FF060EE12623
:1003C0000101A451040A02E140EF0BF0070A02E127
:1003D0002CEF0BF01C0A02E110EF0BF0010A02E116
:1003E0009EEF0AF0030A02E12EEF0AF00A0A02E188
:1003F000A4EF08F00F0A02E1C4EF07F00E0A02E1D1
:100400003FEF07F00A0A02E11CEF07F0050A02E1DC
:10041000E8EF06F0150A02E178EF06F0070A01E1BD
:10042000F8D31E0A01E1BFD3010A01E189D3130AFF
:1004300001E151D31C0A01E12AD3010A01E1F2D200
:10044000090A01E181D2190A01E10FD20C0A01E186
:10045000DAD1040A01E194D1030A01E1D3D0130AED
:1004600001E1BCD0030A01E1A4D0010A2CE0100A8A
:1004700002E052EF0BF0580EE66E320EE66EE66AC0
:10048000E66A49EC13F0E552E552E552E5524F0EAB
:10049000E66E320EE66EE66A010EE66E49EC13F089
:1004A000E552E552E552E552F6EC0BF0DEEC0BF0CE
:1004B000000902E152EF0BF00101A56BA76BA26BE3
:1004C000A36B100E97D1A72B440EE66E320EE66E8C
:1004D000E66AE66A49EC13F0E552E552E552E55268
:1004E0009DEC0BF0000941E0440E0001F15D14E1C8
:1004F0000101A651000837E20A0E0D6E0E6AA2C174
:1005000008F0A3C109F0A3EC1AF008C0A2F109C0D9
:10051000A3F10101A60727D00A0EF15D24E2420EE5
:10052000E66E320EE66EA6C1E6FF010EE66E49ECFF
:1005300013F0E552E552E552E552A2C110F0A3C115
:1005400011F00A0E1102F3CF11F01002F3CF10F0E8
:10055000F45011260001F1510101F324A26F000EA5
:100560001120A36FA62B0101A76B030E0101A65D4D
:1005700004E2DEEC0BF0000905E0E6EC0BF0010113
:10058000110EA46FD6EC0BF0000904E00101A46B7E
:10059000D4EC10F00101A751106E116AD8901150DF
:1005A00004E6580E105C020E115802E252EF0BF0F6
:1005B000E5D0A76BA2C1E6FFA3C1E6FFB0DEE5521E
:1005C000E552F3CFA8F1F4CFA9F10101F31C01E149
:1005D000A91D02E0010E0ED1120E0CD1A72B380E70
:1005E000E66E320EE66EE66AE66A49EC13F0E55214
:1005F000E552E552E5523C0E0101A75D02E252EFE1
:100600000BF0BCD04F0EE66E320EE66EE66AE66A7E
:1006100049EC13F0E552E552E552E552A8C1E9FF75
:10062000A9C1EAFF0A0EEA02F3CFEAFFE902F3CF1B
:10063000E9FFF450EA263E0EE926010EEA22EECF4B
:1006400010F0EFCF11F0126A136A10C0E6FF11C06C
:10065000E6FF12C0E6FF13C0E6FF0A0EE66EE66A8A
:1006600022EC12F0146E060EE15E1450360EE66EA9
:10067000320EE66E0B0EE66EE66A49EC13F0E552BA
:10068000E552E552E552A8C1E9FFA9C1EAFF0A0E09
:10069000EA02F3CFEAFFE902F3CFE9FFF450EA26DA
:1006A0003E0EE926010EEA22080EE926000EEA2295
:1006B000EECFE6FFEFCFE6FF0C0EE66EE66A49EC02
:1006C00013F0E552E552E552E5520101A72B9DECEE
:1006D0000BF0000935E0440E0001F15D14E1010169
:1006E000A55100082BE2A507340EE66E320EE66E29
:1006F000A5C1E6FF010EE66E49EC13F0E552E552A6
:10070000E552E5521BD00A0EF15D18E2420EE66E8C
:10071000320EE66EA5C1E6FF010EE66E49EC13F05F
:10072000E552E552E552E5520101A551EA6AEB0FA7
:10073000E96E000EEA22F1C0EFFFA52B0101A76BC5
:10074000060E0101A55D04E3020EA46FD4EC10F0C7
:100750000101A751106E116AD890115004E6580E8D
:10076000105C020E115803E3A46BD4EC10F0D6EC2D
:100770000BF0000902E152EF0BF00101A46B3BD03A
:10078000A76B5CEC0BF000093AE0A8C1E9FFA9C136
:10079000EAFF0A0EEA02F3CFEAFFE902F3CFE9FF2C
:1007A000F450EA263E0EE926010EEA22020EE92660
:1007B000000EEA22EF5003E10101060E1BD0A8C192
:1007C000E9FFA9C1EAFF0A0EEA02F3CFEAFFE90254
:1007D000F3CFE9FFF450EA263E0EE926010EEA22A5
:1007E000020EE926000EEA22EF0402E052EF0BF0BF
:1007F0000101070EA46FD4EC10F052EF0BF00101D1
:10080000040E09EF0BF0A72B280EE66E320EE66EF3
:10081000E66AE66A49EC13F0E552E552E552E55224
:100820001C0EE66E320EE66EE66A010EE66E49ECCE
:1008300013F0E552E552E552E552D6EC0BF0000913
:1008400004E00101A46BE6EC0BF0C6EC0BF0000930
:1008500005E00101030EA46FE6EC0BF0CEEC0BF00B
:10086000000902E152EF0BF032D1A72B0D0EE66E1C
:10087000320EE66EE66AE66A49EC13F0E552E5529E
:10088000E552E5529DEC0BF0000939E0440E000101
:10089000F15D14E10101A55100082FE2A507340E16
:1008A000E66E320EE66EA5C1E6FF010EE66E49EC7D
:1008B00013F0E552E552E552E5521FD00A0EF15D04
:1008C0001CE2060E0101A55D18E2420EE66E320E34
:1008D000E66EA5C1E6FF010EE66E49EC13F0E552A7
:1008E000E552E552E5520101A551EA6AEB0FE96EC6
:1008F000000EEA22F1C0EFFFA52B0101A76BDEEC91
:100900000BF0000908E0060E0101A55D04E3130EDB
:10091000A46FE6EC0BF0D6EC0BF0000905E001014A
:10092000060EA46FE6EC0BF00101A751106E116AE0
:10093000113402E352EF0BF010505808020E11541C
:1009400002E352EF0BF041D2A72B000EE66E320EFF
:10095000E66EE66AE66A49EC13F0E552E552E552C6
:10096000E5520101A7052AE1060EE66EE66AEB0EE6
:10097000E66E000EE66EA8C1E9FFA9C1EAFF0A0E05
:10098000EA02F3CFEAFFE902F3CFE9FFF450EA26E7
:100990003E0EE926010EEA22020EE926000EEA22A8
:1009A000E9CF10F0EACF11F0E9CFE6FFEACFE6FF9A
:1009B000DEEC19F0126E060EE15E12500101A75135
:1009C000320802E352EF0BF0A8C1E9FFA9C1EAFF28
:1009D0000A0EEA02F3CFEAFFE902F3CFE9FFF4508F
:1009E000EA263E0EE926010EEA22020EE926000E54
:1009F000EA22EF5003E01A0E09EF0BF0F10EE66E5B
:100A0000310EE66EE66AE66A49EC13F0E552E5520D
:100A1000E552E552DEEC0BF0000902E152EF0BF07B
:100A20000101D3D1A72BE20EE66E310EE66EE66A27
:100A3000E66A49EC13F0E552E552E552E552D10E73
:100A4000E66E310EE66EE66A010EE66E49EC13F0D4
:100A5000E552E552E552E552DEEC0BF0000905E007
:100A600001011B0EA46FE6EC0BF00101A751106E03
:100A7000116A113402E352EF0BF010505808020EC5
:100A8000115402E352EF0BF01B0E09EF0BF0A72BF2
:100A9000C20EE66E310EE66EE66AE66A49EC13F0C7
:100AA000E552E552E552E552B50EE66E310EE66EC0
:100AB000E66A010EE66E49EC13F0E552E552E552A6
:100AC000E552C6EC0BF0000902E152EF0BF0010118
:100AD0000A0E09EF0BF0A72B280EE66E320EE66E1B
:100AE000E66AE66A49EC13F0E552E552E552E55252
:100AF000AB0EE66E310EE66EE66A010EE66E49EC6E
:100B000013F0E552E552E552E552D6EC0BF0000940
:100B100004E00101A46BE6EC0BF0C6EC0BF000095D
:100B200005E00101030EA46FE6EC0BF0CEEC0BF038
:100B3000000902E152EF0BF00101140E09EF0BF076
:100B4000A72B9F0EE66E310EE66EE66AE66A49EC6A
:100B500013F0E552E552E552E552920EE66E310E83
:100B6000E66EE66A010EE66E49EC13F0E552E552D8
:100B7000E552E552D6EC0BF0000905E00101070E45
:100B8000A46FE6EC0BF0C6EC0BF0000905E00101E8
:100B90000B0EA46FE6EC0BF0CEEC0BF0000902E1BB
:100BA00052EF0BF0A0D2A72B880EE66E310EE66E48
:100BB000E66AE66A49EC13F0E552E552E552E55281
:100BC0007B0EE66E310EE66EE66A010EE66E49ECCD
:100BD00013F0E552E552E552E552D6EC0BF0000970
:100BE00005E00101140EA46FE6EC0BF0C6EC0BF06F
:100BF000000905E00101160EA46FE6EC0BF0CEEC47
:100C00000BF0000902E152EF0BF00101170E09EFA2
:100C10000BF0A72B6E0EE66E310EE66EE66AE66A04
:100C200049EC13F0E552E552E552E5529DEC0BF02C
:100C3000000939E0440E0001F15D14E10101A55104
:100C400000082FE2A507340EE66E320EE66EA5C14F
:100C5000E6FF010EE66E49EC13F0E552E552E5526F
:100C6000E5521FD00A0EF15D1CE2060E0101A55DE2
:100C700018E2420EE66E320EE66EA5C1E6FF010EE8
:100C8000E66E49EC13F0E552E552E552E5520101FA
:100C9000A551EA6AEB0FE96E000EEA22F1C0EFFF00
:100CA000A52B0101A76BDEEC0BF0000908E0060E96
:100CB0000101A55D04E30C0EA46FE6EC0BF0D6EC8D
:100CC0000BF0000905E00101070EA46FE6EC0BF044
:100CD0000101A751106E116A113402E352EF0BF0BB
:100CE00010505808020E115402E352EF0BF06DD071
:100CF000A72B000EE66E320EE66EE66AE66A49EC57
:100D000013F0E552E552E552E5520101A7052AE14B
:100D1000060EE66EE66AEB0EE66E000EE66EA8C103
:100D2000E9FFA9C1EAFF0A0EEA02F3CFEAFFE902EE
:100D3000F3CFE9FFF450EA263E0EE926010EEA223F
:100D4000020EE926000EEA22E9CF10F0EACF11F0F8
:100D5000E9CFE6FFEACFE6FFDEEC19F0126E060EF1
:100D6000E15E12500101A7513C0802E352EF0BF083
:100D7000A8C1E9FFA9C1EAFF0A0EEA02F3CFEAFF20
:100D8000E902F3CFE9FFF450EA263E0EE926010E10
:100D9000EA22020EE926000EEA22EF0403E0190E11
:100DA00009EF0BF0F10EE66E310EE66EE66AE66ACA
:100DB00049EC13F0E552E552E552E552DEEC0BF05A
:100DC000000902E152EF0BF00101A46B0AEF0BF0F6
:100DD000A72BE20EE66E310EE66EE66AE66A49EC95
:100DE00013F0E552E552E552E552D10EE66E310EB2
:100DF000E66EE66A010EE66E49EC13F0E552E55246
:100E0000E552E552DEEC0BF0000905E001011C0E95
:100E1000A46FE6EC0BF00101A751106E116A1134BA
:100E200002E352EF0BF010505808020E115402E387
:100E300052EF0BF01C0EEDD3A72BC20EE66E310E57
:100E4000E66EE66AE66A49EC13F0E552E552E552D1
:100E5000E552610EE66E310EE66EE66A010EE66E52
:100E600049EC13F0E552E552E552E552C6EC0BF0C1
:100E7000000902E152EF0BF001010B0ECAD3A72BC0
:100E8000530EE66E310EE66EE66AE66A49EC13F042
:100E9000E552E552E552E552ACC110F0ADC111F09A
:100EA000126A136AACC1E6FFADC1E6FF12C0E6FFED
:100EB00013C0E6FF0E0EE66EE66A22EC12F0146E28
:100EC000060EE15E14509DEC0BF0000939E0440E73
:100ED0000001F15D14E10101A55100082FE2A50711
:100EE000340EE66E320EE66EA5C1E6FF010EE66E2A
:100EF00049EC13F0E552E552E552E5521FD00A0ED7
:100F0000F15D1CE2060E0101A55D18E2420EE66EDF
:100F1000320EE66EA5C1E6FF010EE66E49EC13F057
:100F2000E552E552E552E5520101A551EA6AEB0F9F
:100F3000E96E000EEA22F1C0EFFFA52B0101A76BBD
:100F4000DEEC0BF0000908E0060E0101A55D04E3EC
:100F5000180EA46FE6EC0BF0D6EC0BF0000905E0E0
:100F60000101150EA46FE6EC0BF00101A751106E04
:100F7000116A113401E396D310505808020E11542F
:100F800001E390D3070E45D3A72B490EE66E310E31
:100F9000E66EE66AE66A49EC13F0E552E552E55280
:100FA000E5523E0EE66E310EE66EE66A010EE66E24
:100FB00049EC13F0E552E552E552E5520101A7056F
:100FC00001E093D00001EB5103E0EB0501E08BD091
:100FD000DE6ADD6AAAC1E9FFABC1EAFF0A0EEA02D6
:100FE000F3CFEAFFE902F3CFE9FFF450EA263E0E21
:100FF000E926010EEA22ACC1EEFFADC1EDFFDE6ACB
:10100000DD6ADECF10F0DDCF11F0D890115004E68C
:10101000060E105C000E115846E2DECFE9FFDDCF70
:10102000EAFFEB0EE926000EEA22EF50E66EAAC1B7
:10103000E9FFABC1EAFF0A0EEA02F3CFEAFFE902D9
:10104000F3CFE9FFF450EA263E0EE926010EEA222C
:10105000020EE926000EEA22DE50E924E96EDD5098
:10106000EA20EA6EE552E750EF6EDECFE9FFDDCF12
:10107000EAFFEB0EE926000EEA22EF50300FE66E93
:10108000DECF10F0DDCF11F00A0E1024E66E010E57
:10109000E66EF7EC11F0E552E552E552DF2A010E5B
:1010A000B0E3DB2AAED7AAC1E9FFABC1EAFF0A0E63
:1010B000EA02F3CFEAFFE902F3CFE9FFF450EA26B0
:1010C0003E0EE926010EEA22080EE926000EEA226B
:1010D0003A0EEE6E310EED6E0101AC2B000EAD231B
:1010E000AA2BAB2302D00101B7D1ACC110F0ADC126
:1010F00011F01006000E115A126A136A10C0E6FFB2
:1011000011C0E6FF12C0E6FF13C0E6FF090EE66E4F
:10111000E66A22EC12F0146E060EE15E14504EDB0D
:10112000000904E00101150EA46F50DB0101A75175
:10113000106E116A113401E3B5D210509008010EFF
:10114000115401E3AFD288D1A72BAF51E824106E20
:10115000AA51105C000EAB5501E38DD0020EDB6A84
:10116000030EDB6A360EE66E310EE66EE66AE66A5E
:1011700049EC13F0E552E552E552E5520101AF5159
:10118000E8240A0DF3CFE9FFF4CFEAFF3E0EE9268B
:10119000010EEA22EECF10F0EFCF11F0126A136ABF
:1011A00010C0E6FF11C0E6FF12C0E6FF13C0E6FF65
:1011B000030EE66EE66A22EC12F0146E060EE15E95
:1011C0001450020EDB6A030EDB6A020EDBCF10F056
:1011D000030EDBCF11F0D890115004E6060E105C20
:1011E000000E115848E20101AF51E8240A0DF3CF77
:1011F000E9FFF4CFEAFF3E0EE926010EEA22020ED5
:10120000E926000EEA22E9CF10F0EACF11F0020E33
:10121000DB50E924E96E030EDB50EA20EA6EEF5062
:10122000E66E020EDBCFE9FF030EDBCFEAFFEB0E2B
:10123000E926000EEA22E552E750EF6E020EDBCF00
:10124000E9FF030EDBCFEAFFEB0EE926000EEA22F0
:10125000EF50300FE66E020EDBCFE6FF010EE66EBA
:10126000F7EC11F0E552E552E552020EDB2A030ECF
:10127000ACE3DB2AAAD70101AF51E824010F106EBD
:10128000AA51105C000EAB5501E392D0040EDB6A4C
:10129000050EDB6A320EE66E310EE66E0A0EE66E63
:1012A000E66A49EC13F0E552E552E552E5520101D8
:1012B000AF51E824010F0A0DF3CFE9FFF4CFEAFFA5
:1012C0003E0EE926010EEA22EECF10F0EFCF11F02C
:1012D000126A136A10C0E6FF11C0E6FF12C0E6FFF3
:1012E00013C0E6FF0D0EE66EE66A22EC12F0146EF5
:1012F000060EE15E1450040EDB6A050EDB6A040E76
:10130000DBCF10F0050EDBCF11F0D890115004E6C2
:10131000060E105C000E11584BE20101AF51E8249B
:10132000010F0A0DF3CFE9FFF4CFEAFF3E0EE926E5
:10133000010EEA22020EE926000EEA22040EDB501C
:10134000E924E96E050EDB50EA20EA6EEF50E66E06
:10135000040EDBCFE9FF050EDBCFEAFFEB0EE9263B
:10136000000EEA22E552E750EF6E040EDBCFE9FFF4
:10137000050EDBCFEAFFEB0EE926000EEA22EF5066
:10138000300FE66E040EDBCF10F0050EDBCF11F050
:101390000A0E1024E66E010EE66EF7EC11F0E5522F
:1013A000E552E552040EDB2A050EA9E3DB2AA7D796
:1013B00005DA00090EE00101AF29106EAEC10EF092
:1013C000096ED7EC1AF005C0AFF1D4EC10F00101B2
:1013D000A76BECD9000904E00101150EA46FF6D942
:1013E000ACD900092CE00001F1050CE10101AF517D
:1013F000E824106EAA51105C000EAB5503E2AF5109
:10140000E82414D0020E0001F15D0EE10101AF519C
:10141000E824010F106EAA51105C000EAB5504E2D7
:10142000AF51E824010F02D001010F0EB06F0F0E73
:10143000B05D03E01D0EA46FC9D90101A76B0101C6
:10144000A751106E116A113401E32CD110505808C5
:10145000020E115401E326D1150EDBD0A72B270E67
:10146000E66E310EE66EE66AE66A49EC13F0E55286
:10147000E552E552E5520101B0510A0DF3CFE9FF03
:10148000F4CFEAFF3E0EE926010EEA22EECF10F07D
:10149000EFCF11F0126A136A10C0E6FF11C0E6FF29
:1014A00012C0E6FF13C0E6FF0B0EE66EE66A22EC02
:1014B00012F0146E060EE15E14503F0EE66E0F0E33
:1014C000E66EE66AF7EC11F0E552E552E552210EC0
:1014D000E66E310EE66EE66A010EE66E49EC13F03A
:1014E000E552E552E552E5521C0EE66E310EE66E0F
:1014F000080EE66E010EE66E49EC13F0E552E55279
:10150000E552E5525BD9000904E060D901011E0EE5
:10151000A46F4CD9000904E059D90101170EA46F3A
:101520000101A751106E116A113401E3BBD01050B4
:101530005808020E115401E3B5D089D0A72B0C0E28
:10154000E66E310EE66EE66AE66A49EC13F0E552A5
:10155000E552E552E5520101A7055EE1B0510A0DE1
:10156000F3CFE9FFF4CFEAFF3E0EE926010EEA22AF
:10157000020EE926000EEA22EF044AE0B051126E94
:10158000136A1250AA5D106E1350AB59116E1006FB
:10159000000E115A0A0E1102F3CF11F01002F3CF10
:1015A00010F0F4501126F3CFE6FF11C0E6FFB05162
:1015B0000A0DF3CF14F0F4CF15F03E0E1426010EF1
:1015C00015220A0E1426000E152214C0E6FF15C0BF
:1015D000E6FFB0510A0DF3CF16F0F4CF17F03E0E30
:1015E0001626010E172216C0E6FF17C0E6FFDEEC36
:1015F00019F0186E060EE15E18500101000ED88039
:10160000AA55000EAB5508E2AA07000EAB5B04D04A
:101610001F0EA46FDBD846D0A751280843E217D08D
:10162000FE0EE66E300EE66EE66AE66A49EC13F0F0
:10163000E552E552E552E552C1D8000904E0010146
:10164000140EA46FC3D80101A75128082BE2BED8FD
:101650000101150EA46F26D0A72BED0EE66E300EFD
:10166000E66EE66AE66A49EC13F0E552E552E552A9
:10167000E552B4D8640E0101A75D14E3A46B12D047
:10168000A72BDC0EE66E300EE66EE66AE66A49ECE3
:1016900013F0E552E552E552E552280E0101A75D2F
:1016A00001E3A46B060EE15C02E2E16AE552E16E41
:1016B000E552E7CFD9FF1200D9CFE6FFE1CFD9FF3E
:1016C000020EE126DF6A060EDF5C2AE2A8C1E9FF0E
:1016D000A9C1EAFF0A0EEA02F3CFEAFFE902F3CF5B
:1016E000E9FFF450EA263E0EE926010EEA22020E38
:1016F000E926000EEA22DF50E924E96E000EEA2016
:10170000EA6EEFCF10F0DF50EA6AEB0FE96E000EE1
:10171000EA22EF50105C02E0000E03D0DF2AD3D79C
:10172000010E106E020EE15C02E2E16AE552E16E2A
:101730001050E552E7CFD9FF1200D9CFE6FFE1CF35
:10174000D9FFE652DF6ADF500F081AE3EA6ADF3496
:10175000FE0BEA36E96EB20EE926010EEA22010E10
:10176000EE180CE1ED500AE1DF50EA6A100FE96E65
:10177000010EEA22EFCFF1F0010E03D0DF2AE3D70A
:10178000000EE552E552E7CFD9FF12000101010E2C
:10179000B21903E1B35101E1010C000C0101010E8A
:1017A000B41903E1B55101E1010C000C0101010E76
:1017B000C01903E1C15101E1010C000C0101010E4E
:1017C000C81903E1C95101E1010C000CD4EC10F07F
:1017D0000101A76BA56BA66BAF6B1200000EE66E46
:1017E000E66AC3EC00F0E552E5521200000EE66E28
:1017F000E66AEBEC00F0E552E5521200D9CFE6FFC5
:10180000E1CFD9FF020EE126DE6ADD6ADE6ADD6A1B
:10181000DECF10F0DDCF11F0D890115004E6100E9D
:10182000105C000E115846E2DECFE9FFDDCFEAFF83
:10183000D890E936EA36B20EE926010EEA22000E09
:10184000D880EE54000EED5423E2DECFE9FFDDCF69
:10185000EAFFD890E936EA36B20EE926010EEA220E
:10186000EECF10F0EFCF11F0126A136A10C0E6FF4E
:1018700011C0E6FF12C0E6FF13C0E6FFDFCFE6FFB0
:10188000E66A22EC12F0146E060EE15E14500DD0E2
:10189000E66AE66AE66AE66ADFCFE6FFE66A22EC17
:1018A00012F0106E060EE15E1050DF2A010EB0E35A
:1018B000DB2AAED7020EE15C02E2E16AE552E16E9C
:0818C000E552E7CFD9FF120049
:0818C800D9CFE6FFE1CFD9FF03
:1018D000040EE126DE6ADD6ADECF10F0DDCF11F006
:1018E000126A136A11AE02D012681368D950FB0F46
:1018F000E96EFF0EDA20EA6EEE50105CEE501158E1
:10190000EE501258EE5013581DE2020EDB6A030E21
:10191000DB6A020EDBCF10F0030EDBCF11F0D890A4
:10192000115004E6050E105C000E115806E2020E7E
:10193000DB2A030EEEE3DB2AECD7DF2A010ECCE331
:10194000DB2ACAD7040EE15C02E2E16AE552E16EED
:10195000E552E7CFD9FF1200D9CFE6FFE1CFD9FF9B
:10196000040EE126DE6ADD6ADECF10F0DDCF11F075
:10197000126A136A11AE02D012681368D950FB0FB5
:10198000E96EFF0EDA20EA6EEE50105CEE50115850
:10199000EE501258EE5013581DE2020EDB6A030E91
:1019A000DB6A020EDBCF10F0030EDBCF11F0D89014
:1019B000115004E6EE0E105C000E115806E2020E05
:1019C000DB2A030EEEE3DB2AECD7DF2A010ECCE3A1
:1019D000DB2ACAD7040EE15C02E2E16AE552E16E5D
:1019E000E552E7CFD9FF1200D9CFE6FFE1CFD9FF0B
:1019F0000F0E8116FE0EDB50F00B81128186010E58
:101A0000E66EE66AE66AE66AA7DFE552E552E55267
:101A1000E5528196010EE66EE66AE66AE66A9CDFAA
:101A2000E552E552E552E5520F0E8116FE0EDB3807
:101A3000F00B81128186010EE66EE66AE66AE66ABE
:101A40008BDFE552E552E552E5528196010EE66ED6
:101A5000E66AE66AE66A80DFE552E552E552E5525B
:101A6000E552E7CFD9FF1200D9CFE6FFE1CFD9FF8A
:101A7000E652190EE66EE66AE66AE66A6DDFE55240
:101A8000E552E552E5520F0E8116F80E81160F0E43
:101A90008116300E81128186010EE66EE66AE66AD4
:101AA000E66A5ADFE552E552E552E5528196010EAB
:101AB000E66EE66AE66AE66A4FDFE552E552E5520F
:101AC000E5520F0E8116300E81128186010EE66EF0
:101AD000E66AE66AE66A40DFE552E552E552E5521B
:101AE0008196010EE66EE66AE66AE66A35DFE55241
:101AF000E552E552E5520F0E8116300E81128186B5
:101B0000010EE66EE66AE66AE66A26DFE552E5520F
:101B1000E552E5528196010EE66EE66AE66AE66AED
:101B20001BDFE552E552E552E5520F0E8116818A20
:101B30008186010EE66EE66AE66AE66A0DDFE55228
:101B4000E552E552E5528196010EE66EE66AE66AD6
:101B5000E66A02DFE552E552E552E552280EE66EEE
:101B600043DFE5520C0EE66E3FDFE552E552E552EB
:101B7000E7CFD9FF1200D9CFE6FFE1CFD9FF020EA0
:101B8000E126DF6A010EDB6A81940F0EE66EE66ADB
:101B9000E66AE66A99DEE552E552E552E5520F0E35
:101BA00081128186E66EE66AE66AE66A8DDEE552B5
:101BB000E552E552E5520F0E8114E76E010EE7CFB4
:101BC000DBFF81960F0EE66EE66AE66AE66A7CDE69
:101BD000E552E552E552E5520F0E81128186E66E1E
:101BE000E66AE66AE66A70DEE552E552E552E552DB
:101BF0000F0E8114DF6E010EDB50DF128196010E95
:101C0000E66EE66AE66AE66A5FDEE552E552E552AE
:101C1000E552DF50106E020EE15C02E2E16AE5522D
:101C2000E16E1050E552E7CFD9FF1200D9CFE6FFA1
:101C3000E1CFD9FFE652DF6A9EDFDF6EDFBEFCD761
:101C4000DF50E552E552E7CFD9FF1200D9CFE6FFCA
:101C5000E1CFD9FF0F0E8116FE0EDB508112818677
:101C6000050EE66EE66AE66AE66A2EDEE552E552A3
:101C7000E552E5528196050EE66EE66AE66AE66A88
:101C800023DEE552E552E552E552E552E7CFD9FFB2
:101C90001200D9CFE6FFE1CFD9FF8194050EE66EA1
:101CA000E66AE66AE66A10DEE552E552E552E5527A
:101CB000FE0EDBCFE6FFCADFE552FE0EDB38F00B8F
:101CC000E66EC4DFE552E552E7CFD9FF1200D9CF67
:101CD000E6FFE1CFD9FF8184050EE66EE66AE66A8B
:101CE000E66AF2DDE552E552E552E552FE0EDBCF43
:101CF000E6FFACDFE552FE0EDB38F00BE66EA6DF4A
:101D0000E5528194E552E7CFD9FF1200D9CFE6FF23
:101D1000E1CFD9FFFE0EDBCFE6FFD9DFE552E5527A
:101D2000E7CFD9FF1200D9CFE6FFE1CFD9FFFE0EF2
:101D3000DBCFE6FFCCDFE552E552E7CFD9FF12005B
:101D4000D9CFE6FFE1CFD9FFFD0EDBCFF6FFFE0EC8
:101D5000DBCFF7FF0800F5500FE0FD0EDBCFF6FFFD
:101D6000DB2AFE0EDBCFF7FF01E3DB2A0800F5508C
:101D7000E66ED9DFE552E8D7E552E7CFD9FF12008A
:101D8000D9CFE6FFE1CFD9FFE652FD0EDB500F0BB6
:101D9000106EFE0EDB50010B400DF3501024DF6E71
:101DA0007F0EDF14800FDF6EDFCFE6FF72DFE552BC
:101DB000E552E552E7CFD9FF1200010EE66E69DF6A
:101DC000E552E66AE66ADCDFE552E5521200D9CF59
:101DD000E6FFE1CFD9FF050EE126010EF36EDB6EC3
:101DE000020EDB6A030EDB6A040EDB6ADF6ADFCFFA
:101DF00010F0116A10BE1168FB0EDBCF12F0FC0E62
:101E0000DBCF13F011501318E8AE02D0133404D016
:101E10001250105C135011582DE2FD0EDBCF10F064
:101E2000FE0EDBCF11F0126A136A11AE02D01268F7
:101E30001368D950010FE96EDACFEAFF10C00BF03A
:101E400011C00CF012C00DF013C00EF0EECF06F072
:101E5000EECF07F0EECF08F0EFCF09F02AEC1AF042
:101E600005C0EDFF04C0EDFF03C0EDFF02C0EFFFB2
:101E7000DF2ABDD7010EDBCF10F0020EDBCF11F051
:101E8000030EDBCF12F0040EDBCF13F010C006F010
:101E900011C007F012C008F013C009F0050EE15C94
:101EA00002E2E16AE552E16EE552E7CFD9FF1200A6
:101EB000D9CFE6FFE1CFD9FF020EE126DF6AFB0EA4
:101EC000DBCF10F0FC0EDBCF11F0FD0EDBCF12F0FC
:101ED000FE0EDBCF13F0105011101210131005E19D
:101EE000300EE66E20DFE552F4D0D950FB0FE96EDC
:101EF000FF0EDA20EA6ED890030EEB50000A08E6D7
:101F0000000EEE5C000EEE58000EEE58000EEE587D
:101F100015E22D0EE66E07DFE552D950FB0FE96E94
:101F2000FF0EDA20EA6E000EEE6CEF1EEE22EF1EC0
:101F3000EE22EF1EEF22ED52ED52ED52DE52070E71
:101F4000DD6E010EDBCF10F0000EE76E1018E8AE6C
:101F500002D0103403D0E750D880105401E3B9D038
:101F6000010EDB04146E156A14BE156814C0E6FF7A
:101F700015C0E6FF0A0EE66EE66A29DFE552E55275
:101F8000E552E55206C010F007C011F008C012F08B
:101F900009C013F006C00BF007C00CF008C00DF02C
:101FA00009C00EF0FB0EDBCF06F0FC0EDBCF07F016
:101FB000FD0EDBCF08F0FE0EDBCF09F062EC1AF06D
:101FC000065007100810091041E0010EDF6EDB0417
:101FD000186E196A18BE196818C0E6FF19C0E6FF26
:101FE0000A0EE66EE66AF3DEE552E552E552E55288
:101FF00006C014F007C015F008C016F009C017F0AD
:1020000006C00BF007C00CF008C00DF009C00EF0C0
:10201000FB0EDBCF06F0FC0EDBCF07F0FD0EDBCFB7
:1020200008F0FE0EDBCF09F062EC1AF006C010F0EB
:1020300007C011F008C012F009C013F0300E1026CE
:10204000000E112212221322105003D0DF5004E0A0
:10205000300EE66E68DEE552010EDB04146E156A82
:1020600014BE156814C0E6FF15C0E6FF0A0EE66E42
:10207000E66AADDEE552E552E552E55206C010F0E3
:1020800007C011F008C012F009C013F0D950FB0FBF
:10209000E96EFF0EDA20EA6E06C00BF007C00CF006
:1020A00008C00DF009C00EF0EECF06F0EECF07F03D
:1020B000EECF08F0EFCF09F062EC1AF005C0EDFFAB
:1020C00004C0EDFF03C0EDFF02C0EFFF010EDB0611
:1020D00038D7020EE15C02E2E16AE552E16EE552B8
:1020E000E7CFD9FF1200D9CFE6FFE1CFD9FFFD0E30
:1020F000DBCFE6FFFE0EDBCFE6FF42DEE552E55228
:10210000D950F90FE96EFF0EDA20EA6EEECFE6FF46
:10211000EECFE6FFEECFE6FFEFCFE6FFC9DEE552FA
:10212000E552E552E552E552E7CFD9FF1200D9CF8B
:10213000E6FFE1CFD9FFFD0EDBCFE6FFFE0EDBCFE2
:10214000E6FF1EDEE552E552FB0EDBCFE6FFFC0E9E
:10215000DBCFE6FFF5DDE552E552E552E7CFD9FFEB
:102160001200D9CFE6FFE1CFD9FFFAC110F0FBC1D1
:1021700011F0040ED89010361136E806FBE1C10EBE
:102180001026000E112210500101FC25E96E11509D
:10219000FD21EA6EFE0EDBCFEFFFFC2B000EFD23D0
:1021A000E552E7CFD9FF1200D9CFE6FFE1CFD9FF43
:1021B000E652DF6ADFCF10F0100EE76E1018E8AEBF
:1021C00002D0E73402D0E750105C18E2DFCFE9FF1D
:1021D000EA6AE9BEEA68C10EE926000EEA22200E8C
:1021E000EF6EDFCFE9FFEA6AE9BEEA68D10EE926C1
:1021F000000EEA22200EEF6EDF2ADCD7E552E55210
:10220000E7CFD9FF1200D9CFE6FFE1CFD9FFE652E1
:102210000001C051030A52E0010A36E0030A1AE045
:10222000010A67E1E66AE66AABDDE552E552DF6A7C
:10223000080EDF5C0CE2DF50EA6AC10FE96E000EA7
:10224000EA22EF50E66E6FDDE552DF2AF1D700019A
:10225000010E32D0080EE66EE66A92DDE552E552D6
:10226000DF6A080EDF5C0DE2080EDF24EA6AC10FA8
:10227000E96E000EEA22EF50E66E55DDE552DF2AE8
:10228000F0D70001020E18D0E66A010EE66E78DD86
:10229000E552E552DF6A080EDF5C0CE2DF50EA6AC5
:1022A000D10FE96E000EEA22EF50E66E3CDDE552FA
:1022B000DF2AF1D70001030EC06F1CD0080EE66EB6
:1022C000010EE66E5DDDE552E552DF6A080EDF5C69
:1022D0000DE2080EDF24EA6AD10FE96E000EEA2251
:1022E000EF50E66E20DDE552DF2AF0D70001C06B2B
:1022F00001D0C06BE552E552E7CFD9FF1200D9CF2C
:10230000E6FFE1CFD9FFE6520001C051010A1BE010
:10231000010A32E1E66AE66A33DDE552E552DF6A38
:10232000100EDF5C0CE2DF50EA6AC10FE96E000EAE
:10233000EA22EF50E66EF7DCE552DF2AF1D7000122
:10234000010EC06F1AD0E66A010EE66E19DDE55285
:10235000E552DF6A100EDF5C0CE2DF50EA6AD10F53
:10236000E96E000EEA22EF50E66EDDDCE552DF2A70
:10237000F1D70001C06B01D0C06BE552E552E7CF49
:10238000D9FF1200D9CFE6FFE1CFD9FFE652E66AC6
:10239000E66AF6DCE552E552DF6A100EDF5C0CE21D
:1023A000DF50EA6AC10FE96E000EEA22EF50E66ED6
:1023B000BADCE552DF2AF1D7E66A010EE66EE0DC10
:1023C000E552E552DF6A100EDF5C0CE2DF50EA6A8C
:1023D000D10FE96E000EEA22EF50E66EA4DCE55262
:1023E000DF2AF1D7E552E552E7CFD9FF1200D9CF66
:1023F000E6FFE1CFD9FFFE0EDB50010B0101FA6FC2
:10240000FB6BFD0EDB500F0BFC6FFD6BFAC110F088
:10241000FBC111F0040ED89010361136E806FBE12E
:10242000C10E1026000E112210500101FC25E96E8C
:102430001150FD21EA6EFC0EDBCFEFFFE552E7CF36
:10244000D9FF1200D9CFE6FFE1CFD9FF020EE12676
:10245000DF6AFE0EDB50010B0101FA6FFB6BFD0E14
:10246000DB500F0BFC6FFD6BF90EDBCF10F0FA0E9B
:10247000DBCF11F0FB0EDBCF12F0FC0EDBCF13F045
:10248000105011101210131005E1300EE66E69DEC7
:10249000E552F5D0D950F90FE96EFF0EDA20EA6E59
:1024A000D890030EEB50000A08E6000EEE5C000E1A
:1024B000EE58000EEE58000EEE5815E22D0EE66EA8
:1024C00050DEE552D950F90FE96EFF0EDA20EA6EC0
:1024D000000EEE6CEF1EEE22EF1EEE22EF1EEF223C
:1024E000ED52ED52ED52DE52070EDD6E010EDBCFE6
:1024F00010F0000EE76E1018E8AE02D0103403D0D2
:10250000E750D880105401E3BAD0010EDB04146EFA
:10251000156A14BE156814C0E6FF15C0E6FF0A0E62
:10252000E66EE66A54DCE552E552E552E55206C035
:1025300010F007C011F008C012F009C013F006C077
:102540000BF007C00CF008C00DF009C00EF0F90E3A
:10255000DBCF06F0FA0EDBCF07F0FB0EDBCF08F087
:10256000FC0EDBCF09F062EC1AF0065007100810E1
:10257000091041E0010EDF6EDB04186E196A18BE07
:10258000196818C0E6FF19C0E6FF0A0EE66EE66A93
:102590001EDCE552E552E552E55206C014F007C0D4
:1025A00015F008C016F009C017F006C00BF007C000
:1025B0000CF008C00DF009C00EF0F90EDBCF06F0EC
:1025C000FA0EDBCF07F0FB0EDBCF08F0FC0EDBCF03
:1025D00009F062EC1AF006C010F007C011F008C054
:1025E00012F009C013F0300E1026000E1122122234
:1025F0001322105003D0DF5004E0300EE66EB1DD40
:10260000E552010EDB04146E156A14BE156814C081
:10261000E6FF15C0E6FF0A0EE66EE66AE7EC0EF08E
:10262000E552E552E552E55206C010F007C011F040
:1026300008C012F009C013F0D950F90FE96EFF0E6F
:10264000DA20EA6E06C00BF007C00CF008C00DF0EF
:1026500009C00EF0EECF06F0EECF07F0EECF08F097
:10266000EFCF09F062EC1AF005C0EDFF04C0EDFFFA
:1026700003C0EDFF02C0EFFF010EDB0637D7020EED
:10268000E15C02E2E16AE552E16EE552E7CFD9FF93
:102690001200D9CFE6FFE1CFD9FFFE0EDB50010BD0
:1026A0000101FA6FFB6BFD0EDB500F0BFC6FFD6B36
:1026B000FB0EDBCFF6FFFC0EDBCFF7FF0800F5507B
:1026C0000FE0FB0EDBCFF6FFDB2AFC0EDBCFF7FFC4
:1026D00001E3DB2A0800F550E66E43DDE552E8D75A
:0826E000E552E7CFD9FF12001B
:0826E800D9CFE6FFE1CFD9FFD5
:1026F000D59EFD0EDBCFDAF1FE0EDBCFDBF1D59CF4
:1027000013681468156ADAC116F0DBC117F0186A8D
:102710001650135C106E17501458116E185015583F
:10272000126E0C6A010E0D6E0E6A10C007F011C019
:1027300008F012C009F062EC19F00350D66E13686D
:102740001468156ADAC116F0DBC117F0186A165062
:10275000135C106E17501458116E18501558126EE5
:102760000C6A010E0D6E0E6A10C007F011C008F061
:1027700012C009F062EC19F007C010F008C011F0A7
:1027800009C012F00750D76ED59AD586F28AF29416
:10279000F184D58EE552E7CFD9FF1200D59E120005
:1027A00013681468156ADAC116F0DBC117F0186AED
:1027B0001650135C106E17501458116E185015589F
:1027C000126E0C6A010E0D6E0E6A10C007F011C079
:1027D00008F012C009F062EC19F00350D66E1368CD
:1027E0001468156ADAC116F0DBC117F0186A1650C2
:1027F000135C106E17501458116E18501558126E45
:102800000C6A010E0D6E0E6A10C007F011C008F0C0
:1028100012C009F062EC19F007C010F008C011F006
:1028200009C012F00750D76ED58E1200D9CFE6FF3F
:10283000E1CFD9FFCD90FD0EDBCFDCF1FE0EDBCF7B
:10284000DDF113681468156ADCC116F0DDC117F0FC
:10285000186A1650135C106E17501458116E1850E9
:102860001558126E0C6A010E0D6E0E6A10C007F03C
:1028700011C008F012C009F062EC19F00750CF6ED9
:1028800013681468156ADCC116F0DDC117F0186A08
:102890001650135C106E17501458116E18501558BE
:1028A000126E0C6A010E0D6E0E6A10C007F011C098
:1028B00008F012C009F062EC19F003C010F004C077
:1028C00011F005C012F00350CE6E9D809E909F9037
:1028D000CD8ECD8CCD98CD9ACD96CD92CD80E55232
:1028E000E7CFD9FF120013681468156ADCC116F02F
:1028F000DDC117F0186A1650135C106E175014588B
:10290000116E18501558126E0C6A010E0D6E0E6A7B
:1029100010C007F011C008F012C009F062EC19F005
:102920000750CF6E13681468156ADCC116F0DDC15C
:1029300017F0186A1650135C106E17501458116E69
:1029400018501558126E0C6A010E0D6E0E6A10C0EA
:1029500007F011C008F012C009F062EC19F003C0D2
:1029600010F004C011F005C012F00350CE6ECD80FF
:102970001200CD901200D9CFE6FFE1CFD9FFCA9463
:10298000CC6AFE0EDB500101DE6FDF6BCB6E9D82E9
:102990009E929F92CA90CA92CA84E552E7CFD9FF0D
:1029A0001200DEC1CBFFCA841200CA941200D9CF34
:1029B000E6FFE1CFD9FFB190FD0EDBCFE0F1FE0ED7
:1029C000DBCFE1F113681468156AE0C116F0E1C1CC
:1029D00017F0186A1650135C106E17501458116EC9
:1029E00018501558126E0C6A010E0D6E0E6A10C04A
:1029F00007F011C008F012C009F062EC19F007509E
:102A0000B36E13681468156AE0C116F0E1C117F0DF
:102A1000186A1650135C106E17501458116E185027
:102A20001558126E0C6A010E0D6E0E6A10C007F07A
:102A300011C008F012C009F062EC19F003C010F0E8
:102A400004C011F005C012F00350B26EA082A19232
:102A5000A292B18EB198B19AB192B180E552E7CF0E
:102A6000D9FF120013681468156AE0C116F0E1C1BD
:102A700017F0186A1650135C106E17501458116E28
:102A800018501558126E0C6A010E0D6E0E6A10C0A9
:102A900007F011C008F012C009F062EC19F0035001
:102AA000B26E13681468156AE0C116F0E1C117F040
:102AB000186A1650135C106E17501458116E185087
:102AC0001558126E0C6A010E0D6E0E6A10C007F0DA
:102AD00011C008F012C009F062EC19F007C010F044
:102AE00008C011F009C012F00750B36EB180120097
:102AF000B19012000101EA2B000EEB23F251EA5DC6
:102B0000F351EB5904E3EA6BEB6B010EE26F120039
:102B10000101EC2B000EED23F451EC5DF551ED5964
:102B200004E3EC6BED6B010EE36F12000101EE2B81
:102B3000000EEF23F651EE5DF751EF5904E3EE6B13
:102B4000EF6B010EE46F12000101F02B000EF12378
:102B5000F851F05DF951F15904E3F06BF16B010E9E
:102B6000E56F1200D9CFE6FFE1CFD9FFFD0EDBCF35
:102B7000F2F1FE0EDBCFF3F10101EA6BEB6BE26BDE
:102B8000E552E7CFD9FF1200D9CFE6FFE1CFD9FF59
:102B9000FD0EDBCFF4F1FE0EDBCFF5F1050E0D6E71
:102BA0000E6AF4C108F0F5C109F03CEC19F008C058
:102BB000F4F109C0F5F10101EC6BED6BE36BE5524B
:102BC000E7CFD9FF1200D9CFE6FFE1CFD9FFFD0E45
:102BD000DBCFF8F1FE0EDBCFF9F10A0E0D6E0E6AB7
:102BE000F8C108F0F9C109F03CEC19F008C0F8F19F
:102BF00009C0F9F10101F06BF16BE56BE552E7CF2C
:042C0000D9FF1200E6
:0C2C04000F0E946E82681200D9CFE6FF1C
:102C1000E1CFD9FF040EE126DE6ADD6ADECF10F0D7
:102C2000DDCF11F0D890115004E6040E105C000EB8
:102C3000115801E390D0DECFE9FFDDCFEAFFD20EDD
:102C4000E926010EEA22EF1C826E020EDB6A030EF9
:102C5000DB6A020EDBCF10F0030EDBCF11F0D89051
:102C6000115004E6040E105C000E11586EE2020EC4
:102C7000DBCFE9FF030EDBCFEAFFD60EE926010E1C
:102C8000EA22EF5082143FE1DECF14F0DDCF15F0E1
:102C9000D89014361536D89014361536020EDB50FF
:102CA0001424E96E030EDB501520EA6ED890E93645
:102CB000EA36B20EE926010EEA22EECF12F0EFCF8D
:102CC00013F0010E1226000E1322DECF10F0DDCF1E
:102CD00011F0D89010361136D89010361136020EF9
:102CE000DB501024E96E030EDB501120EA6ED89001
:102CF000E936EA36B20EE926010EEA2212C0EEFFEC
:102D000013C0EDFF1BD0DECF10F0DDCF11F0D89057
:102D100010361136D89010361136020EDB501024C2
:102D2000E96E030EDB501120EA6ED890E936EA36E0
:102D3000B20EE926010EEA22EE6AED6A020EDB2AE5
:102D4000030E01E286D7DB2A84D7DF2A010E01E2D7
:102D500065D7DB2A63D7040EE15C02E2E16AE55243
:102D6000E16EE552E7CFD9FF1200D9CFE6FFE1CF00
:102D7000D9FF040EE126DE6ADD6ADECF10F0DDCF7A
:102D800011F0FD0EDBCF12F0FE0EDBCF13F0115071
:102D90001318E8AE02D0133404D01250105C135054
:102DA00011581DE2020EDB6A030EDB6A020EDBCF56
:102DB00010F0030EDBCF11F0D890115004E6EE0EA8
:102DC000105C000E115806E2020EDB2A030EEEE341
:102DD000DB2AECD7DF2A010ED0E3DB2ACED7040EA4
:102DE000E15C02E2E16AE552E16EE552E7CFD9FF2C
:102DF0001200D9CFE6FFE1CFD9FF040EE126DE6A4B
:102E0000DD6ADECF10F0DDCF11F0D890115004E66E
:102E1000040E105C000E115875E2DECFE9FFDDCF25
:102E2000EAFFD20EE926010EEA22EF1C826E020EA4
:102E3000DB6A030EDB6A020EDBCF10F0030EDBCF82
:102E400011F0D890115004E6040E105C000E1158D9
:102E50004AE2DECF10F0DDCF11F0D89010361136F7
:102E6000D89010361136020EDB501024E96E030E96
:102E7000DB501120EA6ED890E936EA36B20EE92628
:102E8000010EEA22EE6AED6A020EDBCFE9FF030EC5
:102E9000DBCFEAFFD60EE926010EEA22EF508214BC
:102EA0001CE1DECF10F0DDCF11F0D89010361136D6
:102EB000D89010361136020EDB501024E96E030E46
:102EC000DB501120EA6ED890E936EA36B20EE926D8
:102ED000010EEA22010EEE6EED6A020EDB2A030EEF
:102EE000AAE3DB2AA8D78250816EE80EE66E030EB5
:102EF000E66E3BDFE552E552DF2A010E01E281D7A3
:102F0000DB2A7FD7040EE15C02E2E16AE552E16E62
:082F1000E552E7CFD9FF1200E2
:082F1800F28ED08EF28C120043
:102F2000F19CF292F2881200D8CFE4FFE0CFE4FFE8
:102F3000E46EDACFE4FFE2CFDAFFE9CFE4FFEACFD5
:102F4000E4FFF6CFE4FFF7CFE4FFF5CFE4FFF3CFE4
:102F5000E4FFF4CFE4FFFACFE4FF00EE00F0100E40
:102F6000E80403E3EECFE4FFFBD700EE10F00A0E17
:102F7000E80403E3EECFE4FFFBD7E652F2A407D068
:102F8000CEEC13F0F294D0EC13F07AEC15F09EA096
:102F900007D0B9EC14F09E9073EC14F088EC15F0A7
:102FA000A1A207D078EC15F0A19232EC15F0A4ECB8
:102FB00015F0F2B2F2929EBA9E9AE55200EE19F026
:102FC0000A0EE80403E3E5CFEDFFFBD700EE0FF0B8
:102FD000100EE80403E3E5CFEDFFFBD7E5CFFAFFE2
:102FE000E5CFF4FFE5CFF3FFE5CFF5FFE5CFF7FF42
:102FF000E5CFF6FFE5CFEAFFE5CFE9FFE5CFDAFF62
:10300000E550E5CFE0FFE5CFD8FF1000DACFE4FFD1
:10301000E2CFDAFFE9CFE4FFEACFE4FFF6CFE4FF47
:10302000F7CFE4FFF5CFE4FFF3CFE4FFF4CFE4FF05
:10303000FACFE4FF00EE00F0100EE80403E3EECF59
:10304000E4FFFBD700EE10F00A0EE80403E3EECF36
:10305000E4FFFBD7E652F2A407D0CEEC13F0F294D3
:10306000D0EC13F07AEC15F09EA007D0B9EC14F078
:103070009E9073EC14F088EC15F0A1A207D078ECC8
:1030800015F0A19232EC15F0A4EC15F0F2B2F29228
:103090009EBA9E9AE55200EE19F00A0EE80403E388
:1030A000E5CFEDFFFBD700EE0FF0100EE80403E3D1
:1030B000E5CFEDFFFBD7E5CFFAFFE5CFF4FFE5CF96
:1030C000F3FFE5CFF5FFE5CFF7FFE5CFF6FFE5CF5F
:0C30D000EAFFE5CFE9FFE5CFDAFF1100D1
:0430DC0050415353B9
:1030E000574F52442057524F4E472020004F5045D3
:1030F0004E494E4720444F4F52202020200043414C
:103100004E4E4F542052454D4F56450052454D4F5F
:10311000564520434F4D504C45544500423A4E4F82
:1031200000433A5945530052454D4F5645204D53A3
:103130003A00322E2000312E2000585858005041BD
:103140005353574F52443A20004E4557205354543E
:103150003A2000505720464F52204D454D4245528F
:1031600000315354204E554D2049532031004348DF
:10317000414E474520414420505700322E44454C93
:10318000455445204D454D00312E414444204D4588
:103190004D00322E4D414E414745204D454D0031A9
:1031A0002E4348414E474520505700322E4F505431
:1031B000494F4E5300315354204E554D2049532012
:1031C0003000312E4348414E474520414741494E4A
:1031D00000315354204E554D204953204552524FF3
:1031E00052004E455720505720494E56414C4944B5
:1031F000004348414E4745205355434345535300F0
:10320000434845434B494E47202E2E2E004348410C
:103210004E4745205553455220505700322E4348C3
:10322000414E474520505700312E4F50454E2044C7
:103230004F4F520020003A0057524F4E47205354F0
:1032400054002A00454E544552205354543A0045E8
:103250004E5445522050570050524553532043205E
:10326000544F00544134005441330054413200540F
:0732700041310054414D0003
:08327800006A0EAE45EF19F0EB
:103280000D6C0E1EE86A0E22001E09AE4DEF19F0FD
:10329000086C091EE86A0922001EA3EC1AF009BE98
:1032A0005DEF19F000AE000C086C091EE86A0922F7
:1032B000046C051EE86A0522000C00BE54EF19F0EC
:1032C0000188FF0C006A0EAE6DEF19F00C6C0D1E3C
:1032D0000E1EE86A0D220E22001E09AE77EF19F0CD
:1032E000076C081E091EE86A08220922001E86ECE7
:1032F0001AF009BE8AEF19F000AE000C076C081E28
:10330000091EE86A08220922036C041E051E042215
:0E3310000522000C00BE7EEF19F00188FF0CB4
:02331E001E0E81
:10332000F66E000EF76E000EF86E00010900F55003
:10333000E66F0900F550E76F03E1E66701D03DD085
:103340000900F550E16F0900F550E26F0900F550F2
:10335000E36F09000900F550E96E0900F550EA6EC7
:10336000090009000900F550E46F0900F550E56F08
:1033700009000900F6CFE8F0F7CFE9F0F8CFEAF05E
:10338000E1C0F6FFE2C0F7FFE3C0F8FF0001E4533D
:1033900002E1E55307E00900F550EE6EE407F8E2BC
:1033A000E507F9D7E8C0F6FFE9C0F7FFEAC0F8FF84
:0C33B0000001E607000EE75BBFD712002B
:0433BC00D9CFE6FF80
:1033C000DACFE6FFFA0EE3CFD9FFFB0EE3CFDAFF49
:1033D000FC0EE3CFE9FFFD0EE3CFEAFFE9CFF3FFF9
:1033E000EACFF4FFE950D95CEA50DA580EE3F80E60
:1033F000E35003E1F90EE35024E0F80EE30602E2A5
:10340000F90EE306DECFEEFFF2D7F80EE350D92631
:10341000F90EE350DA22DD52F80EE350E926F90EF8
:10342000E350EA22ED52F80EE35003E1F90EE350C7
:1034300008E0F80EE30602E2F90EE306DDCFEDFF49
:10344000F2D7FF0EE3CFDAFFE552FF0EE3CFD9FF4D
:04345000E55212002F
:0C34540006500B02F3CF02F0F4CF03F09F
:103460000C02F3500326000EF420046E06500D02E9
:10347000F3500426000EF420056E06500E02F350A1
:10348000052607500B02F3500326F4500422000EC9
:10349000052207500C02F3500426F4500522075071
:1034A0000D02F350052608500B02F3500426F45089
:1034B000052208500C02F350052609500B02F35068
:0434C00005261200CB
:0C34C400056A046A036A026A200EE76EC3
:1034D000D8900636073608360936023603360436E3
:1034E00005360B50025C0C5003580D5004580E501A
:1034F000055809E30B50025E0C50035A0D50045A54
:0C3500000E50055A062AE72EE4D71200F0
:04350C00056A046ADE
:10351000036A180EE76ED890073608360936033668
:10352000043605360C50035C0D5004580E500558F7
:1035300007E30C50035E0D50045A0E50055A072A3B
:06354000E72EEAD712009D
:0A354600056A046A100EE76ED890C3
:1035500008360936043605360D50045C0E50055801
:1035600005E30D50045E0E50055A082AE72EF0D7E9
:02357000120047
:0E357200800EF36E00EE00F00F0E01D8120076
:10358000EA6002D0EE6AFCD7F350E9601200EE6AFE
:02359000FCD766
:0E3592001EEE00F02EEE00F0F86A019C8FECA9
:0E35A00019F003EC00F02EEC00F0FBD7120047
:0235AE00056AAC
:1035B000080EE76ED890093605360E50055C02E31A
:0A35C000056E092AE72EF7D7120066
:0635CA00000000000000FB
:1035D00000000000000000000000000000000000EB
:0A35E00000000100010001000100DD
:0635EA000102040810209C
:1035F00040800000000000000000010203410405BB
:103600000642070809432A0045440102030405064F
:103610000107080909070003030303080008060857
:103620000609000607080900000001020304050658
:10363000733201000107080909076F320200000315
:10364000030303086B32030000080608060967320B
:1036500004000006070809006332000000000000B3
:10366000000000000000000000000000000000005A
:10367000000000000000000000000000000000004A
:10368000000000000000000000000000000000003A
:0C36900000000000050005000000000024
:04369C00000000002A
:1036A000000000001010101010101010181818183A
:1036B000181818181C1C1C1C1C1C1C1C1E1E1E1E52
:1036C0001E1E1E1E1F1F1F1F1F1F1F1F000000008A
:1036D00000000000000000000000000000000000EA
:1036E00000000000000000000000000000000000DA
:0D36F00000000000000000000000000000CD
:0336FD00000000CA
:1037000000000000000000000000000000000000B9
:103710000000000000000000000000000010204039
:05372000800102040815
:020000040030CA
:0100010002FC
:0100020003FA
:010003001EDE
:010005008179
:010006008178
:010008000FE8
:01000900C036
:01000A000FE6
:01000B00E014
:01000C000FE4
:01000D0040B2
:00000001FF
